{"abi":[{"type":"constructor","inputs":[],"stateMutability":"nonpayable"},{"type":"function","name":"EIP712_DOMAIN_TYPE_HASH","inputs":[],"outputs":[{"name":"","type":"bytes32","internalType":"bytes32"}],"stateMutability":"view"},{"type":"function","name":"UPGRADE_INTERFACE_VERSION","inputs":[],"outputs":[{"name":"","type":"string","internalType":"string"}],"stateMutability":"view"},{"type":"function","name":"acceptOwnership","inputs":[],"outputs":[],"stateMutability":"nonpayable"},{"type":"function","name":"addBurnSigner","inputs":[{"name":"signer","type":"address","internalType":"address"}],"outputs":[],"stateMutability":"nonpayable"},{"type":"function","name":"addDelegate","inputs":[{"name":"token","type":"address","internalType":"address"},{"name":"delegate","type":"address","internalType":"address"}],"outputs":[],"stateMutability":"nonpayable"},{"type":"function","name":"addSupportedToken","inputs":[{"name":"token","type":"address","internalType":"address"}],"outputs":[],"stateMutability":"nonpayable"},{"type":"function","name":"availableBalance","inputs":[{"name":"token","type":"address","internalType":"address"},{"name":"depositor","type":"address","internalType":"address"}],"outputs":[{"name":"","type":"uint256","internalType":"uint256"}],"stateMutability":"view"},{"type":"function","name":"balanceOf","inputs":[{"name":"depositor","type":"address","internalType":"address"},{"name":"id","type":"uint256","internalType":"uint256"}],"outputs":[{"name":"balance","type":"uint256","internalType":"uint256"}],"stateMutability":"view"},{"type":"function","name":"balanceOfBatch","inputs":[{"name":"depositors","type":"address[]","internalType":"address[]"},{"name":"ids","type":"uint256[]","internalType":"uint256[]"}],"outputs":[{"name":"balances","type":"uint256[]","internalType":"uint256[]"}],"stateMutability":"view"},{"type":"function","name":"denylist","inputs":[{"name":"addr","type":"address","internalType":"address"}],"outputs":[],"stateMutability":"nonpayable"},{"type":"function","name":"denylister","inputs":[],"outputs":[{"name":"","type":"address","internalType":"address"}],"stateMutability":"view"},{"type":"function","name":"deposit","inputs":[{"name":"token","type":"address","internalType":"address"},{"name":"value","type":"uint256","internalType":"uint256"}],"outputs":[],"stateMutability":"nonpayable"},{"type":"function","name":"depositFor","inputs":[{"name":"token","type":"address","internalType":"address"},{"name":"depositor","type":"address","internalType":"address"},{"name":"value","type":"uint256","internalType":"uint256"}],"outputs":[],"stateMutability":"nonpayable"},{"type":"function","name":"depositWithAuthorization","inputs":[{"name":"token","type":"address","internalType":"address"},{"name":"from","type":"address","internalType":"address"},{"name":"value","type":"uint256","internalType":"uint256"},{"name":"validAfter","type":"uint256","internalType":"uint256"},{"name":"validBefore","type":"uint256","internalType":"uint256"},{"name":"nonce","type":"bytes32","internalType":"bytes32"},{"name":"signature","type":"bytes","internalType":"bytes"}],"outputs":[],"stateMutability":"nonpayable"},{"type":"function","name":"depositWithAuthorization","inputs":[{"name":"token","type":"address","internalType":"address"},{"name":"from","type":"address","internalType":"address"},{"name":"value","type":"uint256","internalType":"uint256"},{"name":"validAfter","type":"uint256","internalType":"uint256"},{"name":"validBefore","type":"uint256","internalType":"uint256"},{"name":"nonce","type":"bytes32","internalType":"bytes32"},{"name":"v","type":"uint8","internalType":"uint8"},{"name":"r","type":"bytes32","internalType":"bytes32"},{"name":"s","type":"bytes32","internalType":"bytes32"}],"outputs":[],"stateMutability":"nonpayable"},{"type":"function","name":"depositWithPermit","inputs":[{"name":"token","type":"address","internalType":"address"},{"name":"owner","type":"address","internalType":"address"},{"name":"value","type":"uint256","internalType":"uint256"},{"name":"deadline","type":"uint256","internalType":"uint256"},{"name":"signature","type":"bytes","internalType":"bytes"}],"outputs":[],"stateMutability":"nonpayable"},{"type":"function","name":"depositWithPermit","inputs":[{"name":"token","type":"address","internalType":"address"},{"name":"owner","type":"address","internalType":"address"},{"name":"value","type":"uint256","internalType":"uint256"},{"name":"deadline","type":"uint256","internalType":"uint256"},{"name":"v","type":"uint8","internalType":"uint8"},{"name":"r","type":"bytes32","internalType":"bytes32"},{"name":"s","type":"bytes32","internalType":"bytes32"}],"outputs":[],"stateMutability":"nonpayable"},{"type":"function","name":"domain","inputs":[],"outputs":[{"name":"","type":"uint32","internalType":"uint32"}],"stateMutability":"view"},{"type":"function","name":"domainSeparator","inputs":[],"outputs":[{"name":"","type":"bytes32","internalType":"bytes32"}],"stateMutability":"pure"},{"type":"function","name":"eip712Domain","inputs":[],"outputs":[{"name":"fields","type":"bytes1","internalType":"bytes1"},{"name":"name","type":"string","internalType":"string"},{"name":"version","type":"string","internalType":"string"},{"name":"chainId","type":"uint256","internalType":"uint256"},{"name":"verifyingContract","type":"address","internalType":"address"},{"name":"salt","type":"bytes32","internalType":"bytes32"},{"name":"extensions","type":"uint256[]","internalType":"uint256[]"}],"stateMutability":"view"},{"type":"function","name":"feeRecipient","inputs":[],"outputs":[{"name":"","type":"address","internalType":"address"}],"stateMutability":"view"},{"type":"function","name":"gatewayBurn","inputs":[{"name":"calldataBytes","type":"bytes","internalType":"bytes"},{"name":"signature","type":"bytes","internalType":"bytes"}],"outputs":[],"stateMutability":"nonpayable"},{"type":"function","name":"getTypedDataHash","inputs":[{"name":"intent","type":"bytes","internalType":"bytes"}],"outputs":[{"name":"","type":"bytes32","internalType":"bytes32"}],"stateMutability":"view"},{"type":"function","name":"initialize","inputs":[{"name":"pauser_","type":"address","internalType":"address"},{"name":"denylister_","type":"address","internalType":"address"},{"name":"supportedTokens_","type":"address[]","internalType":"address[]"},{"name":"domain_","type":"uint32","internalType":"uint32"},{"name":"withdrawalDelay_","type":"uint256","internalType":"uint256"},{"name":"burnSigner_","type":"address","internalType":"address"},{"name":"feeRecipient_","type":"address","internalType":"address"}],"outputs":[],"stateMutability":"nonpayable"},{"type":"function","name":"initiateWithdrawal","inputs":[{"name":"token","type":"address","internalType":"address"},{"name":"value","type":"uint256","internalType":"uint256"}],"outputs":[],"stateMutability":"nonpayable"},{"type":"function","name":"initiateWithdrawal","inputs":[{"name":"token","type":"address","internalType":"address"},{"name":"depositor","type":"address","internalType":"address"},{"name":"value","type":"uint256","internalType":"uint256"}],"outputs":[],"stateMutability":"nonpayable"},{"type":"function","name":"isAuthorizedForBalance","inputs":[{"name":"token","type":"address","internalType":"address"},{"name":"depositor","type":"address","internalType":"address"},{"name":"addr","type":"address","internalType":"address"}],"outputs":[{"name":"","type":"bool","internalType":"bool"}],"stateMutability":"view"},{"type":"function","name":"isBurnSigner","inputs":[{"name":"signer","type":"address","internalType":"address"}],"outputs":[{"name":"","type":"bool","internalType":"bool"}],"stateMutability":"view"},{"type":"function","name":"isDenylisted","inputs":[{"name":"addr","type":"address","internalType":"address"}],"outputs":[{"name":"","type":"bool","internalType":"bool"}],"stateMutability":"view"},{"type":"function","name":"isTokenSupported","inputs":[{"name":"token","type":"address","internalType":"address"}],"outputs":[{"name":"","type":"bool","internalType":"bool"}],"stateMutability":"view"},{"type":"function","name":"isTransferSpecHashUsed","inputs":[{"name":"transferSpecHash","type":"bytes32","internalType":"bytes32"}],"outputs":[{"name":"","type":"bool","internalType":"bool"}],"stateMutability":"view"},{"type":"function","name":"owner","inputs":[],"outputs":[{"name":"","type":"address","internalType":"address"}],"stateMutability":"view"},{"type":"function","name":"pause","inputs":[],"outputs":[],"stateMutability":"nonpayable"},{"type":"function","name":"paused","inputs":[],"outputs":[{"name":"","type":"bool","internalType":"bool"}],"stateMutability":"view"},{"type":"function","name":"pauser","inputs":[],"outputs":[{"name":"","type":"address","internalType":"address"}],"stateMutability":"view"},{"type":"function","name":"pendingOwner","inputs":[],"outputs":[{"name":"","type":"address","internalType":"address"}],"stateMutability":"view"},{"type":"function","name":"proxiableUUID","inputs":[],"outputs":[{"name":"","type":"bytes32","internalType":"bytes32"}],"stateMutability":"view"},{"type":"function","name":"removeBurnSigner","inputs":[{"name":"signer","type":"address","internalType":"address"}],"outputs":[],"stateMutability":"nonpayable"},{"type":"function","name":"removeDelegate","inputs":[{"name":"token","type":"address","internalType":"address"},{"name":"delegate","type":"address","internalType":"address"}],"outputs":[],"stateMutability":"nonpayable"},{"type":"function","name":"renounceOwnership","inputs":[],"outputs":[],"stateMutability":"nonpayable"},{"type":"function","name":"totalBalance","inputs":[{"name":"token","type":"address","internalType":"address"},{"name":"depositor","type":"address","internalType":"address"}],"outputs":[{"name":"","type":"uint256","internalType":"uint256"}],"stateMutability":"view"},{"type":"function","name":"transferOwnership","inputs":[{"name":"newOwner","type":"address","internalType":"address"}],"outputs":[],"stateMutability":"nonpayable"},{"type":"function","name":"unDenylist","inputs":[{"name":"addr","type":"address","internalType":"address"}],"outputs":[],"stateMutability":"nonpayable"},{"type":"function","name":"unpause","inputs":[],"outputs":[],"stateMutability":"nonpayable"},{"type":"function","name":"updateDenylister","inputs":[{"name":"newDenylister","type":"address","internalType":"address"}],"outputs":[],"stateMutability":"nonpayable"},{"type":"function","name":"updateFeeRecipient","inputs":[{"name":"newFeeRecipient","type":"address","internalType":"address"}],"outputs":[],"stateMutability":"nonpayable"},{"type":"function","name":"updatePauser","inputs":[{"name":"newPauser","type":"address","internalType":"address"}],"outputs":[],"stateMutability":"nonpayable"},{"type":"function","name":"updateWithdrawalDelay","inputs":[{"name":"newDelay","type":"uint256","internalType":"uint256"}],"outputs":[],"stateMutability":"nonpayable"},{"type":"function","name":"upgradeToAndCall","inputs":[{"name":"newImplementation","type":"address","internalType":"address"},{"name":"data","type":"bytes","internalType":"bytes"}],"outputs":[],"stateMutability":"payable"},{"type":"function","name":"withdraw","inputs":[{"name":"token","type":"address","internalType":"address"}],"outputs":[],"stateMutability":"nonpayable"},{"type":"function","name":"withdraw","inputs":[{"name":"token","type":"address","internalType":"address"},{"name":"depositor","type":"address","internalType":"address"},{"name":"recipient","type":"address","internalType":"address"}],"outputs":[],"stateMutability":"nonpayable"},{"type":"function","name":"withdrawableBalance","inputs":[{"name":"token","type":"address","internalType":"address"},{"name":"depositor","type":"address","internalType":"address"}],"outputs":[{"name":"","type":"uint256","internalType":"uint256"}],"stateMutability":"view"},{"type":"function","name":"withdrawalBlock","inputs":[{"name":"token","type":"address","internalType":"address"},{"name":"depositor","type":"address","internalType":"address"}],"outputs":[{"name":"","type":"uint256","internalType":"uint256"}],"stateMutability":"view"},{"type":"function","name":"withdrawalDelay","inputs":[],"outputs":[{"name":"","type":"uint256","internalType":"uint256"}],"stateMutability":"view"},{"type":"function","name":"withdrawingBalance","inputs":[{"name":"token","type":"address","internalType":"address"},{"name":"depositor","type":"address","internalType":"address"}],"outputs":[{"name":"","type":"uint256","internalType":"uint256"}],"stateMutability":"view"},{"type":"event","name":"BurnSignerAdded","inputs":[{"name":"signer","type":"address","indexed":true,"internalType":"address"}],"anonymous":false},{"type":"event","name":"BurnSignerRemoved","inputs":[{"name":"signer","type":"address","indexed":true,"internalType":"address"}],"anonymous":false},{"type":"event","name":"DelegateAdded","inputs":[{"name":"token","type":"address","indexed":true,"internalType":"address"},{"name":"depositor","type":"address","indexed":true,"internalType":"address"},{"name":"delegate","type":"address","indexed":false,"internalType":"address"}],"anonymous":false},{"type":"event","name":"DelegateRemoved","inputs":[{"name":"token","type":"address","indexed":true,"internalType":"address"},{"name":"depositor","type":"address","indexed":true,"internalType":"address"},{"name":"delegate","type":"address","indexed":false,"internalType":"address"}],"anonymous":false},{"type":"event","name":"Denylisted","inputs":[{"name":"addr","type":"address","indexed":true,"internalType":"address"}],"anonymous":false},{"type":"event","name":"DenylisterChanged","inputs":[{"name":"oldDenylister","type":"address","indexed":true,"internalType":"address"},{"name":"newDenylister","type":"address","indexed":true,"internalType":"address"}],"anonymous":false},{"type":"event","name":"Deposited","inputs":[{"name":"token","type":"address","indexed":true,"internalType":"address"},{"name":"depositor","type":"address","indexed":true,"internalType":"address"},{"name":"sender","type":"address","indexed":true,"internalType":"address"},{"name":"value","type":"uint256","indexed":false,"internalType":"uint256"}],"anonymous":false},{"type":"event","name":"EIP712DomainChanged","inputs":[],"anonymous":false},{"type":"event","name":"FeeRecipientChanged","inputs":[{"name":"oldFeeRecipient","type":"address","indexed":true,"internalType":"address"},{"name":"newFeeRecipient","type":"address","indexed":true,"internalType":"address"}],"anonymous":false},{"type":"event","name":"GatewayBurned","inputs":[{"name":"token","type":"address","indexed":true,"internalType":"address"},{"name":"depositor","type":"address","indexed":true,"internalType":"address"},{"name":"transferSpecHash","type":"bytes32","indexed":true,"internalType":"bytes32"},{"name":"destinationDomain","type":"uint32","indexed":false,"internalType":"uint32"},{"name":"destinationRecipient","type":"bytes32","indexed":false,"internalType":"bytes32"},{"name":"signer","type":"address","indexed":false,"internalType":"address"},{"name":"value","type":"uint256","indexed":false,"internalType":"uint256"},{"name":"fee","type":"uint256","indexed":false,"internalType":"uint256"},{"name":"fromAvailable","type":"uint256","indexed":false,"internalType":"uint256"},{"name":"fromWithdrawing","type":"uint256","indexed":false,"internalType":"uint256"}],"anonymous":false},{"type":"event","name":"Initialized","inputs":[{"name":"version","type":"uint64","indexed":false,"internalType":"uint64"}],"anonymous":false},{"type":"event","name":"InsufficientBalance","inputs":[{"name":"token","type":"address","indexed":true,"internalType":"address"},{"name":"depositor","type":"address","indexed":true,"internalType":"address"},{"name":"value","type":"uint256","indexed":false,"internalType":"uint256"},{"name":"availableBalance","type":"uint256","indexed":false,"internalType":"uint256"},{"name":"withdrawingBalance","type":"uint256","indexed":false,"internalType":"uint256"}],"anonymous":false},{"type":"event","name":"OwnershipTransferStarted","inputs":[{"name":"previousOwner","type":"address","indexed":true,"internalType":"address"},{"name":"newOwner","type":"address","indexed":true,"internalType":"address"}],"anonymous":false},{"type":"event","name":"OwnershipTransferred","inputs":[{"name":"previousOwner","type":"address","indexed":true,"internalType":"address"},{"name":"newOwner","type":"address","indexed":true,"internalType":"address"}],"anonymous":false},{"type":"event","name":"Paused","inputs":[{"name":"account","type":"address","indexed":false,"internalType":"address"}],"anonymous":false},{"type":"event","name":"PauserChanged","inputs":[{"name":"oldPauser","type":"address","indexed":true,"internalType":"address"},{"name":"newPauser","type":"address","indexed":true,"internalType":"address"}],"anonymous":false},{"type":"event","name":"TokenSupported","inputs":[{"name":"token","type":"address","indexed":false,"internalType":"address"}],"anonymous":false},{"type":"event","name":"UnDenylisted","inputs":[{"name":"addr","type":"address","indexed":true,"internalType":"address"}],"anonymous":false},{"type":"event","name":"Unpaused","inputs":[{"name":"account","type":"address","indexed":false,"internalType":"address"}],"anonymous":false},{"type":"event","name":"Upgraded","inputs":[{"name":"implementation","type":"address","indexed":true,"internalType":"address"}],"anonymous":false},{"type":"event","name":"WithdrawalCompleted","inputs":[{"name":"token","type":"address","indexed":true,"internalType":"address"},{"name":"depositor","type":"address","indexed":true,"internalType":"address"},{"name":"recipient","type":"address","indexed":true,"internalType":"address"},{"name":"authorizer","type":"address","indexed":false,"internalType":"address"},{"name":"value","type":"uint256","indexed":false,"internalType":"uint256"}],"anonymous":false},{"type":"event","name":"WithdrawalDelayChanged","inputs":[{"name":"oldDelay","type":"uint256","indexed":true,"internalType":"uint256"},{"name":"newDelay","type":"uint256","indexed":true,"internalType":"uint256"}],"anonymous":false},{"type":"event","name":"WithdrawalInitiated","inputs":[{"name":"token","type":"address","indexed":true,"internalType":"address"},{"name":"depositor","type":"address","indexed":true,"internalType":"address"},{"name":"authorizer","type":"address","indexed":true,"internalType":"address"},{"name":"value","type":"uint256","indexed":false,"internalType":"uint256"},{"name":"remainingAvailable","type":"uint256","indexed":false,"internalType":"uint256"},{"name":"totalWithdrawing","type":"uint256","indexed":false,"internalType":"uint256"},{"name":"withdrawalBlock","type":"uint256","indexed":false,"internalType":"uint256"}],"anonymous":false},{"type":"error","name":"AccountDenylisted","inputs":[{"name":"addr","type":"address","internalType":"address"}]},{"type":"error","name":"AddressEmptyCode","inputs":[{"name":"target","type":"address","internalType":"address"}]},{"type":"error","name":"BurnFeeTooHighAtIndex","inputs":[{"name":"index","type":"uint32","internalType":"uint32"},{"name":"maxFee","type":"uint256","internalType":"uint256"},{"name":"actualFee","type":"uint256","internalType":"uint256"}]},{"type":"error","name":"CannotDelegateToSelf","inputs":[]},{"type":"error","name":"CursorOutOfBounds","inputs":[]},{"type":"error","name":"DepositValueMustBePositive","inputs":[]},{"type":"error","name":"DepositorIsBlacklisted","inputs":[{"name":"depositor","type":"address","internalType":"address"}]},{"type":"error","name":"ECDSAInvalidSignature","inputs":[]},{"type":"error","name":"ECDSAInvalidSignatureLength","inputs":[{"name":"length","type":"uint256","internalType":"uint256"}]},{"type":"error","name":"ECDSAInvalidSignatureS","inputs":[{"name":"s","type":"bytes32","internalType":"bytes32"}]},{"type":"error","name":"ERC1967InvalidImplementation","inputs":[{"name":"implementation","type":"address","internalType":"address"}]},{"type":"error","name":"ERC1967NonPayable","inputs":[]},{"type":"error","name":"EnforcedPause","inputs":[]},{"type":"error","name":"ExpectedPause","inputs":[]},{"type":"error","name":"FailedCall","inputs":[]},{"type":"error","name":"InputArrayLengthMismatch","inputs":[]},{"type":"error","name":"IntentExpiredAtIndex","inputs":[{"name":"index","type":"uint32","internalType":"uint32"},{"name":"maxBlockHeight","type":"uint256","internalType":"uint256"},{"name":"currentBlock","type":"uint256","internalType":"uint256"}]},{"type":"error","name":"IntentValueMustBePositiveAtIndex","inputs":[{"name":"index","type":"uint32","internalType":"uint32"}]},{"type":"error","name":"InvalidAddress","inputs":[]},{"type":"error","name":"InvalidBurnSigner","inputs":[]},{"type":"error","name":"InvalidInitialization","inputs":[]},{"type":"error","name":"InvalidIntentSourceContractAtIndex","inputs":[{"name":"index","type":"uint32","internalType":"uint32"},{"name":"intentContract","type":"address","internalType":"address"},{"name":"expectedContract","type":"address","internalType":"address"}]},{"type":"error","name":"InvalidIntentSourceSignerAtIndex","inputs":[{"name":"index","type":"uint32","internalType":"uint32"},{"name":"intentSigner","type":"address","internalType":"address"},{"name":"actualSigner","type":"address","internalType":"address"}]},{"type":"error","name":"InvalidTransferPayloadMagic","inputs":[{"name":"actualMagic","type":"bytes4","internalType":"bytes4"}]},{"type":"error","name":"InvalidTransferSpecMagic","inputs":[{"name":"actualMagic","type":"bytes4","internalType":"bytes4"}]},{"type":"error","name":"InvalidTransferSpecVersion","inputs":[{"name":"actualVersion","type":"uint32","internalType":"uint32"}]},{"type":"error","name":"MismatchedBurn","inputs":[]},{"type":"error","name":"MustHaveAtLeastOneBurnIntent","inputs":[]},{"type":"error","name":"NoRelevantBurnIntents","inputs":[]},{"type":"error","name":"NoWithdrawingBalance","inputs":[]},{"type":"error","name":"NotAllSameToken","inputs":[]},{"type":"error","name":"NotAuthorized","inputs":[]},{"type":"error","name":"NotInitializing","inputs":[]},{"type":"error","name":"OwnableInvalidOwner","inputs":[{"name":"owner","type":"address","internalType":"address"}]},{"type":"error","name":"OwnableUnauthorizedAccount","inputs":[{"name":"account","type":"address","internalType":"address"}]},{"type":"error","name":"SafeERC20FailedOperation","inputs":[{"name":"token","type":"address","internalType":"address"}]},{"type":"error","name":"TransferPayloadDataTooShort","inputs":[{"name":"expectedMinimumLength","type":"uint256","internalType":"uint256"},{"name":"actualLength","type":"uint256","internalType":"uint256"}]},{"type":"error","name":"TransferPayloadHeaderTooShort","inputs":[{"name":"expectedMinimumLength","type":"uint256","internalType":"uint256"},{"name":"actualLength","type":"uint256","internalType":"uint256"}]},{"type":"error","name":"TransferPayloadOverallLengthMismatch","inputs":[{"name":"expectedTotalLength","type":"uint256","internalType":"uint256"},{"name":"actualTotalLength","type":"uint256","internalType":"uint256"}]},{"type":"error","name":"TransferPayloadSetElementHeaderTooShort","inputs":[{"name":"index","type":"uint32","internalType":"uint32"},{"name":"actualSetLength","type":"uint256","internalType":"uint256"},{"name":"requiredOffset","type":"uint256","internalType":"uint256"}]},{"type":"error","name":"TransferPayloadSetElementTooShort","inputs":[{"name":"index","type":"uint32","internalType":"uint32"},{"name":"actualSetLength","type":"uint256","internalType":"uint256"},{"name":"requiredOffset","type":"uint256","internalType":"uint256"}]},{"type":"error","name":"TransferPayloadSetHeaderTooShort","inputs":[{"name":"expectedMinimumLength","type":"uint256","internalType":"uint256"},{"name":"actualLength","type":"uint256","internalType":"uint256"}]},{"type":"error","name":"TransferPayloadSetInvalidElementMagic","inputs":[{"name":"index","type":"uint32","internalType":"uint32"},{"name":"actualMagic","type":"bytes4","internalType":"bytes4"}]},{"type":"error","name":"TransferPayloadSetOverallLengthMismatch","inputs":[{"name":"expectedTotalLength","type":"uint256","internalType":"uint256"},{"name":"actualTotalLength","type":"uint256","internalType":"uint256"}]},{"type":"error","name":"TransferSpecHashUsed","inputs":[{"name":"transferSpecHash","type":"bytes32","internalType":"bytes32"}]},{"type":"error","name":"TransferSpecHeaderTooShort","inputs":[{"name":"expectedMinimumLength","type":"uint256","internalType":"uint256"},{"name":"actualLength","type":"uint256","internalType":"uint256"}]},{"type":"error","name":"TransferSpecInvalidHookData","inputs":[{"name":"expectedHookDataLength","type":"uint256","internalType":"uint256"},{"name":"transferSpecLength","type":"uint256","internalType":"uint256"}]},{"type":"error","name":"TransferSpecOverallLengthMismatch","inputs":[{"name":"expectedTotalLength","type":"uint256","internalType":"uint256"},{"name":"actualTotalLength","type":"uint256","internalType":"uint256"}]},{"type":"error","name":"UUPSUnauthorizedCallContext","inputs":[]},{"type":"error","name":"UUPSUnsupportedProxiableUUID","inputs":[{"name":"slot","type":"bytes32","internalType":"bytes32"}]},{"type":"error","name":"UnauthorizedDenylister","inputs":[{"name":"addr","type":"address","internalType":"address"}]},{"type":"error","name":"UnauthorizedPauser","inputs":[{"name":"caller","type":"address","internalType":"address"}]},{"type":"error","name":"UnsupportedToken","inputs":[{"name":"token","type":"address","internalType":"address"}]},{"type":"error","name":"UnsupportedTokenAtIndex","inputs":[{"name":"index","type":"uint32","internalType":"uint32"},{"name":"sourceToken","type":"address","internalType":"address"}]},{"type":"error","name":"WithdrawalNotYetAvailable","inputs":[]},{"type":"error","name":"WithdrawalValueExceedsAvailableBalance","inputs":[]},{"type":"error","name":"WithdrawalValueMustBePositive","inputs":[]}],"bytecode":{"object":"0x60a060405230608052348015610013575f5ffd5b5061001c610029565b610024610029565b6100db565b7ff0c57e16840df040f15088dc2f81fe391c3923bec73e23a9662efc9c229c6a00805468010000000000000000900460ff16156100795760405163f92ee8a960e01b815260040160405180910390fd5b80546001600160401b03908116146100d85780546001600160401b0319166001600160401b0390811782556040519081527fc7f505b2f371ae2175ee4913f4499e1f2633a7b5936321eed1cdaeb6115181d29060200160405180910390a15b50565b6080516155086101015f395f8181611f7b01528181611fa401526121ab01526155085ff3fe6080604052600436106102d7575f3560e01c806384b0196e11610181578063c2fb26a6116100d4578063e909ebfa11610083578063e909ebfa146108cf578063f160d369146108ee578063f2fde38b1461090d578063f49ebd821461092c578063f698da251461094b578063fefeec131461095f578063ff7885e81461097e575f5ffd5b8063c2fb26a6146107f0578063c8393ba914610820578063d6d344a11461083f578063dc4aa5131461085e578063df0c66901461087d578063e30c39781461089c578063e877a526146108b0575f5ffd5b8063a7ab696111610130578063a7ab6961146106fb578063a946de041461070f578063ad3cb1cc1461072e578063b3db428b1461076b578063b3f69f8d1461078a578063b727b579146107a9578063bcc76c60146107dc575f5ffd5b806384b0196e146106305780638a94d4fc146106575780638da5cb5b146106765780638ec3dbb91461068a5780638ef59739146106a95780639cab0c1c146106c85780639fd0506d146106e7575f5ffd5b80634e1273f4116102395780636d69fcaf116101e85780636d69fcaf14610578578063715018a61461059757806374392bf3146105ab57806375151b63146105ca57806379ba5097146105e95780637e2acfa3146105fd5780638456cb591461061c575f5ffd5b80634e1273f4146104a55780634f1ef286146104d157806351cff8d9146104e457806352cd67e91461050357806352d1902d14610522578063554bab3c146105365780635c975abb14610555575f5ffd5b80633660dbd0116102955780633660dbd0146103d55780633bbe1ecd146103f45780633ccb64ae146104135780633f4ba83a14610432578063438d483514610446578063469048401461046557806347e7ef2414610486575f5ffd5b8062fdd58e146102db578063020d308d1461030d5780631453b9871461032e578063175801581461034d57806326a3fb30146103975780633371bfff146103b6575b5f5ffd5b3480156102e6575f5ffd5b506102fa6102f536600461475c565b61099d565b6040519081526020015b60405180910390f35b348015610318575f5ffd5b5061032c610327366004614784565b610a74565b005b348015610339575f5ffd5b506102fa610348366004614784565b610b8d565b348015610358575f5ffd5b506103876103673660046147b5565b5f9081525f5160206153f35f395f51905f52602052604090205460ff1690565b6040519015158152602001610304565b3480156103a2575f5ffd5b5061032c6103b1366004614810565b610be9565b3480156103c1575f5ffd5b5061032c6103d0366004614882565b610c5c565b3480156103e0575f5ffd5b506103876103ef366004614882565b610cdc565b3480156103ff575f5ffd5b506102fa61040e366004614784565b610d06565b34801561041e575f5ffd5b506102fa61042d366004614784565b610d66565b34801561043d575f5ffd5b5061032c610d97565b348015610451575f5ffd5b5061032c61046036600461489b565b610dd3565b348015610470575f5ffd5b50610479610e4a565b604051610304919061491f565b348015610491575f5ffd5b5061032c6104a036600461475c565b610e65565b3480156104b0575f5ffd5b506104c46104bf366004614973565b610e97565b6040516103049190614a17565b61032c6104df366004614ad8565b610f7d565b3480156104ef575f5ffd5b5061032c6104fe366004614882565b610f9c565b34801561050e575f5ffd5b5061032c61051d3660046147b5565b610fc4565b34801561052d575f5ffd5b506102fa611018565b348015610541575f5ffd5b5061032c610550366004614882565b611033565b348015610560575f5ffd5b505f5160206154735f395f51905f525460ff16610387565b348015610583575f5ffd5b5061032c610592366004614882565b611047565b3480156105a2575f5ffd5b5061032c6110cb565b3480156105b6575f5ffd5b506103876105c5366004614b22565b6110dc565b3480156105d5575f5ffd5b506103876105e4366004614882565b61115a565b3480156105f4575f5ffd5b5061032c611181565b348015610608575f5ffd5b5061032c610617366004614882565b6111bd565b348015610627575f5ffd5b5061032c611229565b34801561063b575f5ffd5b50610644611263565b6040516103049796959493929190614b90565b348015610662575f5ffd5b5061032c610671366004614c0f565b61130c565b348015610681575f5ffd5b50610479611372565b348015610695575f5ffd5b5061032c6106a4366004614c8a565b6113a6565b3480156106b4575f5ffd5b5061032c6106c3366004614ce8565b6113e3565b3480156106d3575f5ffd5b5061032c6106e2366004614882565b611445565b3480156106f2575f5ffd5b506104796114bb565b348015610706575f5ffd5b506102fa6114ed565b34801561071a575f5ffd5b5061032c610729366004614882565b6114ff565b348015610739575f5ffd5b5061075e604051806040016040528060058152602001640352e302e360dc1b81525081565b6040516103049190614d4e565b348015610776575f5ffd5b5061032c610785366004614d60565b61156c565b348015610795575f5ffd5b5061032c6107a4366004614882565b61162b565b3480156107b4575f5ffd5b506102fa7fb03948446334eb9b2196d5eb166f69b9d49403eb4a12f36de8d3f9f3cb8e15c381565b3480156107e7575f5ffd5b50610479611698565b3480156107fb575f5ffd5b505f5160206154935f395f51905f525460405163ffffffff9091168152602001610304565b34801561082b575f5ffd5b5061032c61083a36600461475c565b6116a1565b34801561084a575f5ffd5b5061032c610859366004614d60565b6116c1565b348015610869575f5ffd5b506102fa610878366004614d9a565b611715565b348015610888575f5ffd5b506102fa610897366004614784565b611754565b3480156108a7575f5ffd5b5061047961178c565b3480156108bb575f5ffd5b506103876108ca366004614882565b6117a1565b3480156108da575f5ffd5b5061032c6108e9366004614784565b6117aa565b3480156108f9575f5ffd5b5061032c610908366004614882565b611888565b348015610918575f5ffd5b5061032c610927366004614882565b6118f7565b348015610937575f5ffd5b5061032c610946366004614dd8565b611969565b348015610956575f5ffd5b506102fa611a64565b34801561096a575f5ffd5b506102fa610979366004614784565b611b2c565b348015610989575f5ffd5b5061032c610998366004614b22565b611b35565b5f8160a081901c60038111156109b7575f92505050610a6e565b5f816001600160601b031660038111156109d3576109d3614e7a565b90505f8160038111156109e8576109e8614e7a565b036109fe576109f78387610b8d565b9350610a6a565b6001816003811115610a1257610a12614e7a565b03610a21576109f78387610d66565b6002816003811115610a3557610a35614e7a565b03610a44576109f78387611754565b6003816003811115610a5857610a58614e7a565b03610a6a57610a678387610d06565b93505b5050505b92915050565b610a7c611b7f565b33610a8681611baf565b82610a9081611bd8565b610a9983611c00565b6001600160a01b038481165f9081525f5160206154335f395f51905f5260208181526040808420338552825280842094881684529390529181205460ff1690816002811115610aea57610aea614e7a565b1480610b0757506002816002811115610b0557610b05614e7a565b145b15610b13575050610b87565b6001600160a01b038681165f8181526020858152604080832033808552908352818420958b1684529490915290819020805460ff19166002179055517ff706b3b70da5d5dada9b3c7d9f14e4f6c280183742a82ea2f951653070b0f19590610b7c90899061491f565b60405180910390a350505b50505050565b5f5f610b97611c27565b6001600160a01b038086165f8181526001840160209081526040808320948916808452948252808320549383528582528083209483529390529190912054919250610be191614ea2565b949350505050565b610bf1611b7f565b33610bfb81611baf565b85610c0581611baf565b87610c0f81611bd8565b610c518989898989898080601f0160208091040260200160405190810160405280939291908181526020018383808284375f92019190915250611c4b92505050565b505050505050505050565b610c64611d3a565b600101546001600160a01b03163314610c9b5733604051637446939f60e11b8152600401610c92919061491f565b60405180910390fd5b610ca6816001611d5e565b6040516001600160a01b038216907ffa4507bc1f9c730e6e95897024f1fe7d576cf2deb53579d55c14f1ac3439e114905f90a250565b5f610ce5611d95565b6001600160a01b039092165f90815260209290925250604090205460ff1690565b5f5f610d10611c27565b6001600160a01b038086165f9081526001929092016020908152604080842092871684529190529020549050801580610d51575043610d4f8585611b2c565b115b15610d5f575f915050610a6e565b9392505050565b5f610d6f611c27565b6001600160a01b039384165f9081526020918252604080822094909516815292905250205490565b33610da06114bb565b6001600160a01b031614610dc9573360405163ae3b56d560e01b8152600401610c92919061491f565b610dd1611db9565b565b610ddb611b7f565b33610de581611baf565b87610def81611baf565b89610df981611bd8565b610e3d8b8b8b8b8b8b8b8b8080601f0160208091040260200160405190810160405280939291908181526020018383808284375f92019190915250611e0792505050565b5050505050505050505050565b5f610e53611d95565b600101546001600160a01b0316919050565b610e6d611b7f565b33610e7781611baf565b82610e8181611bd8565b3380610e8f86828088611ee6565b505050505050565b6060838214610eb9576040516343714afd60e01b815260040160405180910390fd5b836001600160401b03811115610ed157610ed1614a29565b604051908082528060200260200182016040528015610efa578160200160208202803683370190505b5090505f5b84811015610f7457610f4f868683818110610f1c57610f1c614eb5565b9050602002016020810190610f319190614882565b858584818110610f4357610f43614eb5565b9050602002013561099d565b828281518110610f6157610f61614eb5565b6020908102919091010152600101610eff565b50949350505050565b610f85611f70565b610f8e82611ffe565b610f988282612006565b5050565b610fa4611b7f565b80610fae81611bd8565b338080610fbd858280806120be565b5050505050565b610fcc61214a565b5f610fd561217c565b60010154905081610fe461217c565b60010155604051829082907fab3f1d5eaee409b7067167f77f1fa3f8a863366d6fb2b88559cd4f9b8e03e182905f90a35050565b5f6110216121a0565b505f5160206154135f395f51905f5290565b61103b61214a565b611044816121e9565b50565b61104f61214a565b6001600160a01b0381165f9081527f3ba16516a08fb9c5c48fb6662657ad4ffe1c779829969b4c7abdb9287bbf8500602052604090819020805460ff19166001179055517fea3145306a87baeba6bb1a8b5c8d3744f840a81cb436b3509f64fc978600cdfb906110c090839061491f565b60405180910390a150565b6110d361214a565b610dd15f612259565b5f826001600160a01b0316826001600160a01b0316036110fe57506001610d5f565b6001600160a01b038481165f9081525f5160206154335f395f51905f5260209081526040808320878516845282528083209386168352929052205460ff16600181600281111561115057611150614e7a565b1495945050505050565b5f7f3ba16516a08fb9c5c48fb6662657ad4ffe1c779829969b4c7abdb9287bbf8500610ce5565b338061118b61178c565b6001600160a01b0316146111b4578060405163118cdaa760e01b8152600401610c92919061491f565b61104481612259565b6111c561214a565b6111ce81611c00565b5f6111d7611d95565b6001600160a01b0383165f8181526020929092526040808320805460ff19169415159490941790935591517f61bf1e503074577bd48a3a903d7b74860236be7560e7324f6614d093a166ff459190a250565b336112326114bb565b6001600160a01b03161461125b573360405163ae3b56d560e01b8152600401610c92919061491f565b610dd161227e565b5f6060805f5f5f60606040518060400160405280600d81526020016c11d85d195dd85e55d85b1b195d609a1b815250604051806040016040528060018152602001603160f81b8152505f5f5f5f1b5f6001600160401b038111156112c9576112c9614a29565b6040519080825280602002602001820160405280156112f2578160200160208202803683370190505b50600360f81b9d959c50939a509198509650945092509050565b611314611b7f565b3361131e81611baf565b8861132881611baf565b8a61133281611bd8565b6113648c8c8c8c8c8c8b8b8e60405160200161135093929190614ec9565b604051602081830303815290604052611e07565b505050505050505050505050565b5f807f9016d09d72d40fdae2fd8ceac6b6234c7706214fd39c1cd1e609a0528c1993005b546001600160a01b031692915050565b6113ae611b7f565b6113ba848484846122c6565b5f80806113c986880188614f9b565b9250925092506113da83838361237a565b50505050505050565b6113eb611b7f565b336113f581611baf565b866113ff81611baf565b8861140981611bd8565b6114398a8a8a8a89898c60405160200161142593929190614ec9565b604051602081830303815290604052611c4b565b50505050505050505050565b61144d611d3a565b600101546001600160a01b0316331461147b5733604051637446939f60e11b8152600401610c92919061491f565b611485815f611d5e565b6040516001600160a01b038216907fc904e1b03de0c20d7fcf9dbd056daf1bd3815e93f251199de815fd0f0b96e166905f90a250565b5f7f7e0f0117f6f510f2a35b1c8185f303b28ba884334cd776f9d98e2abef24e2f005b546001600160a01b0316919050565b5f6114f661217c565b60010154905090565b61150761214a565b5f611510611d3a565b600101546001600160a01b0316905061152882612435565b816001600160a01b0316816001600160a01b03167fe144e84038182cefebda68c192c222085b2c12a85d135d3c938498c0165c01d360405160405180910390a35050565b611574611b7f565b3361157e81611baf565b8261158881611baf565b8461159281611bd8565b60405163fe575a8760e01b81526001600160a01b0387169063fe575a87906115be90889060040161491f565b6020604051808303815f875af11580156115da573d5f5f3e3d5ffd5b505050506040513d601f19601f820116820180604052508101906115fe91906150fb565b1561161e578460405163328cf86d60e21b8152600401610c92919061491f565b336113da87878388611ee6565b61163361214a565b61163c81611c00565b6001611646611d95565b6001600160a01b0383165f8181526020929092526040808320805460ff19169415159490941790935591517f895cdec14fd06461967f67fd12f3dc81c22b59fe80d1caf6f07b1902a8eaa35e9190a250565b5f610e53611d3a565b6116a9611b7f565b816116b381611bd8565b3380610fbd85828087612462565b6116c9611b7f565b826116d381611bd8565b8383336116e18383836110dc565b6116fe5760405163ea8e4eb560e01b815260040160405180910390fd5b3361170b88888389612462565b5050505050505050565b5f610d5f83838080601f0160208091040260200160405190810160405280939291908181526020018383808284375f9201919091525061254192505050565b5f61175d611c27565b6001600160a01b039384165f908152600191909101602090815260408083209490951682529290925250205490565b5f805f5160206154b35f395f51905f52611396565b5f610ce5611d3a565b6117b2611b7f565b336117bc81611baf565b816117c681611baf565b836117d081611bd8565b6117d984611c00565b336001600160a01b0385160361180257604051633be64e5b60e21b815260040160405180910390fd5b6001600160a01b038581165f8181525f5160206154335f395f51905f526020908152604080832033808552908352818420958a1684529490915290819020805460ff19166001179055517fe91cba149cb264c22b997b1a69e785ad1562a07f83318cd0c985ba1be6e660999061187990889061491f565b60405180910390a35050505050565b61189061214a565b61189981611c00565b5f6118a2611d95565b6001810180546001600160a01b038581166001600160a01b031983168117909355604051939450169182907f0bc21fe5c3ab742ff1d15b5c4477ffbacf1167e618228078fa625edebe7f331d905f90a3505050565b6118ff61214a565b5f5160206154b35f395f51905f5280546001600160a01b0319166001600160a01b0383169081178255611930611372565b6001600160a01b03167f38d16b8cac22d99fc7c124b9cd0de2d3fa1faef420bfe791d8c362d765e2270060405160405180910390a35050565b7ff0c57e16840df040f15088dc2f81fe391c3923bec73e23a9662efc9c229c6a00805460029190600160401b900460ff16806119b2575080546001600160401b03808416911610155b156119d05760405163f92ee8a960e01b815260040160405180910390fd5b805468ffffffffffffffffff19166001600160401b03831617600160401b1781556119fe8a8a8a8a8a61256e565b611a078561259b565b611a1184846125ac565b805460ff60401b191681556040516001600160401b03831681527fc7f505b2f371ae2175ee4913f4499e1f2633a7b5936321eed1cdaeb6115181d29060200160405180910390a150505050505050505050565b604080518082018252600d81526c11d85d195dd85e55d85b1b195d609a1b6020918201528151808301835260018152603160f81b9082015281517fb03948446334eb9b2196d5eb166f69b9d49403eb4a12f36de8d3f9f3cb8e15c3818301527f7ae6a640f653d0a0ae71fd94200a4797e3e069c3a0320aab3f939b6ae05e50eb818401527fc89efdaa54c0f20c7adf612882df0950f5a951637e0307cdcb4c672f298b8bc6606080830191909152835180830390910181526080909101909252815191012090565b5f610d6f61217c565b611b3d611b7f565b82611b4781611bd8565b838333611b558383836110dc565b611b725760405163ea8e4eb560e01b815260040160405180910390fd5b3361170b888883896120be565b5f5160206154735f395f51905f525460ff1615610dd15760405163d93c066560e01b815260040160405180910390fd5b611bb8816117a1565b1561104457806040516313f7662b60e11b8152600401610c92919061491f565b611be18161115a565b6110445780604051635f8b555b60e11b8152600401610c92919061491f565b6001600160a01b0381166110445760405163e6c4247b60e01b815260040160405180910390fd5b7fdd3dca88e892815d13ea80f1982e32e4fe3d0a89f03d14d3565bf56d58c31a0090565b825f03611c6b576040516370e1e43160e01b815260040160405180910390fd5b83611c778682866125c6565b604051639fd5a6cf60e01b81526001600160a01b03871690639fd5a6cf90611cab908490309089908990899060040161511a565b5f604051808303815f87803b158015611cc2575f5ffd5b505af1158015611cd4573d5f5f3e3d5ffd5b50611cee925050506001600160a01b03871682308761260d565b846001600160a01b0316856001600160a01b0316876001600160a01b03165f5160206154535f395f51905f5287604051611d2a91815260200190565b60405180910390a4505050505050565b7f77aee7014301166d8532df7f3d0b1c40d5b12f074d2d69255b43654e0419340090565b80611d67611d3a565b6001600160a01b03939093165f9081526020939093526040909220805460ff19169215159290921790915550565b7f931ec06eaaa2cd8a002032d3364041b052af597aa8c169fcc20c959a9f55710090565b611dc1612674565b5f5160206154735f395f51905f52805460ff191681557f5db9ee0a495bf2e6ff9c91a7834c1ba4fdd244a5e8aa4e537bd38aeae4b073aa335b6040516110c0919061491f565b845f03611e27576040516370e1e43160e01b815260040160405180910390fd5b85611e338882886125c6565b6040516388b7ab6360e01b81526001600160a01b038916906388b7ab6390611e6b90849030908b908b908b908b908b9060040161515e565b5f604051808303815f87803b158015611e82575f5ffd5b505af1158015611e94573d5f5f3e3d5ffd5b50505050806001600160a01b0316816001600160a01b0316896001600160a01b03165f5160206154535f395f51905f5289604051611ed491815260200190565b60405180910390a45050505050505050565b805f03611f06576040516370e1e43160e01b815260040160405180910390fd5b611f118484836125c6565b611f266001600160a01b03851683308461260d565b816001600160a01b0316836001600160a01b0316856001600160a01b03165f5160206154535f395f51905f5284604051611f6291815260200190565b60405180910390a450505050565b306001600160a01b037f0000000000000000000000000000000000000000000000000000000000000000161480611fe057507f00000000000000000000000000000000000000000000000000000000000000006001600160a01b0316611fd46126a3565b6001600160a01b031614155b15610dd15760405163703e46dd60e11b815260040160405180910390fd5b61104461214a565b816001600160a01b03166352d1902d6040518163ffffffff1660e01b8152600401602060405180830381865afa925050508015612060575060408051601f3d908101601f1916820190925261205d918101906151b2565b60015b61207f5781604051634c9c8ce360e01b8152600401610c92919061491f565b5f5160206154135f395f51905f5281146120af57604051632a87526960e21b815260048101829052602401610c92565b6120b983836126b7565b505050565b6120c8848461270c565b5f6120d38585612759565b90506120e085855f6127e3565b6120f46001600160a01b0386168383612819565b604080516001600160a01b038581168252602082018490528085169287821692918916917f5deff88b03b957761fa02c49b4ac05d260e7ccfb4a198b92f0491e17a0f7f95c910160405180910390a45050505050565b33612153611372565b6001600160a01b031614610dd1573360405163118cdaa760e01b8152600401610c92919061491f565b7f8f0d2169d60e1d6e8f336adc673aa9b36c7a3956bc915f85e5cfebff815daa0090565b306001600160a01b037f00000000000000000000000000000000000000000000000000000000000000001614610dd15760405163703e46dd60e11b815260040160405180910390fd5b7f7e0f0117f6f510f2a35b1c8185f303b28ba884334cd776f9d98e2abef24e2f0080546001600160a01b038381166001600160a01b0319831681179093556040519116919082907f95bb211a5a393c4d30c3edc9a745825fba4e6ad3e3bb949e6bf8ccdfe431a811905f90a35050565b5f5160206154b35f395f51905f5280546001600160a01b0319168155610f988261284a565b612286611b7f565b5f5160206154735f395f51905f52805460ff191660011781557f62e78cea01bee320cd4e420270b5ea74000d11b0c9f74754ebdbfc544b05a25833611dfa565b5f61235261231786866040516122dd9291906151c9565b60405180910390207f19457468657265756d205369676e6564204d6573736167653a0a3332000000005f908152601c91909152603c902090565b84848080601f0160208091040260200160405190810160405280939291908181526020018383808284375f920191909152506128ba92505050565b905061235d81610cdc565b610fbd5760405163d611d6a560e01b815260040160405180910390fd5b82515f0361239b57604051630483621960e41b815260040160405180910390fd5b825182511415806123ae57508251815114155b156123cc576040516336dc648360e21b815260040160405180910390fd5b5f5b8351811015610b875761242d8482815181106123ec576123ec614eb5565b602002602001015184838151811061240657612406614eb5565b602002602001015184848151811061242057612420614eb5565b60200260200101516128e2565b6001016123ce565b8061243e611d3a565b60010180546001600160a01b0319166001600160a01b039290921691909117905550565b805f0361248257604051636e120c9560e11b815260040160405180910390fd5b61248c8484610d66565b8111156124ac57604051636b18a64360e01b815260040160405180910390fd5b5f5f6124b986868561296f565b915091505f6124c66114ed565b6124d09043614ea2565b90506124dd8787836127e3565b6040805185815260208101859052908101839052606081018290526001600160a01b0380871691888216918a16907f435e11a5b75fcd07f0541bca0b78c909c9185ee2383811835e1727d289cf579f9060800160405180910390a450505050505050565b5f5f61254c83612a2b565b905061255781612b0d565b1561256557610d5f81612b2f565b610d5f81612cb7565b612576612d2c565b61257f85612d75565b61258884612d85565b6125928383612d96565b610fbd81612dda565b6125a3612d2c565b61104481612e0a565b6125b4612d2c565b6125bd8261162b565b610f9881611888565b806125cf611c27565b6001600160a01b038086165f9081526020928352604080822092871682529190925281208054909190612603908490614ea2565b9091555050505050565b6040516001600160a01b038481166024830152838116604483015260648201839052610b879186918216906323b872dd906084015b604051602081830303815290604052915060e01b6020820180516001600160e01b038381831617835250505050612e1b565b5f5160206154735f395f51905f525460ff16610dd157604051638dfc202b60e01b815260040160405180910390fd5b5f5f5160206154135f395f51905f526114de565b6126c082612e7e565b6040516001600160a01b038316907fbc7cd75a20ee27fd9adebab32041f755214dbc6bffa90cc0225b39da2e5c2d3b905f90a2805115612704576120b98282612ed8565b610f98612f4a565b4361271561217c565b6001600160a01b038085165f908152602092835260408082209286168252919092529020541115610f98576040516327b0bab160e11b815260040160405180910390fd5b5f5f612763611c27565b6001600160a01b038086165f90815260018301602090815260408083209388168352929052908120549192508190036127af57604051631b4e3b4f60e01b815260040160405180910390fd5b6001600160a01b038086165f9081526001909301602090815260408085209287168552919052822091909155905092915050565b806127ec61217c565b6001600160a01b039485165f90815260209182526040808220959096168152939052929091209190915550565b6040516001600160a01b038381166024830152604482018390526120b991859182169063a9059cbb90606401612642565b7f9016d09d72d40fdae2fd8ceac6b6234c7706214fd39c1cd1e609a0528c19930080546001600160a01b031981166001600160a01b03848116918217845560405192169182907f8be0079c531659141344cd1fd0a4f28419497f9722a3daafe3b4186f6b6457e0905f90a3505050565b5f5f5f5f6128c88686612f69565b9250925092506128d88282612fb2565b5090949350505050565b5f6128ec8461306a565b9050806040015163ffffffff165f0361291857604051630483621960e41b815260040160405180910390fd5b806040015163ffffffff16825114612943576040516336dc648360e21b815260040160405180910390fd5b5f61295561295086612541565b613101565b90505f61296282866128ba565b9050610e8f83828661312d565b5f5f5f61297a611c27565b6001600160a01b038088165f90815260208381526040808320938a16835292905220549091506129ab9085906151d8565b6001600160a01b038088165f9081526001840160209081526040808320938a16835292905220549093506129e0908590614ea2565b6001600160a01b039687165f8181526020848152604080832099909a168083529881528982208790559181526001909301815287832096835295909552949094208390559391925050565b5f600460ff1682511015612a5e578151604051631743c8a560e31b81526004808201526024810191909152604401610c92565b5f612a6983826132f3565b90505f612a7e62ffffff19831682600461330d565b9050637c7a821f60e11b6001600160e01b0319821601612abc57612ab563070afbc25b60d81b6301000000600160d81b0384161790565b9250612b06565b631666dc6560e01b6001600160e01b0319821601612ae157612ab563e999239b612aa1565b60405163319b52eb60e11b81526001600160e01b031982166004820152602401610c92565b5050919050565b5f63e999239b60e01b612b2862ffffff19841683600461330d565b1492915050565b5f5f612b3a83613463565b905060085f63ffffffff83166001600160401b03811115612b5d57612b5d614a29565b604051908082528060200260200182016040528015612b86578160200160208202803683370190505b5090505f5b8363ffffffff168163ffffffff161015612c33575f612bbd612bae604486614ea2565b62ffffff198916906004613472565b90505f612bcb8260486151eb565b63ffffffff1690505f612bea62ffffff198a16878463070afbc26134a1565b9050612bf581612cb7565b858563ffffffff1681518110612c0d57612c0d614eb5565b6020908102919091010152612c228287614ea2565b95505060019092019150612b8b9050565b506040517fe30760cf7d79e3521ad1553a73a6c6f8d33226ea613eaa29ceda6de148fbd07a90612c67908390602001615207565b60405160208183030381529060405280519060200120604051602001612c97929190918252602082015260400190565b604051602081830303815290604052805190602001209350505050919050565b5f5f612cc28361351a565b90505f612cce8461352e565b90505f612cda85613542565b90505f612ce6826135c9565b604080517f8b99d17a83a2dd1add9fc2a450e22732c7e8564aa110ab99c20485a7a10ba37c81526020810196909652850193909352505060608201526080902092915050565b7ff0c57e16840df040f15088dc2f81fe391c3923bec73e23a9662efc9c229c6a0054600160401b900460ff16610dd157604051631afcd79f60e31b815260040160405180910390fd5b612d7d612d2c565b61103b61368f565b612d8d612d2c565b611044816114ff565b612d9e612d2c565b5f5b818110156120b957612dd2838383818110612dbd57612dbd614eb5565b90506020020160208101906105929190614882565b600101612da0565b612de2612d2c565b5f5160206154935f395f51905f52805463ffffffff191663ffffffff92909216919091179055565b612e12612d2c565b61104481610fc4565b5f5f60205f8451602086015f885af180612e3a576040513d5f823e3d81fd5b50505f513d91508115612e51578060011415612e5e565b6001600160a01b0384163b155b15610b875783604051635274afe760e01b8152600401610c92919061491f565b806001600160a01b03163b5f03612eaa5780604051634c9c8ce360e01b8152600401610c92919061491f565b5f5160206154135f395f51905f5280546001600160a01b0319166001600160a01b0392909216919091179055565b60605f5f846001600160a01b031684604051612ef4919061523c565b5f60405180830381855af49150503d805f8114612f2c576040519150601f19603f3d011682016040523d82523d5f602084013e612f31565b606091505b5091509150612f4185838361369f565b95945050505050565b3415610dd15760405163b398979f60e01b815260040160405180910390fd5b5f5f5f8351604103612fa0576020840151604085015160608601515f1a612f92888285856136f2565b955095509550505050612fab565b505081515f91506002905b9250925092565b5f826003811115612fc557612fc5614e7a565b03612fce575050565b6001826003811115612fe257612fe2614e7a565b036130005760405163f645eedf60e01b815260040160405180910390fd5b600282600381111561301457613014614e7a565b036130355760405163fce698f760e01b815260048101829052602401610c92565b600382600381111561304957613049614e7a565b03610f98576040516335e2f38360e21b815260048101829052602401610c92565b6040805160a0810182525f8082526020820181905291810182905260608101829052608081018290529061309d836137b0565b62ffffff19811683525f606084015290506130b781612b0d565b6130d557505f60208201819052600160408301526080820152919050565b5f6130df82613463565b6008602085015263ffffffff1660408401819052156080840152509092915050565b5f610a6e61310d611a64565b8360405161190160f01b8152600281019290925260228201526042902090565b5f808080805b8760800151613257578760600151925061314c886137e1565b93505f61315e62ffffff198616613542565b90505f61316c828a876138c4565b90508061317a575050613133565b6131a486898763ffffffff168151811061319657613196614eb5565b602002602001015187613a99565b5f6131ba6131b762ffffff198516613b2a565b90565b90506001600160a01b0388166131d257809750613204565b876001600160a01b0316816001600160a01b031614613204576040516307897d0f60e31b815260040160405180910390fd5b5f5f613230858d8d8b63ffffffff168151811061322357613223614eb5565b6020026020010151613b3e565b909250905061323f8287614ea2565b955061324b8188614ea2565b96505050505050613133565b805f03613277576040516316c45d7f60e01b815260040160405180910390fd5b613293613282610e4a565b6001600160a01b0387169084612819565b6001600160a01b0385166342966c686132ac84846151d8565b6040518263ffffffff1660e01b81526004016132ca91815260200190565b5f604051808303815f87803b1580156132e1575f5ffd5b505af1158015611364573d5f5f3e3d5ffd5b81515f9060208401612f4164ffffffffff85168284613d05565b5f8160ff165f0361331f57505f610d5f565b6133328460181c6001600160601b031690565b6001600160601b031661334860ff841685614ea2565b11156133ac576133936133648560781c6001600160601b031690565b6001600160601b03166133808660181c6001600160601b031690565b6001600160601b0316858560ff16613d49565b60405162461bcd60e51b8152600401610c929190614d4e565b60208260ff1611156134265760405162461bcd60e51b815260206004820152603a60248201527f54797065644d656d566965772f696e646578202d20417474656d70746564207460448201527f6f20696e646578206d6f7265207468616e2033322062797465730000000000006064820152608401610c92565b600882025f61343e8660781c6001600160601b031690565b6001600160601b031690505f600160ff1b5f1984011d91909501511695945050505050565b5f610a6e62ffffff1983166004805b5f61347e826020615252565b61348990600861526b565b60ff1661349785858561330d565b901c949350505050565b5f5f6134b68660781c6001600160601b031690565b6001600160601b031690506134ca86613db3565b846134d58784614ea2565b6134df9190614ea2565b11156134f25762ffffff19915050610be1565b6134fc8582614ea2565b90506135108364ffffffffff168286613d05565b9695505050505050565b5f610a6e62ffffff19831660046020613472565b5f610a6e62ffffff19831660246020613472565b5f5f61354d83613deb565b90505f61356d62ffffff198516604863ffffffff851663ca85def76134a1565b90505f61358262ffffff19831682600461330d565b90506001600160e01b0319811663ca85def760e01b146135c157604051633c2c863160e11b81526001600160e01b031982166004820152602401610c92565b509392505050565b5f5f6135d483613463565b90505f6135e084613dff565b90505f6135ec85613e13565b90505f6136066135fb87613e27565b62ffffff1916613ec2565b90505f613621607888901c6001600160601b0316601061528e565b90505f6136306020600a6152ad565b90506040517f44409c7ba8872720f5fc290d2788c2d70a3905b7ca1cdb2ffa152791a69e089b81528660208201528560408201528460608201528160808201838560045afa506101c081019390935250506101e0902095945050505050565b613697612d2c565b610dd1613f09565b6060826136b4576136af82613f29565b610d5f565b81511580156136cb57506001600160a01b0384163b155b156136eb5783604051639996b31560e01b8152600401610c92919061491f565b5080610d5f565b5f80806fa2a8918ca85bafe22016d0b997e4df60600160ff1b0384111561372157505f915060039050826137a6565b604080515f808252602082018084528a905260ff891692820192909252606081018790526080810186905260019060a0016020604051602081039080840390855afa158015613772573d5f5f3e3d5ffd5b5050604051601f1901519150506001600160a01b03811661379d57505f9250600191508290506137a6565b92505f91508190505b9450945094915050565b5f6137ba82612a2b565b90506137c581612b0d565b156137d8576137d381613f52565b919050565b6137d381614196565b5f81608001511561380557604051631365229760e31b815260040160405180910390fd5b5f61382e604461ffff16846020015161381e9190614ea2565b845162ffffff1916906004613472565b90505f61383c8260486151eb565b6020850151855163ffffffff9290921692506138649162ffffff1916908363070afbc26134a1565b925080846020018181516138789190614ea2565b9052506060840180519061388b826152cf565b63ffffffff1663ffffffff1681525050836040015163ffffffff16846060015163ffffffff1610612b0657600160808501525050919050565b5f806138d562ffffff1986166141b4565b9050805f036138fe57604051620ad61f60eb1b815263ffffffff84166004820152602401610c92565b5f61390e62ffffff198716613dff565b5f5160206154935f395f51905f525490915063ffffffff808316911614613939575f92505050610d5f565b5f61394c6131b762ffffff1989166141c9565b90506001600160a01b038116301461399457604051635b06a28360e01b815263ffffffff861660048201526001600160a01b0382166024820152306044820152606401610c92565b5f6139a76131b762ffffff198a16613b2a565b90506139b28161115a565b6139e65760405163600a901b60e01b815263ffffffff871660048201526001600160a01b0382166024820152604401610c92565b5f6139f96131b762ffffff198b166141dd565b9050876001600160a01b0316816001600160a01b031614613a4c5760405163178bd68160e31b815263ffffffff881660048201526001600160a01b03808316602483015289166044820152606401610c92565b5f613a5f6131b762ffffff198c166141f1565b9050613a6c83828b614205565b613a895760405163ea8e4eb560e01b815260040160405180910390fd5b5060019998505050505050505050565b5f613aa962ffffff19851661351a565b905043811015613ae15760405163090353d560e11b815263ffffffff8316600482015260248101829052436044820152606401610c92565b5f613af162ffffff19861661352e565b905083811015610fbd5760405163195785c960e11b815263ffffffff841660048201526024810182905260448101859052606401610c92565b5f610a6e62ffffff1983166050602061330d565b5f80613b57613b5262ffffff198716614285565b614295565b5f613b6a6131b762ffffff198816613b2a565b90505f613b7f6131b762ffffff1989166141f1565b90505f613b9162ffffff1989166141b4565b90505f80613ba98585613ba48b87614ea2565b6142c8565b9092509050613bb88183614ea2565b9650613bc48884614ea2565b871015613c23576001600160a01b038085169086167f5fab62745de032ad35a05146c51710fd80871be06cb193722c40f011df352f0c613c048b87614ea2565b6040805191825260208201879052810185905260600160405180910390a35b828711613c32575f9550613c3f565b613c3c83886151d8565b95505b613c4e62ffffff198b16614285565b846001600160a01b0316866001600160a01b03167f12ee2719e7e2dec9f2a0041286b66669153dff0d36719f692b8bbaa4dfe0aa87613c928e62ffffff1916613e13565b613ca18f62ffffff191661442a565b8e613cac8d8f6151d8565b6040805163ffffffff95909516855260208501939093526001600160a01b0391909116838301526060830152608082018c905260a0820188905260c08201879052519081900360e00190a450505050505b935093915050565b5f80613d118385614ea2565b9050604051811115613d2057505f5b805f03613d345762ffffff19915050610d5f565b5050606092831b9190911790911b1760181b90565b60605f613d558661443e565b9150505f613d628661443e565b9150505f613d6f8661443e565b9150505f613d7c8661443e565b91505083838383604051602001613d9694939291906152f3565b604051602081830303815290604052945050505050949350505050565b5f613dc78260181c6001600160601b031690565b613dda8360781c6001600160601b031690565b016001600160601b03169050919050565b5f610a6e62ffffff19831660446004613472565b5f610a6e62ffffff19831660086004613472565b5f610a6e62ffffff198316600c6004613472565b5f5f613e32836144e6565b90505f63ffffffff821615613e6657613e5f62ffffff19851661015463ffffffff808616905f906134a116565b9050613e7d565b613e7a62ffffff1985166101545f806134a1565b90505b630100000062ffffff19821601610d5f57604051631cbe4a2360e11b815263ffffffff83166004820152601885901c6001600160601b03166024820152604401610c92565b5f5f613ed78360781c6001600160601b031690565b6001600160601b031690505f613ef68460181c6001600160601b031690565b6001600160601b03169091209392505050565b613f11612d2c565b5f5160206154735f395f51905f52805460ff19169055565b805115613f395780518082602001fd5b60405163d6bda27560e01b815260040160405180910390fd5b6008601882901c6001600160601b03161015613f9757604051637c087ac560e11b815260086004820152601882901c6001600160601b03166024820152604401610c92565b5f613fa182613463565b905060085f5b8263ffffffff168163ffffffff161015614152575f613fc7604884614ea2565b9050601885901c6001600160601b031681111561401957604051631f7a270f60e31b815263ffffffff83166004820152601886901c6001600160601b0316602482015260448101829052606401610c92565b5f614037614028604486614ea2565b62ffffff198816906004613472565b90505f6140458260486151eb565b63ffffffff1690505f6140588287614ea2565b9050601888901c6001600160601b03168111156140aa57604051631014f32560e31b815263ffffffff86166004820152601889901c6001600160601b0316602482015260448101829052606401610c92565b5f6140c76140b88289614ea2565b62ffffff198b1690600461330d565b90506001600160e01b031981166303857de160e11b14614112576040516312b22cbd60e01b815263ffffffff871660048201526001600160e01b031982166024820152604401610c92565b5f61412962ffffff198b16898663070afbc26134a1565b905061413481614196565b61413e8489614ea2565b97505060019095019450613fa79350505050565b50601883901c6001600160601b031681146120b957604051633c99ab2560e21b815260048101829052601884901c6001600160601b03166024820152604401610c92565b61419f816144fb565b5f6141a982613542565b9050610f98816145a3565b5f610a6e62ffffff1983166101106020613472565b5f610a6e62ffffff1983166010602061330d565b5f610a6e62ffffff19831660d0602061330d565b5f610a6e62ffffff1983166090602061330d565b5f826001600160a01b0316826001600160a01b03160361422757506001610d5f565b6001600160a01b038481165f9081525f5160206154335f395f51905f52602090815260408083208785168452825280832093861683529290529081205460ff169081600281111561427a5761427a614e7a565b141595945050505050565b5f610a6e62ffffff198316613ec2565b61429e81614689565b611044815f9081525f5160206153f35f395f51905f5260205260409020805460ff19166001179055565b5f5f5f6142d3611c27565b6001600160a01b038088165f90815260208381526040808320938a168352929052205490915084808210614348576001600160a01b038089165f90815260208581526040808320938b16835292905290812080548392906143359084906151d8565b909155509094505f9350613cfd92505050565b6001600160a01b038089165f90815260208581526040808320938b1683529290529081205561437782826151d8565b6001600160a01b03808a165f9081526001860160209081526040808320938c16835292905220549091508181106143f3576001600160a01b03808a165f9081526001860160209081526040808320938c16835292905290812080548492906143e09084906151d8565b90915550929550909350613cfd92505050565b6001600160a01b039889165f9081526001949094016020908152604080862099909a16855297909752509581205550929391925050565b5f610a6e62ffffff19831660b0602061330d565b5f80601f5b600f8160ff161115614490575f61445b82600861526b565b60ff1685901c905061446c816146c7565b61ffff16841793508160ff1660101461448757601084901b93505b505f1901614443565b50600f5b60ff8160ff1610156144e0575f6144ac82600861526b565b60ff1685901c90506144bd816146c7565b61ffff16831792508160ff165f146144d757601083901b92505b505f1901614494565b50915091565b5f610a6e62ffffff1983166101506004613472565b6048601882901c6001600160601b031610156145405760405163161e118160e31b815260486004820152601882901c6001600160601b03166024820152604401610c92565b5f61454a82613deb565b90505f6145588260486151eb565b63ffffffff169050601883901c6001600160601b031681146120b9576040516316279d8b60e21b815260048101829052601884901c6001600160601b03166024820152604401610c92565b610154601882901c6001600160601b031610156145ea57604051631cd8e33f60e11b81526101546004820152601882901c6001600160601b03166024820152604401610c92565b5f6145f482613463565b905063ffffffff811660011461462557604051633665681760e11b815263ffffffff82166004820152602401610c92565b5f61462f836144e6565b90505f61463e826101546151eb565b63ffffffff169050601884901c6001600160601b03168114610b8757604051633df4634560e01b815260048101829052601885901c6001600160601b03166024820152604401610c92565b5f8181525f5160206153f35f395f51905f52602052604090205460ff161561104457604051630b06514960e11b815260048101829052602401610c92565b5f6146d860048360ff16901c6146f8565b60ff1661ffff919091161760081b6146ef826146f8565b60ff1617919050565b6040805180820190915260108082526f181899199a1a9b1b9c1cb0b131b232b360811b60208301525f91600f8416918290811061473757614737614eb5565b016020015160f81c9392505050565b80356001600160a01b03811681146137d3575f5ffd5b5f5f6040838503121561476d575f5ffd5b61477683614746565b946020939093013593505050565b5f5f60408385031215614795575f5ffd5b61479e83614746565b91506147ac60208401614746565b90509250929050565b5f602082840312156147c5575f5ffd5b5035919050565b5f5f83601f8401126147dc575f5ffd5b5081356001600160401b038111156147f2575f5ffd5b602083019150836020828501011115614809575f5ffd5b9250929050565b5f5f5f5f5f5f60a08789031215614825575f5ffd5b61482e87614746565b955061483c60208801614746565b9450604087013593506060870135925060808701356001600160401b03811115614864575f5ffd5b61487089828a016147cc565b979a9699509497509295939492505050565b5f60208284031215614892575f5ffd5b610d5f82614746565b5f5f5f5f5f5f5f5f60e0898b0312156148b2575f5ffd5b6148bb89614746565b97506148c960208a01614746565b965060408901359550606089013594506080890135935060a0890135925060c08901356001600160401b038111156148ff575f5ffd5b61490b8b828c016147cc565b999c989b5096995094979396929594505050565b6001600160a01b0391909116815260200190565b5f5f83601f840112614943575f5ffd5b5081356001600160401b03811115614959575f5ffd5b6020830191508360208260051b8501011115614809575f5ffd5b5f5f5f5f60408587031215614986575f5ffd5b84356001600160401b0381111561499b575f5ffd5b6149a787828801614933565b90955093505060208501356001600160401b038111156149c5575f5ffd5b6149d187828801614933565b95989497509550505050565b5f8151808452602084019350602083015f5b82811015614a0d5781518652602095860195909101906001016149ef565b5093949350505050565b602081525f610d5f60208301846149dd565b634e487b7160e01b5f52604160045260245ffd5b604051601f8201601f191681016001600160401b0381118282101715614a6557614a65614a29565b604052919050565b5f82601f830112614a7c575f5ffd5b81356001600160401b03811115614a9557614a95614a29565b614aa8601f8201601f1916602001614a3d565b818152846020838601011115614abc575f5ffd5b816020850160208301375f918101602001919091529392505050565b5f5f60408385031215614ae9575f5ffd5b614af283614746565b915060208301356001600160401b03811115614b0c575f5ffd5b614b1885828601614a6d565b9150509250929050565b5f5f5f60608486031215614b34575f5ffd5b614b3d84614746565b9250614b4b60208501614746565b9150614b5960408501614746565b90509250925092565b5f81518084528060208401602086015e5f602082860101526020601f19601f83011685010191505092915050565b60ff60f81b8816815260e060208201525f614bae60e0830189614b62565b8281036040840152614bc08189614b62565b606084018890526001600160a01b038716608085015260a0840186905283810360c08501529050614bf181856149dd565b9a9950505050505050505050565b803560ff811681146137d3575f5ffd5b5f5f5f5f5f5f5f5f5f6101208a8c031215614c28575f5ffd5b614c318a614746565b9850614c3f60208b01614746565b975060408a0135965060608a0135955060808a0135945060a08a01359350614c6960c08b01614bff565b989b979a50959894979396929550929360e081013593506101000135919050565b5f5f5f5f60408587031215614c9d575f5ffd5b84356001600160401b03811115614cb2575f5ffd5b614cbe878288016147cc565b90955093505060208501356001600160401b03811115614cdc575f5ffd5b6149d1878288016147cc565b5f5f5f5f5f5f5f60e0888a031215614cfe575f5ffd5b614d0788614746565b9650614d1560208901614746565b95506040880135945060608801359350614d3160808901614bff565b9699959850939692959460a0840135945060c09093013592915050565b602081525f610d5f6020830184614b62565b5f5f5f60608486031215614d72575f5ffd5b614d7b84614746565b9250614d8960208501614746565b929592945050506040919091013590565b5f5f60208385031215614dab575f5ffd5b82356001600160401b03811115614dc0575f5ffd5b614dcc858286016147cc565b90969095509350505050565b5f5f5f5f5f5f5f5f60e0898b031215614def575f5ffd5b614df889614746565b9750614e0660208a01614746565b965060408901356001600160401b03811115614e20575f5ffd5b614e2c8b828c01614933565b909750955050606089013563ffffffff81168114614e48575f5ffd5b935060808901359250614e5d60a08a01614746565b9150614e6b60c08a01614746565b90509295985092959890939650565b634e487b7160e01b5f52602160045260245ffd5b634e487b7160e01b5f52601160045260245ffd5b80820180821115610a6e57610a6e614e8e565b634e487b7160e01b5f52603260045260245ffd5b928352602083019190915260f81b6001600160f81b031916604082015260410190565b5f6001600160401b03821115614f0457614f04614a29565b5060051b60200190565b5f82601f830112614f1d575f5ffd5b8135614f30614f2b82614eec565b614a3d565b8082825260208201915060208360051b860101925085831115614f51575f5ffd5b602085015b83811015614f915780356001600160401b03811115614f73575f5ffd5b614f82886020838a0101614a6d565b84525060209283019201614f56565b5095945050505050565b5f5f5f60608486031215614fad575f5ffd5b83356001600160401b03811115614fc2575f5ffd5b614fce86828701614f0e565b93505060208401356001600160401b03811115614fe9575f5ffd5b614ff586828701614f0e565b92505060408401356001600160401b03811115615010575f5ffd5b8401601f81018613615020575f5ffd5b803561502e614f2b82614eec565b8082825260208201915060208360051b85010192508883111561504f575f5ffd5b602084015b838110156150ec5780356001600160401b03811115615071575f5ffd5b8501603f81018b13615081575f5ffd5b6020810135615092614f2b82614eec565b808282526020820191506020808460051b8601010192508d8311156150b5575f5ffd5b6040840193505b828410156150d75783358252602093840193909101906150bc565b86525050602093840193919091019050615054565b50809450505050509250925092565b5f6020828403121561510b575f5ffd5b81518015158114610d5f575f5ffd5b6001600160a01b03868116825285166020820152604081018490526060810183905260a0608082018190525f9061515390830184614b62565b979650505050505050565b6001600160a01b0388811682528716602082015260408101869052606081018590526080810184905260a0810183905260e060c082018190525f906151a590830184614b62565b9998505050505050505050565b5f602082840312156151c2575f5ffd5b5051919050565b818382375f9101908152919050565b81810381811115610a6e57610a6e614e8e565b63ffffffff8181168382160190811115610a6e57610a6e614e8e565b81515f90829060208501835b82811015615231578151845260209384019390910190600101615213565b509195945050505050565b5f82518060208501845e5f920191825250919050565b60ff8281168282160390811115610a6e57610a6e614e8e565b60ff818116838216029081169081811461528757615287614e8e565b5092915050565b6001600160601b038181168382160190811115610a6e57610a6e614e8e565b6001600160601b03818116838216029081169081811461528757615287614e8e565b5f63ffffffff821663ffffffff81036152ea576152ea614e8e565b60010192915050565b7f54797065644d656d566965772f696e646578202d204f76657272616e20746865815274040ecd2caee5c40a6d8d2c6ca40d2e640c2e84060f605b1b602082015260d085811b6001600160d01b031990811660358401526e040eed2e8d040d8cadccee8d04060f608b1b603b84015285821b8116604a8401527f2e20417474656d7074656420746f20696e646578206174206f666673657420306050840152600f60fb1b60708401529084901b1660718201525f6153c9607783016e040eed2e8d040d8cadccee8d04060f608b1b8152600f0190565b6153df818560d01b6001600160d01b0319169052565b601760f91b60068201526007810161515356fe20b6f2ac2ef95221991caf3be38efadb0bb1d3093c65d3a8c962def8d652ee00360894a13ba1a3210667c828492db98dca3e2076cc3735a920a3ca505d382bbcbcbbce9c37b75586602042f686570dadc3d32ddb14a687daffcfefad2ac57b004174a9435a04d04d274c76779cad136a41fde6937c56241c09ab9d3c7064a1a9cd5ed15c6e187e77e9aee88184c21f4f2182ab5827cb3b7e07fbedcd63f03300fe4c86d7e89d95779292c8077b542f271e850fa895928d0b7b19a0ae50865c00237e158222e3e6968b72b9db0d8043aacf074ad9f650f0d1606b4d82ee432c00a264697066735822122097d4a00e3eb6ee7e7ca6f68fafb63d4307c7c55ffd423d78914b51f0460cd5ea64736f6c634300081d0033","linkReferences":{}},"methodIdentifiers":{"EIP712_DOMAIN_TYPE_HASH()":"b727b579","UPGRADE_INTERFACE_VERSION()":"ad3cb1cc","acceptOwnership()":"79ba5097","addBurnSigner(address)":"b3f69f8d","addDelegate(address,address)":"e909ebfa","addSupportedToken(address)":"6d69fcaf","availableBalance(address,address)":"3ccb64ae","balanceOf(address,uint256)":"00fdd58e","balanceOfBatch(address[],uint256[])":"4e1273f4","denylist(address)":"3371bfff","denylister()":"bcc76c60","deposit(address,uint256)":"47e7ef24","depositFor(address,address,uint256)":"b3db428b","depositWithAuthorization(address,address,uint256,uint256,uint256,bytes32,bytes)":"438d4835","depositWithAuthorization(address,address,uint256,uint256,uint256,bytes32,uint8,bytes32,bytes32)":"8a94d4fc","depositWithPermit(address,address,uint256,uint256,bytes)":"26a3fb30","depositWithPermit(address,address,uint256,uint256,uint8,bytes32,bytes32)":"8ef59739","domain()":"c2fb26a6","domainSeparator()":"f698da25","eip712Domain()":"84b0196e","feeRecipient()":"46904840","gatewayBurn(bytes,bytes)":"8ec3dbb9","getTypedDataHash(bytes)":"dc4aa513","initialize(address,address,address[],uint32,uint256,address,address)":"f49ebd82","initiateWithdrawal(address,address,uint256)":"d6d344a1","initiateWithdrawal(address,uint256)":"c8393ba9","isAuthorizedForBalance(address,address,address)":"74392bf3","isBurnSigner(address)":"3660dbd0","isDenylisted(address)":"e877a526","isTokenSupported(address)":"75151b63","isTransferSpecHashUsed(bytes32)":"17580158","owner()":"8da5cb5b","pause()":"8456cb59","paused()":"5c975abb","pauser()":"9fd0506d","pendingOwner()":"e30c3978","proxiableUUID()":"52d1902d","removeBurnSigner(address)":"7e2acfa3","removeDelegate(address,address)":"020d308d","renounceOwnership()":"715018a6","totalBalance(address,address)":"1453b987","transferOwnership(address)":"f2fde38b","unDenylist(address)":"9cab0c1c","unpause()":"3f4ba83a","updateDenylister(address)":"a946de04","updateFeeRecipient(address)":"f160d369","updatePauser(address)":"554bab3c","updateWithdrawalDelay(uint256)":"52cd67e9","upgradeToAndCall(address,bytes)":"4f1ef286","withdraw(address)":"51cff8d9","withdraw(address,address,address)":"ff7885e8","withdrawableBalance(address,address)":"3bbe1ecd","withdrawalBlock(address,address)":"fefeec13","withdrawalDelay()":"a7ab6961","withdrawingBalance(address,address)":"df0c6690"},"id":29}