{"abi":[{"type":"constructor","inputs":[],"stateMutability":"nonpayable"},{"type":"function","name":"EIP712_DOMAIN_TYPE_HASH","inputs":[],"outputs":[{"name":"","type":"bytes32","internalType":"bytes32"}],"stateMutability":"view"},{"type":"function","name":"UPGRADE_INTERFACE_VERSION","inputs":[],"outputs":[{"name":"","type":"string","internalType":"string"}],"stateMutability":"view"},{"type":"function","name":"acceptOwnership","inputs":[],"outputs":[],"stateMutability":"nonpayable"},{"type":"function","name":"addDelegate","inputs":[{"name":"token","type":"address","internalType":"address"},{"name":"delegate","type":"address","internalType":"address"}],"outputs":[],"stateMutability":"nonpayable"},{"type":"function","name":"addSupportedToken","inputs":[{"name":"token","type":"address","internalType":"address"}],"outputs":[],"stateMutability":"nonpayable"},{"type":"function","name":"availableBalance","inputs":[{"name":"token","type":"address","internalType":"address"},{"name":"depositor","type":"address","internalType":"address"}],"outputs":[{"name":"","type":"uint256","internalType":"uint256"}],"stateMutability":"view"},{"type":"function","name":"balanceOf","inputs":[{"name":"depositor","type":"address","internalType":"address"},{"name":"id","type":"uint256","internalType":"uint256"}],"outputs":[{"name":"","type":"uint256","internalType":"uint256"}],"stateMutability":"view"},{"type":"function","name":"balanceOfBatch","inputs":[{"name":"depositors","type":"address[]","internalType":"address[]"},{"name":"ids","type":"uint256[]","internalType":"uint256[]"}],"outputs":[{"name":"","type":"uint256[]","internalType":"uint256[]"}],"stateMutability":"view"},{"type":"function","name":"burnSigner","inputs":[],"outputs":[{"name":"","type":"address","internalType":"address"}],"stateMutability":"view"},{"type":"function","name":"denylist","inputs":[{"name":"addr","type":"address","internalType":"address"}],"outputs":[],"stateMutability":"nonpayable"},{"type":"function","name":"denylister","inputs":[],"outputs":[{"name":"","type":"address","internalType":"address"}],"stateMutability":"view"},{"type":"function","name":"deposit","inputs":[{"name":"token","type":"address","internalType":"address"},{"name":"value","type":"uint256","internalType":"uint256"}],"outputs":[],"stateMutability":"nonpayable"},{"type":"function","name":"depositWithAuthorization","inputs":[{"name":"token","type":"address","internalType":"address"},{"name":"from","type":"address","internalType":"address"},{"name":"value","type":"uint256","internalType":"uint256"},{"name":"validAfter","type":"uint256","internalType":"uint256"},{"name":"validBefore","type":"uint256","internalType":"uint256"},{"name":"nonce","type":"bytes32","internalType":"bytes32"},{"name":"signature","type":"bytes","internalType":"bytes"}],"outputs":[],"stateMutability":"nonpayable"},{"type":"function","name":"depositWithAuthorization","inputs":[{"name":"token","type":"address","internalType":"address"},{"name":"from","type":"address","internalType":"address"},{"name":"value","type":"uint256","internalType":"uint256"},{"name":"validAfter","type":"uint256","internalType":"uint256"},{"name":"validBefore","type":"uint256","internalType":"uint256"},{"name":"nonce","type":"bytes32","internalType":"bytes32"},{"name":"v","type":"uint8","internalType":"uint8"},{"name":"r","type":"bytes32","internalType":"bytes32"},{"name":"s","type":"bytes32","internalType":"bytes32"}],"outputs":[],"stateMutability":"nonpayable"},{"type":"function","name":"depositWithPermit","inputs":[{"name":"token","type":"address","internalType":"address"},{"name":"owner","type":"address","internalType":"address"},{"name":"value","type":"uint256","internalType":"uint256"},{"name":"deadline","type":"uint256","internalType":"uint256"},{"name":"signature","type":"bytes","internalType":"bytes"}],"outputs":[],"stateMutability":"nonpayable"},{"type":"function","name":"depositWithPermit","inputs":[{"name":"token","type":"address","internalType":"address"},{"name":"owner","type":"address","internalType":"address"},{"name":"value","type":"uint256","internalType":"uint256"},{"name":"deadline","type":"uint256","internalType":"uint256"},{"name":"v","type":"uint8","internalType":"uint8"},{"name":"r","type":"bytes32","internalType":"bytes32"},{"name":"s","type":"bytes32","internalType":"bytes32"}],"outputs":[],"stateMutability":"nonpayable"},{"type":"function","name":"domain","inputs":[],"outputs":[{"name":"","type":"uint32","internalType":"uint32"}],"stateMutability":"view"},{"type":"function","name":"domainSeparator","inputs":[],"outputs":[{"name":"","type":"bytes32","internalType":"bytes32"}],"stateMutability":"pure"},{"type":"function","name":"eip712Domain","inputs":[],"outputs":[{"name":"fields","type":"bytes1","internalType":"bytes1"},{"name":"name","type":"string","internalType":"string"},{"name":"version","type":"string","internalType":"string"},{"name":"chainId","type":"uint256","internalType":"uint256"},{"name":"verifyingContract","type":"address","internalType":"address"},{"name":"salt","type":"bytes32","internalType":"bytes32"},{"name":"extensions","type":"uint256[]","internalType":"uint256[]"}],"stateMutability":"view"},{"type":"function","name":"encodeBurnIntent","inputs":[{"name":"intent","type":"tuple","internalType":"struct BurnIntent","components":[{"name":"maxBlockHeight","type":"uint256","internalType":"uint256"},{"name":"maxFee","type":"uint256","internalType":"uint256"},{"name":"spec","type":"tuple","internalType":"struct TransferSpec","components":[{"name":"version","type":"uint32","internalType":"uint32"},{"name":"sourceDomain","type":"uint32","internalType":"uint32"},{"name":"destinationDomain","type":"uint32","internalType":"uint32"},{"name":"sourceContract","type":"bytes32","internalType":"bytes32"},{"name":"destinationContract","type":"bytes32","internalType":"bytes32"},{"name":"sourceToken","type":"bytes32","internalType":"bytes32"},{"name":"destinationToken","type":"bytes32","internalType":"bytes32"},{"name":"sourceDepositor","type":"bytes32","internalType":"bytes32"},{"name":"destinationRecipient","type":"bytes32","internalType":"bytes32"},{"name":"sourceSigner","type":"bytes32","internalType":"bytes32"},{"name":"destinationCaller","type":"bytes32","internalType":"bytes32"},{"name":"value","type":"uint256","internalType":"uint256"},{"name":"salt","type":"bytes32","internalType":"bytes32"},{"name":"hookData","type":"bytes","internalType":"bytes"}]}]}],"outputs":[{"name":"","type":"bytes","internalType":"bytes"}],"stateMutability":"pure"},{"type":"function","name":"encodeBurnIntents","inputs":[{"name":"intents","type":"tuple[]","internalType":"struct BurnIntent[]","components":[{"name":"maxBlockHeight","type":"uint256","internalType":"uint256"},{"name":"maxFee","type":"uint256","internalType":"uint256"},{"name":"spec","type":"tuple","internalType":"struct TransferSpec","components":[{"name":"version","type":"uint32","internalType":"uint32"},{"name":"sourceDomain","type":"uint32","internalType":"uint32"},{"name":"destinationDomain","type":"uint32","internalType":"uint32"},{"name":"sourceContract","type":"bytes32","internalType":"bytes32"},{"name":"destinationContract","type":"bytes32","internalType":"bytes32"},{"name":"sourceToken","type":"bytes32","internalType":"bytes32"},{"name":"destinationToken","type":"bytes32","internalType":"bytes32"},{"name":"sourceDepositor","type":"bytes32","internalType":"bytes32"},{"name":"destinationRecipient","type":"bytes32","internalType":"bytes32"},{"name":"sourceSigner","type":"bytes32","internalType":"bytes32"},{"name":"destinationCaller","type":"bytes32","internalType":"bytes32"},{"name":"value","type":"uint256","internalType":"uint256"},{"name":"salt","type":"bytes32","internalType":"bytes32"},{"name":"hookData","type":"bytes","internalType":"bytes"}]}]}],"outputs":[{"name":"","type":"bytes","internalType":"bytes"}],"stateMutability":"pure"},{"type":"function","name":"feeRecipient","inputs":[],"outputs":[{"name":"","type":"address","internalType":"address"}],"stateMutability":"view"},{"type":"function","name":"gatewayBurn","inputs":[{"name":"calldataBytes","type":"bytes","internalType":"bytes"},{"name":"burnerSignature","type":"bytes","internalType":"bytes"}],"outputs":[],"stateMutability":"nonpayable"},{"type":"function","name":"getTypedDataHash","inputs":[{"name":"intent","type":"bytes","internalType":"bytes"}],"outputs":[{"name":"","type":"bytes32","internalType":"bytes32"}],"stateMutability":"view"},{"type":"function","name":"initialize","inputs":[{"name":"pauser_","type":"address","internalType":"address"},{"name":"denylister_","type":"address","internalType":"address"},{"name":"minter_","type":"address","internalType":"address"},{"name":"supportedTokens_","type":"address[]","internalType":"address[]"},{"name":"domain_","type":"uint32","internalType":"uint32"},{"name":"withdrawalDelay_","type":"uint256","internalType":"uint256"},{"name":"burnSigner_","type":"address","internalType":"address"},{"name":"feeRecipient_","type":"address","internalType":"address"}],"outputs":[],"stateMutability":"nonpayable"},{"type":"function","name":"initiateWithdrawal","inputs":[{"name":"token","type":"address","internalType":"address"},{"name":"value","type":"uint256","internalType":"uint256"}],"outputs":[],"stateMutability":"nonpayable"},{"type":"function","name":"initiateWithdrawal","inputs":[{"name":"token","type":"address","internalType":"address"},{"name":"depositor","type":"address","internalType":"address"},{"name":"value","type":"uint256","internalType":"uint256"}],"outputs":[],"stateMutability":"nonpayable"},{"type":"function","name":"isAuthorizedForBalance","inputs":[{"name":"token","type":"address","internalType":"address"},{"name":"depositor","type":"address","internalType":"address"},{"name":"addr","type":"address","internalType":"address"}],"outputs":[{"name":"","type":"bool","internalType":"bool"}],"stateMutability":"view"},{"type":"function","name":"isDenylisted","inputs":[{"name":"addr","type":"address","internalType":"address"}],"outputs":[{"name":"","type":"bool","internalType":"bool"}],"stateMutability":"view"},{"type":"function","name":"isTokenSupported","inputs":[{"name":"token","type":"address","internalType":"address"}],"outputs":[{"name":"","type":"bool","internalType":"bool"}],"stateMutability":"view"},{"type":"function","name":"isTransferSpecHashUsed","inputs":[{"name":"transferSpecHash","type":"bytes32","internalType":"bytes32"}],"outputs":[{"name":"","type":"bool","internalType":"bool"}],"stateMutability":"view"},{"type":"function","name":"minterContract","inputs":[],"outputs":[{"name":"","type":"address","internalType":"contract GatewayMinter"}],"stateMutability":"view"},{"type":"function","name":"owner","inputs":[],"outputs":[{"name":"","type":"address","internalType":"address"}],"stateMutability":"view"},{"type":"function","name":"pause","inputs":[],"outputs":[],"stateMutability":"nonpayable"},{"type":"function","name":"paused","inputs":[],"outputs":[{"name":"","type":"bool","internalType":"bool"}],"stateMutability":"view"},{"type":"function","name":"pauser","inputs":[],"outputs":[{"name":"","type":"address","internalType":"address"}],"stateMutability":"view"},{"type":"function","name":"pendingOwner","inputs":[],"outputs":[{"name":"","type":"address","internalType":"address"}],"stateMutability":"view"},{"type":"function","name":"proxiableUUID","inputs":[],"outputs":[{"name":"","type":"bytes32","internalType":"bytes32"}],"stateMutability":"view"},{"type":"function","name":"removeDelegate","inputs":[{"name":"token","type":"address","internalType":"address"},{"name":"delegate","type":"address","internalType":"address"}],"outputs":[],"stateMutability":"nonpayable"},{"type":"function","name":"renounceOwnership","inputs":[],"outputs":[],"stateMutability":"nonpayable"},{"type":"function","name":"totalBalance","inputs":[{"name":"token","type":"address","internalType":"address"},{"name":"depositor","type":"address","internalType":"address"}],"outputs":[{"name":"","type":"uint256","internalType":"uint256"}],"stateMutability":"view"},{"type":"function","name":"transferOwnership","inputs":[{"name":"newOwner","type":"address","internalType":"address"}],"outputs":[],"stateMutability":"nonpayable"},{"type":"function","name":"unDenylist","inputs":[{"name":"addr","type":"address","internalType":"address"}],"outputs":[],"stateMutability":"nonpayable"},{"type":"function","name":"unpause","inputs":[],"outputs":[],"stateMutability":"nonpayable"},{"type":"function","name":"updateBurnSigner","inputs":[{"name":"newBurnSigner","type":"address","internalType":"address"}],"outputs":[],"stateMutability":"nonpayable"},{"type":"function","name":"updateCounterpart","inputs":[{"name":"newCounterpart","type":"address","internalType":"address"}],"outputs":[],"stateMutability":"nonpayable"},{"type":"function","name":"updateDenylister","inputs":[{"name":"newDenylister","type":"address","internalType":"address"}],"outputs":[],"stateMutability":"nonpayable"},{"type":"function","name":"updateFeeRecipient","inputs":[{"name":"newFeeRecipient","type":"address","internalType":"address"}],"outputs":[],"stateMutability":"nonpayable"},{"type":"function","name":"updatePauser","inputs":[{"name":"newPauser","type":"address","internalType":"address"}],"outputs":[],"stateMutability":"nonpayable"},{"type":"function","name":"updateWithdrawalDelay","inputs":[{"name":"newDelay","type":"uint256","internalType":"uint256"}],"outputs":[],"stateMutability":"nonpayable"},{"type":"function","name":"upgradeToAndCall","inputs":[{"name":"newImplementation","type":"address","internalType":"address"},{"name":"data","type":"bytes","internalType":"bytes"}],"outputs":[],"stateMutability":"payable"},{"type":"function","name":"validateBurnIntents","inputs":[{"name":"intents","type":"bytes","internalType":"bytes"},{"name":"signer","type":"address","internalType":"address"}],"outputs":[{"name":"","type":"bool","internalType":"bool"}],"stateMutability":"view"},{"type":"function","name":"withdraw","inputs":[{"name":"token","type":"address","internalType":"address"}],"outputs":[],"stateMutability":"nonpayable"},{"type":"function","name":"withdraw","inputs":[{"name":"token","type":"address","internalType":"address"},{"name":"depositor","type":"address","internalType":"address"},{"name":"recipient","type":"address","internalType":"address"}],"outputs":[],"stateMutability":"nonpayable"},{"type":"function","name":"withdrawableBalance","inputs":[{"name":"token","type":"address","internalType":"address"},{"name":"depositor","type":"address","internalType":"address"}],"outputs":[{"name":"","type":"uint256","internalType":"uint256"}],"stateMutability":"view"},{"type":"function","name":"withdrawalBlock","inputs":[{"name":"token","type":"address","internalType":"address"},{"name":"depositor","type":"address","internalType":"address"}],"outputs":[{"name":"","type":"uint256","internalType":"uint256"}],"stateMutability":"view"},{"type":"function","name":"withdrawalDelay","inputs":[],"outputs":[{"name":"","type":"uint256","internalType":"uint256"}],"stateMutability":"view"},{"type":"function","name":"withdrawingBalance","inputs":[{"name":"token","type":"address","internalType":"address"},{"name":"depositor","type":"address","internalType":"address"}],"outputs":[{"name":"","type":"uint256","internalType":"uint256"}],"stateMutability":"view"},{"type":"event","name":"BurnSignerChanged","inputs":[{"name":"oldBurnSigner","type":"address","indexed":true,"internalType":"address"},{"name":"newBurnSigner","type":"address","indexed":true,"internalType":"address"}],"anonymous":false},{"type":"event","name":"CounterpartChanged","inputs":[{"name":"oldCounterpart","type":"address","indexed":true,"internalType":"address"},{"name":"newCounterpart","type":"address","indexed":true,"internalType":"address"}],"anonymous":false},{"type":"event","name":"DelegateAdded","inputs":[{"name":"token","type":"address","indexed":true,"internalType":"address"},{"name":"depositor","type":"address","indexed":true,"internalType":"address"},{"name":"delegate","type":"address","indexed":false,"internalType":"address"}],"anonymous":false},{"type":"event","name":"DelegateRemoved","inputs":[{"name":"token","type":"address","indexed":true,"internalType":"address"},{"name":"depositor","type":"address","indexed":true,"internalType":"address"},{"name":"delegate","type":"address","indexed":false,"internalType":"address"}],"anonymous":false},{"type":"event","name":"Denylisted","inputs":[{"name":"addr","type":"address","indexed":true,"internalType":"address"}],"anonymous":false},{"type":"event","name":"DenylisterChanged","inputs":[{"name":"oldDenylister","type":"address","indexed":true,"internalType":"address"},{"name":"newDenylister","type":"address","indexed":true,"internalType":"address"}],"anonymous":false},{"type":"event","name":"Deposited","inputs":[{"name":"token","type":"address","indexed":true,"internalType":"address"},{"name":"depositor","type":"address","indexed":true,"internalType":"address"},{"name":"value","type":"uint256","indexed":false,"internalType":"uint256"}],"anonymous":false},{"type":"event","name":"EIP712DomainChanged","inputs":[],"anonymous":false},{"type":"event","name":"FeeRecipientChanged","inputs":[{"name":"oldFeeRecipient","type":"address","indexed":true,"internalType":"address"},{"name":"newFeeRecipient","type":"address","indexed":true,"internalType":"address"}],"anonymous":false},{"type":"event","name":"GatewayBurned","inputs":[{"name":"token","type":"address","indexed":true,"internalType":"address"},{"name":"depositor","type":"address","indexed":true,"internalType":"address"},{"name":"transferSpecHash","type":"bytes32","indexed":true,"internalType":"bytes32"},{"name":"destinationDomain","type":"uint32","indexed":false,"internalType":"uint32"},{"name":"destinationRecipient","type":"bytes32","indexed":false,"internalType":"bytes32"},{"name":"signer","type":"address","indexed":false,"internalType":"address"},{"name":"value","type":"uint256","indexed":false,"internalType":"uint256"},{"name":"fee","type":"uint256","indexed":false,"internalType":"uint256"},{"name":"fromAvailable","type":"uint256","indexed":false,"internalType":"uint256"},{"name":"fromWithdrawing","type":"uint256","indexed":false,"internalType":"uint256"}],"anonymous":false},{"type":"event","name":"Initialized","inputs":[{"name":"version","type":"uint64","indexed":false,"internalType":"uint64"}],"anonymous":false},{"type":"event","name":"InsufficientBalance","inputs":[{"name":"token","type":"address","indexed":true,"internalType":"address"},{"name":"depositor","type":"address","indexed":true,"internalType":"address"},{"name":"value","type":"uint256","indexed":false,"internalType":"uint256"},{"name":"availableBalance","type":"uint256","indexed":false,"internalType":"uint256"},{"name":"withdrawingBalance","type":"uint256","indexed":false,"internalType":"uint256"}],"anonymous":false},{"type":"event","name":"OwnershipTransferStarted","inputs":[{"name":"previousOwner","type":"address","indexed":true,"internalType":"address"},{"name":"newOwner","type":"address","indexed":true,"internalType":"address"}],"anonymous":false},{"type":"event","name":"OwnershipTransferred","inputs":[{"name":"previousOwner","type":"address","indexed":true,"internalType":"address"},{"name":"newOwner","type":"address","indexed":true,"internalType":"address"}],"anonymous":false},{"type":"event","name":"Paused","inputs":[{"name":"account","type":"address","indexed":false,"internalType":"address"}],"anonymous":false},{"type":"event","name":"PauserChanged","inputs":[{"name":"oldPauser","type":"address","indexed":true,"internalType":"address"},{"name":"newPauser","type":"address","indexed":true,"internalType":"address"}],"anonymous":false},{"type":"event","name":"TokenSupported","inputs":[{"name":"token","type":"address","indexed":false,"internalType":"address"}],"anonymous":false},{"type":"event","name":"UnDenylisted","inputs":[{"name":"addr","type":"address","indexed":true,"internalType":"address"}],"anonymous":false},{"type":"event","name":"Unpaused","inputs":[{"name":"account","type":"address","indexed":false,"internalType":"address"}],"anonymous":false},{"type":"event","name":"Upgraded","inputs":[{"name":"implementation","type":"address","indexed":true,"internalType":"address"}],"anonymous":false},{"type":"event","name":"WithdrawalCompleted","inputs":[{"name":"token","type":"address","indexed":true,"internalType":"address"},{"name":"depositor","type":"address","indexed":true,"internalType":"address"},{"name":"recipient","type":"address","indexed":true,"internalType":"address"},{"name":"authorizer","type":"address","indexed":false,"internalType":"address"},{"name":"value","type":"uint256","indexed":false,"internalType":"uint256"}],"anonymous":false},{"type":"event","name":"WithdrawalDelayChanged","inputs":[{"name":"oldDelay","type":"uint256","indexed":true,"internalType":"uint256"},{"name":"newDelay","type":"uint256","indexed":true,"internalType":"uint256"}],"anonymous":false},{"type":"event","name":"WithdrawalInitiated","inputs":[{"name":"token","type":"address","indexed":true,"internalType":"address"},{"name":"depositor","type":"address","indexed":true,"internalType":"address"},{"name":"authorizer","type":"address","indexed":true,"internalType":"address"},{"name":"value","type":"uint256","indexed":false,"internalType":"uint256"},{"name":"remainingAvailable","type":"uint256","indexed":false,"internalType":"uint256"},{"name":"totalWithdrawing","type":"uint256","indexed":false,"internalType":"uint256"},{"name":"withdrawalBlock","type":"uint256","indexed":false,"internalType":"uint256"}],"anonymous":false},{"type":"error","name":"AccountDenylisted","inputs":[{"name":"addr","type":"address","internalType":"address"}]},{"type":"error","name":"AddressEmptyCode","inputs":[{"name":"target","type":"address","internalType":"address"}]},{"type":"error","name":"BurnFeeTooHighAtIndex","inputs":[{"name":"index","type":"uint32","internalType":"uint32"},{"name":"maxFee","type":"uint256","internalType":"uint256"},{"name":"actualFee","type":"uint256","internalType":"uint256"}]},{"type":"error","name":"CannotDelegateToSelf","inputs":[]},{"type":"error","name":"CursorOutOfBounds","inputs":[]},{"type":"error","name":"DepositValueMustBePositive","inputs":[]},{"type":"error","name":"ECDSAInvalidSignature","inputs":[]},{"type":"error","name":"ECDSAInvalidSignatureLength","inputs":[{"name":"length","type":"uint256","internalType":"uint256"}]},{"type":"error","name":"ECDSAInvalidSignatureS","inputs":[{"name":"s","type":"bytes32","internalType":"bytes32"}]},{"type":"error","name":"ERC1967InvalidImplementation","inputs":[{"name":"implementation","type":"address","internalType":"address"}]},{"type":"error","name":"ERC1967NonPayable","inputs":[]},{"type":"error","name":"EnforcedPause","inputs":[]},{"type":"error","name":"ExpectedPause","inputs":[]},{"type":"error","name":"FailedCall","inputs":[]},{"type":"error","name":"InputArrayLengthMismatch","inputs":[]},{"type":"error","name":"IntentExpiredAtIndex","inputs":[{"name":"index","type":"uint32","internalType":"uint32"},{"name":"maxBlockHeight","type":"uint256","internalType":"uint256"},{"name":"currentBlock","type":"uint256","internalType":"uint256"}]},{"type":"error","name":"IntentValueMustBePositiveAtIndex","inputs":[{"name":"index","type":"uint32","internalType":"uint32"}]},{"type":"error","name":"InvalidAddress","inputs":[]},{"type":"error","name":"InvalidBalanceType","inputs":[{"name":"balanceType","type":"uint96","internalType":"uint96"}]},{"type":"error","name":"InvalidBurnSigner","inputs":[]},{"type":"error","name":"InvalidInitialization","inputs":[]},{"type":"error","name":"InvalidIntentSourceContractAtIndex","inputs":[{"name":"index","type":"uint32","internalType":"uint32"},{"name":"intentContract","type":"address","internalType":"address"},{"name":"expectedContract","type":"address","internalType":"address"}]},{"type":"error","name":"InvalidIntentSourceSignerAtIndex","inputs":[{"name":"index","type":"uint32","internalType":"uint32"},{"name":"intentSigner","type":"address","internalType":"address"},{"name":"actualSigner","type":"address","internalType":"address"}]},{"type":"error","name":"InvalidTransferPayloadMagic","inputs":[{"name":"actualMagic","type":"bytes4","internalType":"bytes4"}]},{"type":"error","name":"InvalidTransferSpecMagic","inputs":[{"name":"actualMagic","type":"bytes4","internalType":"bytes4"}]},{"type":"error","name":"InvalidTransferSpecVersion","inputs":[{"name":"actualVersion","type":"uint32","internalType":"uint32"}]},{"type":"error","name":"MismatchedBurn","inputs":[]},{"type":"error","name":"MustHaveAtLeastOneBurnIntent","inputs":[]},{"type":"error","name":"NoRelevantBurnIntents","inputs":[]},{"type":"error","name":"NoWithdrawingBalance","inputs":[]},{"type":"error","name":"NotAllSameToken","inputs":[]},{"type":"error","name":"NotAuthorized","inputs":[]},{"type":"error","name":"NotInitializing","inputs":[]},{"type":"error","name":"OwnableInvalidOwner","inputs":[{"name":"owner","type":"address","internalType":"address"}]},{"type":"error","name":"OwnableUnauthorizedAccount","inputs":[{"name":"account","type":"address","internalType":"address"}]},{"type":"error","name":"SafeERC20FailedOperation","inputs":[{"name":"token","type":"address","internalType":"address"}]},{"type":"error","name":"TransferPayloadDataTooShort","inputs":[{"name":"expectedMinimumLength","type":"uint256","internalType":"uint256"},{"name":"actualLength","type":"uint256","internalType":"uint256"}]},{"type":"error","name":"TransferPayloadHeaderTooShort","inputs":[{"name":"expectedMinimumLength","type":"uint256","internalType":"uint256"},{"name":"actualLength","type":"uint256","internalType":"uint256"}]},{"type":"error","name":"TransferPayloadOverallLengthMismatch","inputs":[{"name":"expectedTotalLength","type":"uint256","internalType":"uint256"},{"name":"actualTotalLength","type":"uint256","internalType":"uint256"}]},{"type":"error","name":"TransferPayloadSetElementHeaderTooShort","inputs":[{"name":"index","type":"uint32","internalType":"uint32"},{"name":"actualSetLength","type":"uint256","internalType":"uint256"},{"name":"requiredOffset","type":"uint256","internalType":"uint256"}]},{"type":"error","name":"TransferPayloadSetElementTooShort","inputs":[{"name":"index","type":"uint32","internalType":"uint32"},{"name":"actualSetLength","type":"uint256","internalType":"uint256"},{"name":"requiredOffset","type":"uint256","internalType":"uint256"}]},{"type":"error","name":"TransferPayloadSetHeaderTooShort","inputs":[{"name":"expectedMinimumLength","type":"uint256","internalType":"uint256"},{"name":"actualLength","type":"uint256","internalType":"uint256"}]},{"type":"error","name":"TransferPayloadSetInvalidElementMagic","inputs":[{"name":"index","type":"uint32","internalType":"uint32"},{"name":"actualMagic","type":"bytes4","internalType":"bytes4"}]},{"type":"error","name":"TransferPayloadSetOverallLengthMismatch","inputs":[{"name":"expectedTotalLength","type":"uint256","internalType":"uint256"},{"name":"actualTotalLength","type":"uint256","internalType":"uint256"}]},{"type":"error","name":"TransferPayloadSetTooManyElements","inputs":[{"name":"maxElements","type":"uint32","internalType":"uint32"}]},{"type":"error","name":"TransferSpecHashUsed","inputs":[{"name":"transferSpecHash","type":"bytes32","internalType":"bytes32"}]},{"type":"error","name":"TransferSpecHeaderTooShort","inputs":[{"name":"expectedMinimumLength","type":"uint256","internalType":"uint256"},{"name":"actualLength","type":"uint256","internalType":"uint256"}]},{"type":"error","name":"TransferSpecHookDataFieldTooLarge","inputs":[{"name":"actualLength","type":"uint256","internalType":"uint256"},{"name":"maxLength","type":"uint256","internalType":"uint256"}]},{"type":"error","name":"TransferSpecInvalidHookData","inputs":[{"name":"expectedHookDataLength","type":"uint256","internalType":"uint256"},{"name":"transferSpecLength","type":"uint256","internalType":"uint256"}]},{"type":"error","name":"TransferSpecOverallLengthMismatch","inputs":[{"name":"expectedTotalLength","type":"uint256","internalType":"uint256"},{"name":"actualTotalLength","type":"uint256","internalType":"uint256"}]},{"type":"error","name":"UUPSUnauthorizedCallContext","inputs":[]},{"type":"error","name":"UUPSUnsupportedProxiableUUID","inputs":[{"name":"slot","type":"bytes32","internalType":"bytes32"}]},{"type":"error","name":"UnauthorizedDenylister","inputs":[{"name":"addr","type":"address","internalType":"address"}]},{"type":"error","name":"UnauthorizedPauser","inputs":[{"name":"caller","type":"address","internalType":"address"}]},{"type":"error","name":"UnsupportedToken","inputs":[{"name":"token","type":"address","internalType":"address"}]},{"type":"error","name":"UnsupportedTokenAtIndex","inputs":[{"name":"index","type":"uint32","internalType":"uint32"},{"name":"sourceToken","type":"address","internalType":"address"}]},{"type":"error","name":"WithdrawalNotYetAvailable","inputs":[]},{"type":"error","name":"WithdrawalValueExceedsAvailableBalance","inputs":[]},{"type":"error","name":"WithdrawalValueMustBePositive","inputs":[]}],"bytecode":{"object":"0x60a060405230608052348015610013575f5ffd5b5061001c610029565b610024610029565b6100db565b7ff0c57e16840df040f15088dc2f81fe391c3923bec73e23a9662efc9c229c6a00805468010000000000000000900460ff16156100795760405163f92ee8a960e01b815260040160405180910390fd5b80546001600160401b03908116146100d85780546001600160401b0319166001600160401b0390811782556040519081527fc7f505b2f371ae2175ee4913f4499e1f2633a7b5936321eed1cdaeb6115181d29060200160405180910390a15b50565b608051615e796101015f395f81816122420152818161226b01526124400152615e795ff3fe608060405260043610610316575f3560e01c806384b0196e1161019b578063bcc76c60116100ee578063e877a5261161009d578063f698da251161006d578063f698da25146109b2578063fafb8e5a146109c6578063fefeec13146109e5578063ff7885e814610a04575f5ffd5b8063e877a52614610936578063e909ebfa14610955578063f160d36914610974578063f2fde38b14610993575f5ffd5b8063bcc76c6014610862578063c2fb26a614610876578063c8393ba9146108a6578063d6d344a1146108c5578063dc4aa513146108e4578063df0c669014610903578063e30c397814610922575f5ffd5b80639fd0506d1161014a5780639fd0506d1461077a578063a5ba11a21461078e578063a7ab6961146107ad578063a946de04146107c1578063ad3cb1cc146107e0578063b727b57914610810578063bb9354af14610843575f5ffd5b806384b0196e146106af5780638a94d4fc146106d65780638da5cb5b146106f55780638ec3dbb9146107095780638ef597391461072857806392f00233146107475780639cab0c1c1461075b575f5ffd5b80634e1273f41161026d5780635c975abb1161021c57806375151b63116101ec57806375151b631461063c578063772b46251461065b57806379ba5097146106875780638456cb591461069b575f5ffd5b80635c975abb146105c75780636d69fcaf146105ea578063715018a61461060957806374392bf31461061d575f5ffd5b80634e1273f4146105035780634f1ef2861461052f5780634fec87921461054257806351cff8d91461055657806352cd67e91461057557806352d1902d14610594578063554bab3c146105a8575f5ffd5b80633371bfff116102c95780633371bfff146104335780633bbe1ecd146104525780633ccb64ae146104715780633f4ba83a14610490578063438d4835146104a457806346904840146104c357806347e7ef24146104e4575f5ffd5b8062fdd58e1461031a578063020d308d1461034c578063056a38d61461036d5780631453b9871461038c57806317580158146103ab57806326a3fb30146103f557806328fa1d2014610414575b5f5ffd5b348015610325575f5ffd5b50610339610334366004614d86565b610a23565b6040519081526020015b60405180910390f35b348015610357575f5ffd5b5061036b610366366004614dae565b610b57565b005b348015610378575f5ffd5b5061036b610387366004614e39565b610c70565b348015610397575f5ffd5b506103396103a6366004614dae565b610d6d565b3480156103b6575f5ffd5b506103e56103c5366004614ee2565b5f9081525f516020615d645f395f51905f52602052604090205460ff1690565b6040519015158152602001610343565b348015610400575f5ffd5b5061036b61040f366004614f36565b610dc9565b34801561041f575f5ffd5b5061036b61042e366004614fa8565b610e3c565b34801561043e575f5ffd5b5061036b61044d366004614fa8565b610e50565b34801561045d575f5ffd5b5061033961046c366004614dae565b610ec7565b34801561047c575f5ffd5b5061033961048b366004614dae565b610f2d565b34801561049b575f5ffd5b5061036b610f5e565b3480156104af575f5ffd5b5061036b6104be366004614fc1565b610f9a565b3480156104ce575f5ffd5b506104d7611011565b6040516103439190615045565b3480156104ef575f5ffd5b5061036b6104fe366004614d86565b61102c565b34801561050e575f5ffd5b5061052261051d366004615059565b6110ca565b60405161034391906150fd565b61036b61053d366004615209565b6111b2565b34801561054d575f5ffd5b506104d76111d1565b348015610561575f5ffd5b5061036b610570366004614fa8565b6111e9565b348015610580575f5ffd5b5061036b61058f366004614ee2565b611211565b34801561059f575f5ffd5b50610339611265565b3480156105b3575f5ffd5b5061036b6105c2366004614fa8565b611280565b3480156105d2575f5ffd5b505f516020615de45f395f51905f525460ff166103e5565b3480156105f5575f5ffd5b5061036b610604366004614fa8565b611291565b348015610614575f5ffd5b5061036b611315565b348015610628575f5ffd5b506103e5610637366004615253565b611326565b348015610647575f5ffd5b506103e5610656366004614fa8565b6113a6565b348015610666575f5ffd5b5061067a610675366004615293565b6113ea565b60405161034391906152f7565b348015610692575f5ffd5b5061036b6113fd565b3480156106a6575f5ffd5b5061036b611439565b3480156106ba575f5ffd5b506106c3611473565b6040516103439796959493929190615309565b3480156106e1575f5ffd5b5061036b6106f0366004615388565b61151c565b348015610700575f5ffd5b506104d7611582565b348015610714575f5ffd5b5061036b610723366004615403565b6115b6565b348015610733575f5ffd5b5061036b610742366004615461565b6115f3565b348015610752575f5ffd5b506104d7611655565b348015610766575f5ffd5b5061036b610775366004614fa8565b611663565b348015610785575f5ffd5b506104d76116d9565b348015610799575f5ffd5b506103e56107a83660046154c7565b611700565b3480156107b8575f5ffd5b50610339611845565b3480156107cc575f5ffd5b5061036b6107db366004614fa8565b611857565b3480156107eb575f5ffd5b5061067a604051806040016040528060058152602001640352e302e360dc1b81525081565b34801561081b575f5ffd5b506103397fb03948446334eb9b2196d5eb166f69b9d49403eb4a12f36de8d3f9f3cb8e15c381565b34801561084e575f5ffd5b5061036b61085d366004614fa8565b6118c4565b34801561086d575f5ffd5b506104d761192f565b348015610881575f5ffd5b505f516020615e045f395f51905f525460405163ffffffff9091168152602001610343565b3480156108b1575f5ffd5b5061036b6108c0366004614d86565b611938565b3480156108d0575f5ffd5b5061036b6108df36600461550d565b611958565b3480156108ef575f5ffd5b506103396108fe366004615547565b6119ac565b34801561090e575f5ffd5b5061033961091d366004614dae565b6119eb565b34801561092d575f5ffd5b506104d7611a2e565b348015610941575f5ffd5b506103e5610950366004614fa8565b611a43565b348015610960575f5ffd5b5061036b61096f366004614dae565b611a4c565b34801561097f575f5ffd5b5061036b61098e366004614fa8565b611b1b565b34801561099e575f5ffd5b5061036b6109ad366004614fa8565b611b8a565b3480156109bd575f5ffd5b50610339611bfc565b3480156109d1575f5ffd5b5061067a6109e0366004615585565b611cc4565b3480156109f0575f5ffd5b506103396109ff366004614dae565b611ce8565b348015610a0f575f5ffd5b5061036b610a1e366004615253565b611cf1565b5f81610a2e816113a6565b610a565780604051635f8b555b60e11b8152600401610a4d9190615045565b60405180910390fd5b60a083901c6003811115610a8857604051635315cba760e01b81526001600160601b0382166004820152602401610a4d565b5f816001600160601b03166003811115610aa457610aa46155b7565b6003811115610ab557610ab56155b7565b03610acd57610ac48286610d6d565b92505050610b51565b6001816001600160601b03166003811115610aea57610aea6155b7565b6003811115610afb57610afb6155b7565b03610b0a57610ac48286610f2d565b6002816001600160601b03166003811115610b2757610b276155b7565b6003811115610b3857610b386155b7565b03610b4757610ac482866119eb565b610ac48286610ec7565b92915050565b610b5f611d3b565b33610b6981611d6b565b82610b7381611d94565b610b7c83611dbc565b6001600160a01b038481165f9081525f516020615da45f395f51905f5260208181526040808420338552825280842094881684529390529181205460ff1690816002811115610bcd57610bcd6155b7565b1480610bea57506002816002811115610be857610be86155b7565b145b15610bf6575050610c6a565b6001600160a01b038681165f8181526020858152604080832033808552908352818420958b1684529490915290819020805460ff19166002179055517ff706b3b70da5d5dada9b3c7d9f14e4f6c280183742a82ea2f951653070b0f19590610c5f908990615045565b60405180910390a350505b50505050565b7ff0c57e16840df040f15088dc2f81fe391c3923bec73e23a9662efc9c229c6a00805460029190600160401b900460ff1680610cb9575080546001600160401b03808416911610155b15610cd75760405163f92ee8a960e01b815260040160405180910390fd5b805468ffffffffffffffffff19166001600160401b03831617600160401b178155610d068b8b8b8b8b8b611de3565b610d0f85611e21565b610d198484611e32565b805460ff60401b191681556040516001600160401b03831681527fc7f505b2f371ae2175ee4913f4499e1f2633a7b5936321eed1cdaeb6115181d29060200160405180910390a15050505050505050505050565b5f5f610d77611e4c565b6001600160a01b038086165f8181526001840160209081526040808320948916808452948252808320549383528582528083209483529390529190912054919250610dc1916155df565b949350505050565b610dd1611d3b565b33610ddb81611d6b565b85610de581611d6b565b87610def81611d94565b610e318989898989898080601f0160208091040260200160405190810160405280939291908181526020018383808284375f92019190915250611e7092505050565b505050505050505050565b610e44611f45565b610e4d81611f77565b50565b610e58611fe7565b600101546001600160a01b03163314610e865733604051637446939f60e11b8152600401610a4d9190615045565b610e9181600161200b565b6040516001600160a01b038216907ffa4507bc1f9c730e6e95897024f1fe7d576cf2deb53579d55c14f1ac3439e114905f90a250565b5f82610ed281611d94565b5f610edb611e4c565b6001600160a01b038087165f9081526001929092016020908152604080842092881684529190529020549050801580610f1c575043610f1a8686611ce8565b115b15610dc1575f9250505b5092915050565b5f610f36611e4c565b6001600160a01b039384165f9081526020918252604080822094909516815292905250205490565b33610f676116d9565b6001600160a01b031614610f90573360405163ae3b56d560e01b8152600401610a4d9190615045565b610f98612042565b565b610fa2611d3b565b33610fac81611d6b565b87610fb681611d6b565b89610fc081611d94565b6110048b8b8b8b8b8b8b8b8080601f0160208091040260200160405190810160405280939291908181526020018383808284375f9201919091525061209092505050565b5050505050505050505050565b5f61101a612165565b600101546001600160a01b0316919050565b611034611d3b565b3361103e81611d6b565b8261104881611d94565b825f03611068576040516370e1e43160e01b815260040160405180910390fd5b33611074858286612189565b6110896001600160a01b0386168230876121d0565b806001600160a01b0316856001600160a01b03165f516020615dc45f395f51905f52866040516110bb91815260200190565b60405180910390a35050505050565b60608382146110ec576040516343714afd60e01b815260040160405180910390fd5b5f846001600160401b038111156111055761110561510f565b60405190808252806020026020018201604052801561112e578160200160208202803683370190505b5090505f5b858110156111a857611183878783818110611150576111506155f2565b90506020020160208101906111659190614fa8565b868684818110611177576111776155f2565b90506020020135610a23565b828281518110611195576111956155f2565b6020908102919091010152600101611133565b5095945050505050565b6111ba612237565b6111c3826122c5565b6111cd82826122cd565b5050565b5f6111da612165565b546001600160a01b0316919050565b6111f1611d3b565b806111fb81611d94565b33808061120a85828080612385565b5050505050565b611219611f45565b5f611222612411565b60010154905081611231612411565b60010155604051829082907fab3f1d5eaee409b7067167f77f1fa3f8a863366d6fb2b88559cd4f9b8e03e182905f90a35050565b5f61126e612435565b505f516020615d845f395f51905f5290565b611288611f45565b610e4d8161247e565b611299611f45565b6001600160a01b0381165f9081527f3ba16516a08fb9c5c48fb6662657ad4ffe1c779829969b4c7abdb9287bbf8500602052604090819020805460ff19166001179055517fea3145306a87baeba6bb1a8b5c8d3744f840a81cb436b3509f64fc978600cdfb9061130a908390615045565b60405180910390a150565b61131d611f45565b610f985f6124ee565b5f826001600160a01b0316826001600160a01b0316036113485750600161139f565b6001600160a01b038481165f9081525f516020615da45f395f51905f5260209081526040808320878516845282528083209386168352929052205460ff16600181600281111561139a5761139a6155b7565b149150505b9392505050565b5f7f3ba16516a08fb9c5c48fb6662657ad4ffe1c779829969b4c7abdb9287bbf85005b6001600160a01b039092165f90815260209290925250604090205460ff1690565b6060610b516113f88361572e565b612513565b3380611407611a2e565b6001600160a01b031614611430578060405163118cdaa760e01b8152600401610a4d9190615045565b610e4d816124ee565b336114426116d9565b6001600160a01b03161461146b573360405163ae3b56d560e01b8152600401610a4d9190615045565b610f98612560565b5f6060805f5f5f60606040518060400160405280600d81526020016c11d85d195dd85e55d85b1b195d609a1b815250604051806040016040528060018152602001603160f81b8152505f5f5f5f1b5f6001600160401b038111156114d9576114d961510f565b604051908082528060200260200182016040528015611502578160200160208202803683370190505b50600360f81b9d959c50939a509198509650945092509050565b611524611d3b565b3361152e81611d6b565b8861153881611d6b565b8a61154281611d94565b6115748c8c8c8c8c8c8b8b8e60405160200161156093929190615739565b604051602081830303815290604052612090565b505050505050505050505050565b5f807f9016d09d72d40fdae2fd8ceac6b6234c7706214fd39c1cd1e609a0528c1993005b546001600160a01b031692915050565b6115be611d3b565b6115ca848484846125a8565b5f80806115d986880188615801565b9250925092506115ea83838361268b565b50505050505050565b6115fb611d3b565b3361160581611d6b565b8661160f81611d6b565b8861161981611d94565b6116498a8a8a8a89898c60405160200161163593929190615739565b604051602081830303815290604052611e70565b50505050505050505050565b5f61165e612746565b905090565b61166b611fe7565b600101546001600160a01b031633146116995733604051637446939f60e11b8152600401610a4d9190615045565b6116a3815f61200b565b6040516001600160a01b038216907fc904e1b03de0c20d7fcf9dbd056daf1bd3815e93f251199de815fd0f0b96e166905f90a250565b5f7f7e0f0117f6f510f2a35b1c8185f303b28ba884334cd776f9d98e2abef24e2f006111da565b5f5f61174085858080601f0160208091040260200160405190810160405280939291908181526020018383808284375f9201919091525061276d92505050565b9050806040015163ffffffff165f0361176c57604051630483621960e41b815260040160405180910390fd5b5f5f5b82608001516118385761178183612804565b91505f61179362ffffff1984166128e8565b90505f600185606001516117a79190615961565b90505f6117b583898461296f565b9050806117c45750505061176f565b6117cf855f84612b44565b5f6117e56117e262ffffff198616612bd5565b90565b90506001600160a01b0385166117fd5780945061182f565b846001600160a01b0316816001600160a01b03161461182f576040516307897d0f60e31b815260040160405180910390fd5b5050505061176f565b5060019695505050505050565b5f61184e612411565b60010154905090565b61185f611f45565b5f611868611fe7565b600101546001600160a01b0316905061188082612be9565b816001600160a01b0316816001600160a01b03167fe144e84038182cefebda68c192c222085b2c12a85d135d3c938498c0165c01d360405160405180910390a35050565b6118cc611f45565b6118d581611dbc565b5f6118de612165565b80546001600160a01b038481166001600160a01b031983168117845560405193945091169182907faf475307c85ad7173312fc45b26c9a3a5b462abc33b1fac0390f8374058ad798905f90a3505050565b5f61101a611fe7565b611940611d3b565b8161194a81611d94565b338061120a85828087612c16565b611960611d3b565b8261196a81611d94565b838333611978838383611326565b6119955760405163ea8e4eb560e01b815260040160405180910390fd5b336119a288888389612c16565b5050505050505050565b5f61139f83838080601f0160208091040260200160405190810160405280939291908181526020018383808284375f92019190915250612cf592505050565b5f826119f681611d94565b6119fe611e4c565b6001600160a01b039485165f90815260019190910160209081526040808320959096168252939093525050205490565b5f805f516020615e245f395f51905f526115a6565b5f6113c9611fe7565b611a54611d3b565b33611a5e81611d6b565b81611a6881611d6b565b83611a7281611d94565b611a7b84611dbc565b336001600160a01b03851603611aa457604051633be64e5b60e21b815260040160405180910390fd5b6001600160a01b038581165f8181525f516020615da45f395f51905f526020908152604080832033808552908352818420958a1684529490915290819020805460ff19166001179055517fe91cba149cb264c22b997b1a69e785ad1562a07f83318cd0c985ba1be6e66099906110bb908890615045565b611b23611f45565b611b2c81611dbc565b5f611b35612165565b6001810180546001600160a01b038581166001600160a01b031983168117909355604051939450169182907f0bc21fe5c3ab742ff1d15b5c4477ffbacf1167e618228078fa625edebe7f331d905f90a3505050565b611b92611f45565b5f516020615e245f395f51905f5280546001600160a01b0319166001600160a01b0383169081178255611bc3611582565b6001600160a01b03167f38d16b8cac22d99fc7c124b9cd0de2d3fa1faef420bfe791d8c362d765e2270060405160405180910390a35050565b604080518082018252600d81526c11d85d195dd85e55d85b1b195d609a1b6020918201528151808301835260018152603160f81b9082015281517fb03948446334eb9b2196d5eb166f69b9d49403eb4a12f36de8d3f9f3cb8e15c3818301527f7ae6a640f653d0a0ae71fd94200a4797e3e069c3a0320aab3f939b6ae05e50eb818401527fc89efdaa54c0f20c7adf612882df0950f5a951637e0307cdcb4c672f298b8bc6606080830191909152835180830390910181526080909101909252815191012090565b606061139f6040518060200160405280858590611ce1919061597d565b9052612d22565b5f610f36612411565b611cf9611d3b565b82611d0381611d94565b838333611d11838383611326565b611d2e5760405163ea8e4eb560e01b815260040160405180910390fd5b336119a288888389612385565b5f516020615de45f395f51905f525460ff1615610f985760405163d93c066560e01b815260040160405180910390fd5b611d7481611a43565b15610e4d57806040516313f7662b60e11b8152600401610a4d9190615045565b611d9d816113a6565b610e4d5780604051635f8b555b60e11b8152600401610a4d9190615045565b6001600160a01b038116610e4d5760405163e6c4247b60e01b815260040160405180910390fd5b611deb612fad565b611df486612ff6565b611dfd85613006565b611e0684613017565b611e10838361301f565b611e1981613063565b505050505050565b611e29612fad565b610e4d81613093565b611e3a612fad565b611e43826118c4565b6111cd81611b1b565b7fdd3dca88e892815d13ea80f1982e32e4fe3d0a89f03d14d3565bf56d58c31a0090565b825f03611e90576040516370e1e43160e01b815260040160405180910390fd5b83611e9c868286612189565b604051639fd5a6cf60e01b81526001600160a01b03871690639fd5a6cf90611ed090849030908990899089906004016159ea565b5f604051808303815f87803b158015611ee7575f5ffd5b505af1158015611ef9573d5f5f3e3d5ffd5b50611f13925050506001600160a01b0387168230876121d0565b846001600160a01b0316866001600160a01b03165f516020615dc45f395f51905f5286604051610c5f91815260200190565b33611f4e611582565b6001600160a01b031614610f98573360405163118cdaa760e01b8152600401610a4d9190615045565b7f93e77e25ef9d7551b01674a3ef68f44dcb2b33c68692c96a16f33bfe6d355b0080546001600160a01b038381166001600160a01b0319831681179093556040519116919082907f170daccf9d49b9527882eaa9db5b8bf46755741963748f5ecd16eacbe5d21614905f90a35050565b7f77aee7014301166d8532df7f3d0b1c40d5b12f074d2d69255b43654e0419340090565b80612014611fe7565b6001600160a01b03939093165f9081526020939093526040909220805460ff19169215159290921790915550565b61204a6130a4565b5f516020615de45f395f51905f52805460ff191681557f5db9ee0a495bf2e6ff9c91a7834c1ba4fdd244a5e8aa4e537bd38aeae4b073aa335b60405161130a9190615045565b845f036120b0576040516370e1e43160e01b815260040160405180910390fd5b856120bc888288612189565b6040516388b7ab6360e01b81526001600160a01b038916906388b7ab63906120f490849030908b908b908b908b908b90600401615a2e565b5f604051808303815f87803b15801561210b575f5ffd5b505af115801561211d573d5f5f3e3d5ffd5b50505050806001600160a01b0316886001600160a01b03165f516020615dc45f395f51905f528860405161215391815260200190565b60405180910390a35050505050505050565b7f931ec06eaaa2cd8a002032d3364041b052af597aa8c169fcc20c959a9f55710090565b80612192611e4c565b6001600160a01b038086165f90815260209283526040808220928716825291909252812080549091906121c69084906155df565b9091555050505050565b6040516001600160a01b038481166024830152838116604483015260648201839052610c6a9186918216906323b872dd906084015b604051602081830303815290604052915060e01b6020820180516001600160e01b0383818316178352505050506130d3565b306001600160a01b037f00000000000000000000000000000000000000000000000000000000000000001614806122a757507f00000000000000000000000000000000000000000000000000000000000000006001600160a01b031661229b613136565b6001600160a01b031614155b15610f985760405163703e46dd60e11b815260040160405180910390fd5b610e4d611f45565b816001600160a01b03166352d1902d6040518163ffffffff1660e01b8152600401602060405180830381865afa925050508015612327575060408051601f3d908101601f1916820190925261232491810190615a82565b60015b6123465781604051634c9c8ce360e01b8152600401610a4d9190615045565b5f516020615d845f395f51905f52811461237657604051632a87526960e21b815260048101829052602401610a4d565b612380838361314a565b505050565b61238f848461319f565b5f61239a85856131ec565b90506123a785855f613276565b6123bb6001600160a01b03861683836132ac565b604080516001600160a01b038581168252602082018490528085169287821692918916917f5deff88b03b957761fa02c49b4ac05d260e7ccfb4a198b92f0491e17a0f7f95c910160405180910390a45050505050565b7f8f0d2169d60e1d6e8f336adc673aa9b36c7a3956bc915f85e5cfebff815daa0090565b306001600160a01b037f00000000000000000000000000000000000000000000000000000000000000001614610f985760405163703e46dd60e11b815260040160405180910390fd5b7f7e0f0117f6f510f2a35b1c8185f303b28ba884334cd776f9d98e2abef24e2f0080546001600160a01b038381166001600160a01b0319831681179093556040519116919082907f95bb211a5a393c4d30c3edc9a745825fba4e6ad3e3bb949e6bf8ccdfe431a811905f90a35050565b5f516020615e245f395f51905f5280546001600160a01b03191681556111cd826132dd565b60605f612523836040015161334d565b83516020808601518351604051949550612549946303857de160e11b9493879101615ab0565b604051602081830303815290604052915050919050565b612568611d3b565b5f516020615de45f395f51905f52805460ff191660011781557f62e78cea01bee320cd4e420270b5ea74000d11b0c9f74754ebdbfc544b05a25833612083565b604181146125c95760405163d611d6a560e01b815260040160405180910390fd5b5f61265561261a86866040516125e0929190615ae5565b60405180910390207f19457468657265756d205369676e6564204d6573736167653a0a3332000000005f908152601c91909152603c902090565b84848080601f0160208091040260200160405190810160405280939291908181526020018383808284375f9201919091525061344992505050565b905061265f612165565b546001600160a01b0382811691161461120a5760405163d611d6a560e01b815260040160405180910390fd5b82515f036126ac57604051630483621960e41b815260040160405180910390fd5b825182511415806126bf57508251815114155b156126dd576040516336dc648360e21b815260040160405180910390fd5b5f5b8351811015610c6a5761273e8482815181106126fd576126fd6155f2565b6020026020010151848381518110612717576127176155f2565b6020026020010151848481518110612731576127316155f2565b6020026020010151613471565b6001016126df565b5f7f93e77e25ef9d7551b01674a3ef68f44dcb2b33c68692c96a16f33bfe6d355b006111da565b6040805160a0810182525f808252602082018190529181018290526060810182905260808101829052906127a0836134fe565b62ffffff19811683525f606084015290506127ba8161352f565b6127d857505f60208201819052600160408301526080820152919050565b5f6127e282613551565b6008602085015263ffffffff1660408401819052156080840152509092915050565b5f81608001511561282857604051631365229760e31b815260040160405180910390fd5b5f612851604461ffff16846020015161284191906155df565b845162ffffff1916906004613560565b90505f61285f826048615af4565b6020850151855163ffffffff9290921692506128879162ffffff1916908363070afbc261358f565b9250808460200181815161289b91906155df565b905250606084018051906128ae82615b10565b63ffffffff1663ffffffff1681525050836040015163ffffffff16846060015163ffffffff16106128e157600160808501525b5050919050565b5f5f6128f383613608565b90505f61291362ffffff198516604863ffffffff851663ca85def761358f565b90505f61292862ffffff19831682600461361c565b90506001600160e01b0319811663ca85def760e01b1461296757604051633c2c863160e11b81526001600160e01b031982166004820152602401610a4d565b509392505050565b5f8061298062ffffff198616613772565b9050805f036129a957604051620ad61f60eb1b815263ffffffff84166004820152602401610a4d565b5f6129b962ffffff198716613787565b5f516020615e045f395f51905f525490915063ffffffff8083169116146129e4575f9250505061139f565b5f6129f76117e262ffffff19891661379b565b90506001600160a01b0381163014612a3f57604051635b06a28360e01b815263ffffffff861660048201526001600160a01b0382166024820152306044820152606401610a4d565b5f612a526117e262ffffff198a16612bd5565b9050612a5d816113a6565b612a915760405163600a901b60e01b815263ffffffff871660048201526001600160a01b0382166024820152604401610a4d565b5f612aa46117e262ffffff198b166137af565b9050876001600160a01b0316816001600160a01b031614612af75760405163178bd68160e31b815263ffffffff881660048201526001600160a01b03808316602483015289166044820152606401610a4d565b5f612b0a6117e262ffffff198c166137c3565b9050612b1783828b6137d7565b612b345760405163ea8e4eb560e01b815260040160405180910390fd5b5060019998505050505050505050565b5f612b5462ffffff198516613857565b905043811015612b8c5760405163090353d560e11b815263ffffffff8316600482015260248101829052436044820152606401610a4d565b5f612b9c62ffffff19861661386b565b90508381101561120a5760405163195785c960e11b815263ffffffff841660048201526024810182905260448101859052606401610a4d565b5f610b5162ffffff1983166050602061361c565b80612bf2611fe7565b60010180546001600160a01b0319166001600160a01b039290921691909117905550565b805f03612c3657604051636e120c9560e11b815260040160405180910390fd5b612c408484610f2d565b811115612c6057604051636b18a64360e01b815260040160405180910390fd5b5f5f612c6d86868561387f565b915091505f612c7a611845565b612c8490436155df565b9050612c91878783613276565b6040805185815260208101859052908101839052606081018290526001600160a01b0380871691888216918a16907f435e11a5b75fcd07f0541bca0b78c909c9185ee2383811835e1727d289cf579f9060800160405180910390a450505050505050565b5f5f612d008361393b565b9050612d0b8161352f565b15612d195761139f81613a16565b61139f81613b9e565b80515160609063ffffffff811115612d535760405163abbd994760e01b815263ffffffff6004820152602401610a4d565b5f80826001600160401b03811115612d6d57612d6d61510f565b604051908082528060200260200182016040528015612da057816020015b6060815260200190600190039081612d8b5790505b5090505f5b83811015612e1f57612dd2865f01518281518110612dc557612dc56155f2565b6020026020010151612513565b828281518110612de457612de46155f2565b6020026020010181905250818181518110612e0157612e016155f2565b60200260200101515183612e1591906155df565b9250600101612da5565b5060405163e999239b60e01b602082015260e084901b6001600160e01b03191660248201525f9060280160405160208183030381529060405290505f838251612e6891906155df565b6001600160401b03811115612e7f57612e7f61510f565b6040519080825280601f01601f191660200182016040528015612ea9576020820181803683370190505b5090505f5b8251811015612f0457828181518110612ec957612ec96155f2565b602001015160f81c60f81b828281518110612ee657612ee66155f2565b60200101906001600160f81b03191690815f1a905350600101612eae565b5081515f5b86811015612fa0575f858281518110612f2457612f246155f2565b602002602001015190505f5f90505b8151811015612f9657818181518110612f4e57612f4e6155f2565b602001015160f81c60f81b858581518110612f6b57612f6b6155f2565b60200101906001600160f81b03191690815f1a90535083612f8b81615b34565b945050600101612f33565b5050600101612f09565b5090979650505050505050565b7ff0c57e16840df040f15088dc2f81fe391c3923bec73e23a9662efc9c229c6a0054600160401b900460ff16610f9857604051631afcd79f60e31b815260040160405180910390fd5b612ffe612fad565b611288613c13565b61300e612fad565b610e4d81611857565b610e44612fad565b613027612fad565b5f5b818110156123805761305b838383818110613046576130466155f2565b90506020020160208101906106049190614fa8565b600101613029565b61306b612fad565b5f516020615e045f395f51905f52805463ffffffff191663ffffffff92909216919091179055565b61309b612fad565b610e4d81611211565b5f516020615de45f395f51905f525460ff16610f9857604051638dfc202b60e01b815260040160405180910390fd5b5f5f60205f8451602086015f885af1806130f2576040513d5f823e3d81fd5b50505f513d91508115613109578060011415613116565b6001600160a01b0384163b155b15610c6a5783604051635274afe760e01b8152600401610a4d9190615045565b5f5f516020615d845f395f51905f526111da565b61315382613c23565b6040516001600160a01b038316907fbc7cd75a20ee27fd9adebab32041f755214dbc6bffa90cc0225b39da2e5c2d3b905f90a2805115613197576123808282613c7d565b6111cd613cef565b436131a8612411565b6001600160a01b038085165f9081526020928352604080822092861682529190925290205411156111cd576040516327b0bab160e11b815260040160405180910390fd5b5f5f6131f6611e4c565b6001600160a01b038086165f908152600183016020908152604080832093881683529290529081205491925081900361324257604051631b4e3b4f60e01b815260040160405180910390fd5b6001600160a01b038086165f9081526001909301602090815260408085209287168552919052822091909155905092915050565b8061327f612411565b6001600160a01b039485165f90815260209182526040808220959096168152939052929091209190915550565b6040516001600160a01b0383811660248301526044820183905261238091859182169063a9059cbb90606401612205565b7f9016d09d72d40fdae2fd8ceac6b6234c7706214fd39c1cd1e609a0528c19930080546001600160a01b031981166001600160a01b03848116918217845560405192169182907f8be0079c531659141344cd1fd0a4f28419497f9722a3daafe3b4186f6b6457e0905f90a3505050565b60605f6133ed835f015184602001518560400151866060015187608001518860a001518960c001518a60e001516040805163ca85def760e01b602082015260e0998a1b6001600160e01b03199081166024830152988a1b891660288201529690981b909616602c860152603085019390935260508401919091526070830152609082015260b0808201929092528251808203909201825260d00190915290565b90505f61341c846101000151856101200151866101400151876101600151886101800151896101a00151613d0e565b90508181604051602001613431929190615b4c565b60405160208183030381529060405292505050919050565b5f5f5f5f6134578686613d80565b9250925092506134678282613dc9565b5090949350505050565b5f61347b8461276d565b9050806040015163ffffffff165f036134a757604051630483621960e41b815260040160405180910390fd5b806040015163ffffffff168251146134d2576040516336dc648360e21b815260040160405180910390fd5b5f6134e46134df86612cf5565b613e81565b90505f6134f18286613449565b9050611e19838286613ead565b5f6135088261393b565b90506135138161352f565b156135265761352181614070565b919050565b613521816142b4565b5f63e999239b60e01b61354a62ffffff19841683600461361c565b1492915050565b5f610b5162ffffff1983166004805b5f61356c826020615b60565b613577906008615b79565b60ff1661358585858561361c565b901c949350505050565b5f5f6135a48660781c6001600160601b031690565b6001600160601b031690506135b8866142d2565b846135c387846155df565b6135cd91906155df565b11156135e05762ffffff19915050610dc1565b6135ea85826155df565b90506135fe8364ffffffffff16828661430a565b9695505050505050565b5f610b5162ffffff19831660446004613560565b5f8160ff165f0361362e57505f61139f565b6136418460181c6001600160601b031690565b6001600160601b031661365760ff8416856155df565b11156136bb576136a26136738560781c6001600160601b031690565b6001600160601b031661368f8660181c6001600160601b031690565b6001600160601b0316858560ff1661434e565b60405162461bcd60e51b8152600401610a4d91906152f7565b60208260ff1611156137355760405162461bcd60e51b815260206004820152603a60248201527f54797065644d656d566965772f696e646578202d20417474656d70746564207460448201527f6f20696e646578206d6f7265207468616e2033322062797465730000000000006064820152608401610a4d565b600882025f61374d8660781c6001600160601b031690565b6001600160601b031690505f600160ff1b5f1984011d91909501511695945050505050565b5f610b5162ffffff1983166101106020613560565b5f610b5162ffffff19831660086004613560565b5f610b5162ffffff1983166010602061361c565b5f610b5162ffffff19831660d0602061361c565b5f610b5162ffffff1983166090602061361c565b5f826001600160a01b0316826001600160a01b0316036137f95750600161139f565b6001600160a01b038481165f9081525f516020615da45f395f51905f52602090815260408083208785168452825280832093861683529290529081205460ff169081600281111561384c5761384c6155b7565b141595945050505050565b5f610b5162ffffff19831660046020613560565b5f610b5162ffffff19831660246020613560565b5f5f5f61388a611e4c565b6001600160a01b038088165f90815260208381526040808320938a16835292905220549091506138bb908590615b95565b6001600160a01b038088165f9081526001840160209081526040808320938a16835292905220549093506138f09085906155df565b6001600160a01b039687165f8181526020848152604080832099909a168083529881528982208790559181526001909301815287832096835295909552949094208390559391925050565b5f600460ff168251101561396e578151604051631743c8a560e31b81526004808201526024810191909152604401610a4d565b5f61397983826143b8565b90505f61398e62ffffff19831682600461361c565b9050637c7a821f60e11b6001600160e01b03198216016139cc576139c563070afbc25b60d81b6301000000600160d81b0384161790565b92506128e1565b631666dc6560e01b6001600160e01b03198216016139f1576139c563e999239b6139b1565b60405163319b52eb60e11b81526001600160e01b031982166004820152602401610a4d565b5f5f613a2183613551565b905060085f63ffffffff83166001600160401b03811115613a4457613a4461510f565b604051908082528060200260200182016040528015613a6d578160200160208202803683370190505b5090505f5b8363ffffffff168163ffffffff161015613b1a575f613aa4613a956044866155df565b62ffffff198916906004613560565b90505f613ab2826048615af4565b63ffffffff1690505f613ad162ffffff198a16878463070afbc261358f565b9050613adc81613b9e565b858563ffffffff1681518110613af457613af46155f2565b6020908102919091010152613b0982876155df565b95505060019092019150613a729050565b506040517fe30760cf7d79e3521ad1553a73a6c6f8d33226ea613eaa29ceda6de148fbd07a90613b4e908390602001615ba8565b60405160208183030381529060405280519060200120604051602001613b7e929190918252602082015260400190565b604051602081830303815290604052805190602001209350505050919050565b5f5f613ba983613857565b90505f613bb58461386b565b90505f613bc1856128e8565b90505f613bcd826143d2565b604080517f8b99d17a83a2dd1add9fc2a450e22732c7e8564aa110ab99c20485a7a10ba37c81526020810196909652850193909352505060608201526080902092915050565b613c1b612fad565b610f98614498565b806001600160a01b03163b5f03613c4f5780604051634c9c8ce360e01b8152600401610a4d9190615045565b5f516020615d845f395f51905f5280546001600160a01b0319166001600160a01b0392909216919091179055565b60605f5f846001600160a01b031684604051613c999190615bdd565b5f60405180830381855af49150503d805f8114613cd1576040519150601f19603f3d011682016040523d82523d5f602084013e613cd6565b606091505b5091509150613ce68583836144b8565b95945050505050565b3415610f985760405163b398979f60e01b815260040160405180910390fd5b606063ffffffff801682511115613d4857815160405163e68e72a160e01b8152600481019190915263ffffffff6024820152604401610a4d565b8151604051613d6591899189918991899189918990602001615be8565b60405160208183030381529060405290509695505050505050565b5f5f5f8351604103613db7576020840151604085015160608601515f1a613da98882858561450b565b955095509550505050613dc2565b505081515f91506002905b9250925092565b5f826003811115613ddc57613ddc6155b7565b03613de5575050565b6001826003811115613df957613df96155b7565b03613e175760405163f645eedf60e01b815260040160405180910390fd5b6002826003811115613e2b57613e2b6155b7565b03613e4c5760405163fce698f760e01b815260048101829052602401610a4d565b6003826003811115613e6057613e606155b7565b036111cd576040516335e2f38360e21b815260048101829052602401610a4d565b5f610b51613e8d611bfc565b8360405161190160f01b8152600281019290925260228201526042902090565b5f808080805b8760800151613fd45787606001519250613ecc88612804565b93505f613ede62ffffff1986166128e8565b90505f613eec828a8761296f565b905080613efa575050613eb3565b613f2486898763ffffffff1681518110613f1657613f166155f2565b602002602001015187612b44565b5f613f376117e262ffffff198516612bd5565b90506001600160a01b038816613f4f57809750613f81565b876001600160a01b0316816001600160a01b031614613f81576040516307897d0f60e31b815260040160405180910390fd5b5f5f613fad858d8d8b63ffffffff1681518110613fa057613fa06155f2565b60200260200101516145c9565b9092509050613fbc82876155df565b9550613fc881886155df565b96505050505050613eb3565b805f03613ff4576040516316c45d7f60e01b815260040160405180910390fd5b614010613fff611011565b6001600160a01b03871690846132ac565b6001600160a01b0385166342966c686140298484615b95565b6040518263ffffffff1660e01b815260040161404791815260200190565b5f604051808303815f87803b15801561405e575f5ffd5b505af1158015611574573d5f5f3e3d5ffd5b6008601882901c6001600160601b031610156140b557604051637c087ac560e11b815260086004820152601882901c6001600160601b03166024820152604401610a4d565b5f6140bf82613551565b905060085f5b8263ffffffff168163ffffffff161015614270575f6140e56048846155df565b9050601885901c6001600160601b031681111561413757604051631f7a270f60e31b815263ffffffff83166004820152601886901c6001600160601b0316602482015260448101829052606401610a4d565b5f6141556141466044866155df565b62ffffff198816906004613560565b90505f614163826048615af4565b63ffffffff1690505f61417682876155df565b9050601888901c6001600160601b03168111156141c857604051631014f32560e31b815263ffffffff86166004820152601889901c6001600160601b0316602482015260448101829052606401610a4d565b5f6141e56141d682896155df565b62ffffff198b1690600461361c565b90506001600160e01b031981166303857de160e11b14614230576040516312b22cbd60e01b815263ffffffff871660048201526001600160e01b031982166024820152604401610a4d565b5f61424762ffffff198b16898663070afbc261358f565b9050614252816142b4565b61425c84896155df565b975050600190950194506140c59350505050565b50601883901c6001600160601b0316811461238057604051633c99ab2560e21b815260048101829052601884901c6001600160601b03166024820152604401610a4d565b6142bd81614790565b5f6142c7826128e8565b90506111cd81614838565b5f6142e68260181c6001600160601b031690565b6142f98360781c6001600160601b031690565b016001600160601b03169050919050565b5f8061431683856155df565b905060405181111561432557505f5b805f036143395762ffffff1991505061139f565b5050606092831b9190911790911b1760181b90565b60605f61435a8661491e565b9150505f6143678661491e565b9150505f6143748661491e565b9150505f6143818661491e565b9150508383838360405160200161439b9493929190615c23565b604051602081830303815290604052945050505050949350505050565b81515f9060208401613ce664ffffffffff8516828461430a565b5f5f6143dd83613551565b90505f6143e984613787565b90505f6143f5856149c6565b90505f61440f614404876149da565b62ffffff1916614a75565b90505f61442a607888901c6001600160601b03166010615d22565b90505f6144396020600a615d41565b90506040517f44409c7ba8872720f5fc290d2788c2d70a3905b7ca1cdb2ffa152791a69e089b81528660208201528560408201528460608201528160808201838560045afa506101c081019390935250506101e0902095945050505050565b6144a0612fad565b5f516020615de45f395f51905f52805460ff19169055565b6060826144cd576144c882614abc565b61139f565b81511580156144e457506001600160a01b0384163b155b156145045783604051639996b31560e01b8152600401610a4d9190615045565b508061139f565b5f80806fa2a8918ca85bafe22016d0b997e4df60600160ff1b0384111561453a57505f915060039050826145bf565b604080515f808252602082018084528a905260ff891692820192909252606081018790526080810186905260019060a0016020604051602081039080840390855afa15801561458b573d5f5f3e3d5ffd5b5050604051601f1901519150506001600160a01b0381166145b657505f9250600191508290506145bf565b92505f91508190505b9450945094915050565b5f806145e26145dd62ffffff198716614ae5565b614af5565b5f6145f56117e262ffffff198816612bd5565b90505f61460a6117e262ffffff1989166137c3565b90505f61461c62ffffff198916613772565b90505f80614634858561462f8b876155df565b614b28565b909250905061464381836155df565b965061464f88846155df565b8710156146ae576001600160a01b038085169086167f5fab62745de032ad35a05146c51710fd80871be06cb193722c40f011df352f0c61468f8b876155df565b6040805191825260208201879052810185905260600160405180910390a35b8287116146bd575f95506146ca565b6146c78388615b95565b95505b6146d962ffffff198b16614ae5565b846001600160a01b0316866001600160a01b03167f12ee2719e7e2dec9f2a0041286b66669153dff0d36719f692b8bbaa4dfe0aa8761471d8e62ffffff19166149c6565b61472c8f62ffffff1916614c8a565b8e6147378d8f615b95565b6040805163ffffffff95909516855260208501939093526001600160a01b0391909116838301526060830152608082018c905260a0820188905260c08201879052519081900360e00190a450505050505b935093915050565b6048601882901c6001600160601b031610156147d55760405163161e118160e31b815260486004820152601882901c6001600160601b03166024820152604401610a4d565b5f6147df82613608565b90505f6147ed826048615af4565b63ffffffff169050601883901c6001600160601b03168114612380576040516316279d8b60e21b815260048101829052601884901c6001600160601b03166024820152604401610a4d565b610154601882901c6001600160601b0316101561487f57604051631cd8e33f60e11b81526101546004820152601882901c6001600160601b03166024820152604401610a4d565b5f61488982613551565b905063ffffffff81166001146148ba57604051633665681760e11b815263ffffffff82166004820152602401610a4d565b5f6148c483614c9e565b90505f6148d382610154615af4565b63ffffffff169050601884901c6001600160601b03168114610c6a57604051633df4634560e01b815260048101829052601885901c6001600160601b03166024820152604401610a4d565b5f80601f5b600f8160ff161115614970575f61493b826008615b79565b60ff1685901c905061494c81614cb3565b61ffff16841793508160ff1660101461496757601084901b93505b505f1901614923565b50600f5b60ff8160ff1610156149c0575f61498c826008615b79565b60ff1685901c905061499d81614cb3565b61ffff16831792508160ff165f146149b757601083901b92505b505f1901614974565b50915091565b5f610b5162ffffff198316600c6004613560565b5f5f6149e583614c9e565b90505f63ffffffff821615614a1957614a1262ffffff19851661015463ffffffff808616905f9061358f16565b9050614a30565b614a2d62ffffff1985166101545f8061358f565b90505b630100000062ffffff1982160161139f57604051631cbe4a2360e11b815263ffffffff83166004820152601885901c6001600160601b03166024820152604401610a4d565b5f5f614a8a8360781c6001600160601b031690565b6001600160601b031690505f614aa98460181c6001600160601b031690565b6001600160601b03169091209392505050565b805115614acc5780518082602001fd5b60405163d6bda27560e01b815260040160405180910390fd5b5f610b5162ffffff198316614a75565b614afe81614ce4565b610e4d815f9081525f516020615d645f395f51905f5260205260409020805460ff19166001179055565b5f5f5f614b33611e4c565b6001600160a01b038088165f90815260208381526040808320938a168352929052205490915084808210614ba8576001600160a01b038089165f90815260208581526040808320938b1683529290529081208054839290614b95908490615b95565b909155509094505f935061478892505050565b6001600160a01b038089165f90815260208581526040808320938b16835292905290812055614bd78282615b95565b6001600160a01b03808a165f9081526001860160209081526040808320938c1683529290522054909150818110614c53576001600160a01b03808a165f9081526001860160209081526040808320938c1683529290529081208054849290614c40908490615b95565b9091555092955090935061478892505050565b6001600160a01b039889165f9081526001949094016020908152604080862099909a16855297909752509581205550929391925050565b5f610b5162ffffff19831660b0602061361c565b5f610b5162ffffff1983166101506004613560565b5f614cc460048360ff16901c614d22565b60ff1661ffff919091161760081b614cdb82614d22565b60ff1617919050565b5f8181525f516020615d645f395f51905f52602052604090205460ff1615610e4d57604051630b06514960e11b815260048101829052602401610a4d565b6040805180820190915260108082526f181899199a1a9b1b9c1cb0b131b232b360811b60208301525f91600f84169182908110614d6157614d616155f2565b016020015160f81c9392505050565b80356001600160a01b0381168114613521575f5ffd5b5f5f60408385031215614d97575f5ffd5b614da083614d70565b946020939093013593505050565b5f5f60408385031215614dbf575f5ffd5b614dc883614d70565b9150614dd660208401614d70565b90509250929050565b5f5f83601f840112614def575f5ffd5b5081356001600160401b03811115614e05575f5ffd5b6020830191508360208260051b8501011115614e1f575f5ffd5b9250929050565b803563ffffffff81168114613521575f5ffd5b5f5f5f5f5f5f5f5f5f6101008a8c031215614e52575f5ffd5b614e5b8a614d70565b9850614e6960208b01614d70565b9750614e7760408b01614d70565b965060608a01356001600160401b03811115614e91575f5ffd5b614e9d8c828d01614ddf565b9097509550614eb0905060808b01614e26565b935060a08a01359250614ec560c08b01614d70565b9150614ed360e08b01614d70565b90509295985092959850929598565b5f60208284031215614ef2575f5ffd5b5035919050565b5f5f83601f840112614f09575f5ffd5b5081356001600160401b03811115614f1f575f5ffd5b602083019150836020828501011115614e1f575f5ffd5b5f5f5f5f5f5f60a08789031215614f4b575f5ffd5b614f5487614d70565b9550614f6260208801614d70565b9450604087013593506060870135925060808701356001600160401b03811115614f8a575f5ffd5b614f9689828a01614ef9565b979a9699509497509295939492505050565b5f60208284031215614fb8575f5ffd5b61139f82614d70565b5f5f5f5f5f5f5f5f60e0898b031215614fd8575f5ffd5b614fe189614d70565b9750614fef60208a01614d70565b965060408901359550606089013594506080890135935060a0890135925060c08901356001600160401b03811115615025575f5ffd5b6150318b828c01614ef9565b999c989b5096995094979396929594505050565b6001600160a01b0391909116815260200190565b5f5f5f5f6040858703121561506c575f5ffd5b84356001600160401b03811115615081575f5ffd5b61508d87828801614ddf565b90955093505060208501356001600160401b038111156150ab575f5ffd5b6150b787828801614ddf565b95989497509550505050565b5f8151808452602084019350602083015f5b828110156150f35781518652602095860195909101906001016150d5565b5093949350505050565b602081525f61139f60208301846150c3565b634e487b7160e01b5f52604160045260245ffd5b604051606081016001600160401b03811182821017156151455761514561510f565b60405290565b6040516101c081016001600160401b03811182821017156151455761514561510f565b604051601f8201601f191681016001600160401b03811182821017156151965761519661510f565b604052919050565b5f82601f8301126151ad575f5ffd5b81356001600160401b038111156151c6576151c661510f565b6151d9601f8201601f191660200161516e565b8181528460208386010111156151ed575f5ffd5b816020850160208301375f918101602001919091529392505050565b5f5f6040838503121561521a575f5ffd5b61522383614d70565b915060208301356001600160401b0381111561523d575f5ffd5b6152498582860161519e565b9150509250929050565b5f5f5f60608486031215615265575f5ffd5b61526e84614d70565b925061527c60208501614d70565b915061528a60408501614d70565b90509250925092565b5f602082840312156152a3575f5ffd5b81356001600160401b038111156152b8575f5ffd5b82016060818503121561139f575f5ffd5b5f81518084528060208401602086015e5f602082860101526020601f19601f83011685010191505092915050565b602081525f61139f60208301846152c9565b60ff60f81b8816815260e060208201525f61532760e08301896152c9565b828103604084015261533981896152c9565b606084018890526001600160a01b038716608085015260a0840186905283810360c0850152905061536a81856150c3565b9a9950505050505050505050565b803560ff81168114613521575f5ffd5b5f5f5f5f5f5f5f5f5f6101208a8c0312156153a1575f5ffd5b6153aa8a614d70565b98506153b860208b01614d70565b975060408a0135965060608a0135955060808a0135945060a08a013593506153e260c08b01615378565b989b979a50959894979396929550929360e081013593506101000135919050565b5f5f5f5f60408587031215615416575f5ffd5b84356001600160401b0381111561542b575f5ffd5b61543787828801614ef9565b90955093505060208501356001600160401b03811115615455575f5ffd5b6150b787828801614ef9565b5f5f5f5f5f5f5f60e0888a031215615477575f5ffd5b61548088614d70565b965061548e60208901614d70565b955060408801359450606088013593506154aa60808901615378565b9699959850939692959460a0840135945060c09093013592915050565b5f5f5f604084860312156154d9575f5ffd5b83356001600160401b038111156154ee575f5ffd5b6154fa86828701614ef9565b909450925061528a905060208501614d70565b5f5f5f6060848603121561551f575f5ffd5b61552884614d70565b925061553660208501614d70565b929592945050506040919091013590565b5f5f60208385031215615558575f5ffd5b82356001600160401b0381111561556d575f5ffd5b61557985828601614ef9565b90969095509350505050565b5f5f60208385031215615596575f5ffd5b82356001600160401b038111156155ab575f5ffd5b61557985828601614ddf565b634e487b7160e01b5f52602160045260245ffd5b634e487b7160e01b5f52601160045260245ffd5b80820180821115610b5157610b516155cb565b634e487b7160e01b5f52603260045260245ffd5b5f60608284031215615616575f5ffd5b61561e615123565b8235815260208084013590820152905060408201356001600160401b03811115615646575f5ffd5b82016101c08185031215615658575f5ffd5b61566061514b565b61566982614e26565b815261567760208301614e26565b602082015261568860408301614e26565b6040820152606082810135908201526080808301359082015260a0808301359082015260c0808301359082015260e08083013590820152610100808301359082015261012080830135908201526101408083013590820152610160808301359082015261018080830135908201526101a08201356001600160401b0381111561570f575f5ffd5b61571b8682850161519e565b6101a08301525060408301525092915050565b5f610b513683615606565b928352602083019190915260f81b6001600160f81b031916604082015260410190565b5f6001600160401b038211156157745761577461510f565b5060051b60200190565b5f82601f83011261578d575f5ffd5b81356157a061579b8261575c565b61516e565b8082825260208201915060208360051b8601019250858311156157c1575f5ffd5b602085015b838110156111a85780356001600160401b038111156157e3575f5ffd5b6157f2886020838a010161519e565b845250602092830192016157c6565b5f5f5f60608486031215615813575f5ffd5b83356001600160401b03811115615828575f5ffd5b6158348682870161577e565b93505060208401356001600160401b0381111561584f575f5ffd5b61585b8682870161577e565b92505060408401356001600160401b03811115615876575f5ffd5b8401601f81018613615886575f5ffd5b803561589461579b8261575c565b8082825260208201915060208360051b8501019250888311156158b5575f5ffd5b602084015b838110156159525780356001600160401b038111156158d7575f5ffd5b8501603f81018b136158e7575f5ffd5b60208101356158f861579b8261575c565b808282526020820191506020808460051b8601010192508d83111561591b575f5ffd5b6040840193505b8284101561593d578335825260209384019390910190615922565b865250506020938401939190910190506158ba565b50809450505050509250925092565b63ffffffff8281168282160390811115610b5157610b516155cb565b5f61598a61579b8461575c565b8381526020810190600585901b8401368111156159a5575f5ffd5b845b818110156159df5780356001600160401b038111156159c4575f5ffd5b6159d036828901615606565b855250602093840193016159a7565b509095945050505050565b6001600160a01b03868116825285166020820152604081018490526060810183905260a0608082018190525f90615a23908301846152c9565b979650505050505050565b6001600160a01b0388811682528716602082015260408101869052606081018590526080810184905260a0810183905260e060c082018190525f90615a75908301846152c9565b9998505050505050505050565b5f60208284031215615a92575f5ffd5b5051919050565b5f81518060208401855e5f93019283525090919050565b6001600160e01b03198681168252600482018690526024820185905260e084901b1660448201525f615a236048830184615a99565b818382375f9101908152919050565b63ffffffff8181168382160190811115610b5157610b516155cb565b5f63ffffffff821663ffffffff8103615b2b57615b2b6155cb565b60010192915050565b5f60018201615b4557615b456155cb565b5060010190565b5f610dc1615b5a8386615a99565b84615a99565b60ff8281168282160390811115610b5157610b516155cb565b60ff8181168382160290811690818114610f2657610f266155cb565b81810381811115610b5157610b516155cb565b81515f90829060208501835b82811015615bd2578151845260209384019390910190600101615bb4565b509195945050505050565b5f61139f8284615a99565b87815286602082015285604082015284606082015283608082015263ffffffff60e01b8360e01b1660a08201525f615a7560a4830184615a99565b7f54797065644d656d566965772f696e646578202d204f76657272616e20746865815274040ecd2caee5c40a6d8d2c6ca40d2e640c2e84060f605b1b602082015260d085811b6001600160d01b031990811660358401526e040eed2e8d040d8cadccee8d04060f608b1b603b84015285821b8116604a8401527f2e20417474656d7074656420746f20696e646578206174206f666673657420306050840152600f60fb1b60708401529084901b1660718201525f615cf9607783016e040eed2e8d040d8cadccee8d04060f608b1b8152600f0190565b615d0f818560d01b6001600160d01b0319169052565b601760f91b600682015260078101615a23565b6001600160601b038181168382160190811115610b5157610b516155cb565b6001600160601b038181168382160290811690818114610f2657610f266155cb56fe20b6f2ac2ef95221991caf3be38efadb0bb1d3093c65d3a8c962def8d652ee00360894a13ba1a3210667c828492db98dca3e2076cc3735a920a3ca505d382bbcbcbbce9c37b75586602042f686570dadc3d32ddb14a687daffcfefad2ac57b008752a472e571a816aea92eec8dae9baf628e840f4929fbcc2d155e6233ff68a7cd5ed15c6e187e77e9aee88184c21f4f2182ab5827cb3b7e07fbedcd63f03300fe4c86d7e89d95779292c8077b542f271e850fa895928d0b7b19a0ae50865c00237e158222e3e6968b72b9db0d8043aacf074ad9f650f0d1606b4d82ee432c00a2646970667358221220a63caf35f47d73b0805ba25570e978711cbc39298618057f8739b65dc312876264736f6c634300081d0033","linkReferences":{}},"methodIdentifiers":{"EIP712_DOMAIN_TYPE_HASH()":"b727b579","UPGRADE_INTERFACE_VERSION()":"ad3cb1cc","acceptOwnership()":"79ba5097","addDelegate(address,address)":"e909ebfa","addSupportedToken(address)":"6d69fcaf","availableBalance(address,address)":"3ccb64ae","balanceOf(address,uint256)":"00fdd58e","balanceOfBatch(address[],uint256[])":"4e1273f4","burnSigner()":"4fec8792","denylist(address)":"3371bfff","denylister()":"bcc76c60","deposit(address,uint256)":"47e7ef24","depositWithAuthorization(address,address,uint256,uint256,uint256,bytes32,bytes)":"438d4835","depositWithAuthorization(address,address,uint256,uint256,uint256,bytes32,uint8,bytes32,bytes32)":"8a94d4fc","depositWithPermit(address,address,uint256,uint256,bytes)":"26a3fb30","depositWithPermit(address,address,uint256,uint256,uint8,bytes32,bytes32)":"8ef59739","domain()":"c2fb26a6","domainSeparator()":"f698da25","eip712Domain()":"84b0196e","encodeBurnIntent((uint256,uint256,(uint32,uint32,uint32,bytes32,bytes32,bytes32,bytes32,bytes32,bytes32,bytes32,bytes32,uint256,bytes32,bytes)))":"772b4625","encodeBurnIntents((uint256,uint256,(uint32,uint32,uint32,bytes32,bytes32,bytes32,bytes32,bytes32,bytes32,bytes32,bytes32,uint256,bytes32,bytes))[])":"fafb8e5a","feeRecipient()":"46904840","gatewayBurn(bytes,bytes)":"8ec3dbb9","getTypedDataHash(bytes)":"dc4aa513","initialize(address,address,address,address[],uint32,uint256,address,address)":"056a38d6","initiateWithdrawal(address,address,uint256)":"d6d344a1","initiateWithdrawal(address,uint256)":"c8393ba9","isAuthorizedForBalance(address,address,address)":"74392bf3","isDenylisted(address)":"e877a526","isTokenSupported(address)":"75151b63","isTransferSpecHashUsed(bytes32)":"17580158","minterContract()":"92f00233","owner()":"8da5cb5b","pause()":"8456cb59","paused()":"5c975abb","pauser()":"9fd0506d","pendingOwner()":"e30c3978","proxiableUUID()":"52d1902d","removeDelegate(address,address)":"020d308d","renounceOwnership()":"715018a6","totalBalance(address,address)":"1453b987","transferOwnership(address)":"f2fde38b","unDenylist(address)":"9cab0c1c","unpause()":"3f4ba83a","updateBurnSigner(address)":"bb9354af","updateCounterpart(address)":"28fa1d20","updateDenylister(address)":"a946de04","updateFeeRecipient(address)":"f160d369","updatePauser(address)":"554bab3c","updateWithdrawalDelay(uint256)":"52cd67e9","upgradeToAndCall(address,bytes)":"4f1ef286","validateBurnIntents(bytes,address)":"a5ba11a2","withdraw(address)":"51cff8d9","withdraw(address,address,address)":"ff7885e8","withdrawableBalance(address,address)":"3bbe1ecd","withdrawalBlock(address,address)":"fefeec13","withdrawalDelay()":"a7ab6961","withdrawingBalance(address,address)":"df0c6690"},"id":30}