{"abi":[{"type":"constructor","inputs":[],"stateMutability":"nonpayable"},{"type":"function","name":"UPGRADE_INTERFACE_VERSION","inputs":[],"outputs":[{"name":"","type":"string","internalType":"string"}],"stateMutability":"view"},{"type":"function","name":"acceptOwnership","inputs":[],"outputs":[],"stateMutability":"nonpayable"},{"type":"function","name":"addDelegate","inputs":[{"name":"token","type":"address","internalType":"address"},{"name":"delegate","type":"address","internalType":"address"}],"outputs":[],"stateMutability":"nonpayable"},{"type":"function","name":"addSupportedToken","inputs":[{"name":"token","type":"address","internalType":"address"}],"outputs":[],"stateMutability":"nonpayable"},{"type":"function","name":"availableBalance","inputs":[{"name":"token","type":"address","internalType":"address"},{"name":"depositor","type":"address","internalType":"address"}],"outputs":[{"name":"","type":"uint256","internalType":"uint256"}],"stateMutability":"view"},{"type":"function","name":"balanceOf","inputs":[{"name":"depositor","type":"address","internalType":"address"},{"name":"id","type":"uint256","internalType":"uint256"}],"outputs":[{"name":"","type":"uint256","internalType":"uint256"}],"stateMutability":"view"},{"type":"function","name":"balanceOfBatch","inputs":[{"name":"depositors","type":"address[]","internalType":"address[]"},{"name":"ids","type":"uint256[]","internalType":"uint256[]"}],"outputs":[{"name":"","type":"uint256[]","internalType":"uint256[]"}],"stateMutability":"view"},{"type":"function","name":"burnSigner","inputs":[],"outputs":[{"name":"","type":"address","internalType":"address"}],"stateMutability":"view"},{"type":"function","name":"denylist","inputs":[{"name":"addr","type":"address","internalType":"address"}],"outputs":[],"stateMutability":"nonpayable"},{"type":"function","name":"denylister","inputs":[],"outputs":[{"name":"","type":"address","internalType":"address"}],"stateMutability":"view"},{"type":"function","name":"deposit","inputs":[{"name":"token","type":"address","internalType":"address"},{"name":"value","type":"uint256","internalType":"uint256"}],"outputs":[],"stateMutability":"nonpayable"},{"type":"function","name":"depositWithAuthorization","inputs":[{"name":"token","type":"address","internalType":"address"},{"name":"from","type":"address","internalType":"address"},{"name":"value","type":"uint256","internalType":"uint256"},{"name":"validAfter","type":"uint256","internalType":"uint256"},{"name":"validBefore","type":"uint256","internalType":"uint256"},{"name":"nonce","type":"bytes32","internalType":"bytes32"},{"name":"signature","type":"bytes","internalType":"bytes"}],"outputs":[],"stateMutability":"nonpayable"},{"type":"function","name":"depositWithAuthorization","inputs":[{"name":"token","type":"address","internalType":"address"},{"name":"from","type":"address","internalType":"address"},{"name":"value","type":"uint256","internalType":"uint256"},{"name":"validAfter","type":"uint256","internalType":"uint256"},{"name":"validBefore","type":"uint256","internalType":"uint256"},{"name":"nonce","type":"bytes32","internalType":"bytes32"},{"name":"v","type":"uint8","internalType":"uint8"},{"name":"r","type":"bytes32","internalType":"bytes32"},{"name":"s","type":"bytes32","internalType":"bytes32"}],"outputs":[],"stateMutability":"nonpayable"},{"type":"function","name":"depositWithPermit","inputs":[{"name":"token","type":"address","internalType":"address"},{"name":"owner","type":"address","internalType":"address"},{"name":"value","type":"uint256","internalType":"uint256"},{"name":"deadline","type":"uint256","internalType":"uint256"},{"name":"signature","type":"bytes","internalType":"bytes"}],"outputs":[],"stateMutability":"nonpayable"},{"type":"function","name":"depositWithPermit","inputs":[{"name":"token","type":"address","internalType":"address"},{"name":"owner","type":"address","internalType":"address"},{"name":"value","type":"uint256","internalType":"uint256"},{"name":"deadline","type":"uint256","internalType":"uint256"},{"name":"v","type":"uint8","internalType":"uint8"},{"name":"r","type":"bytes32","internalType":"bytes32"},{"name":"s","type":"bytes32","internalType":"bytes32"}],"outputs":[],"stateMutability":"nonpayable"},{"type":"function","name":"domain","inputs":[],"outputs":[{"name":"","type":"uint32","internalType":"uint32"}],"stateMutability":"view"},{"type":"function","name":"encodeBurnAuthorization","inputs":[{"name":"authorization","type":"tuple","internalType":"struct BurnAuthorization","components":[{"name":"maxBlockHeight","type":"uint256","internalType":"uint256"},{"name":"maxFee","type":"uint256","internalType":"uint256"},{"name":"spec","type":"tuple","internalType":"struct TransferSpec","components":[{"name":"version","type":"uint32","internalType":"uint32"},{"name":"sourceDomain","type":"uint32","internalType":"uint32"},{"name":"destinationDomain","type":"uint32","internalType":"uint32"},{"name":"sourceContract","type":"bytes32","internalType":"bytes32"},{"name":"destinationContract","type":"bytes32","internalType":"bytes32"},{"name":"sourceToken","type":"bytes32","internalType":"bytes32"},{"name":"destinationToken","type":"bytes32","internalType":"bytes32"},{"name":"sourceDepositor","type":"bytes32","internalType":"bytes32"},{"name":"destinationRecipient","type":"bytes32","internalType":"bytes32"},{"name":"sourceSigner","type":"bytes32","internalType":"bytes32"},{"name":"destinationCaller","type":"bytes32","internalType":"bytes32"},{"name":"value","type":"uint256","internalType":"uint256"},{"name":"nonce","type":"bytes32","internalType":"bytes32"},{"name":"metadata","type":"bytes","internalType":"bytes"}]}]}],"outputs":[{"name":"","type":"bytes","internalType":"bytes"}],"stateMutability":"pure"},{"type":"function","name":"encodeBurnAuthorizations","inputs":[{"name":"authorizations","type":"tuple[]","internalType":"struct BurnAuthorization[]","components":[{"name":"maxBlockHeight","type":"uint256","internalType":"uint256"},{"name":"maxFee","type":"uint256","internalType":"uint256"},{"name":"spec","type":"tuple","internalType":"struct TransferSpec","components":[{"name":"version","type":"uint32","internalType":"uint32"},{"name":"sourceDomain","type":"uint32","internalType":"uint32"},{"name":"destinationDomain","type":"uint32","internalType":"uint32"},{"name":"sourceContract","type":"bytes32","internalType":"bytes32"},{"name":"destinationContract","type":"bytes32","internalType":"bytes32"},{"name":"sourceToken","type":"bytes32","internalType":"bytes32"},{"name":"destinationToken","type":"bytes32","internalType":"bytes32"},{"name":"sourceDepositor","type":"bytes32","internalType":"bytes32"},{"name":"destinationRecipient","type":"bytes32","internalType":"bytes32"},{"name":"sourceSigner","type":"bytes32","internalType":"bytes32"},{"name":"destinationCaller","type":"bytes32","internalType":"bytes32"},{"name":"value","type":"uint256","internalType":"uint256"},{"name":"nonce","type":"bytes32","internalType":"bytes32"},{"name":"metadata","type":"bytes","internalType":"bytes"}]}]}],"outputs":[{"name":"","type":"bytes","internalType":"bytes"}],"stateMutability":"pure"},{"type":"function","name":"feeRecipient","inputs":[],"outputs":[{"name":"","type":"address","internalType":"address"}],"stateMutability":"view"},{"type":"function","name":"gatewayBurn","inputs":[{"name":"authorizations","type":"bytes[]","internalType":"bytes[]"},{"name":"signatures","type":"bytes[]","internalType":"bytes[]"},{"name":"fees","type":"uint256[][]","internalType":"uint256[][]"},{"name":"burnerSignature","type":"bytes","internalType":"bytes"}],"outputs":[],"stateMutability":"nonpayable"},{"type":"function","name":"initialize","inputs":[{"name":"pauser_","type":"address","internalType":"address"},{"name":"denylister_","type":"address","internalType":"address"},{"name":"minter_","type":"address","internalType":"address"},{"name":"supportedTokens_","type":"address[]","internalType":"address[]"},{"name":"domain_","type":"uint32","internalType":"uint32"},{"name":"withdrawalDelay_","type":"uint256","internalType":"uint256"},{"name":"burnSigner_","type":"address","internalType":"address"},{"name":"feeRecipient_","type":"address","internalType":"address"}],"outputs":[],"stateMutability":"nonpayable"},{"type":"function","name":"initiateWithdrawal","inputs":[{"name":"token","type":"address","internalType":"address"},{"name":"value","type":"uint256","internalType":"uint256"}],"outputs":[],"stateMutability":"nonpayable"},{"type":"function","name":"initiateWithdrawal","inputs":[{"name":"token","type":"address","internalType":"address"},{"name":"depositor","type":"address","internalType":"address"},{"name":"value","type":"uint256","internalType":"uint256"}],"outputs":[],"stateMutability":"nonpayable"},{"type":"function","name":"isAuthorizedForBalance","inputs":[{"name":"token","type":"address","internalType":"address"},{"name":"depositor","type":"address","internalType":"address"},{"name":"addr","type":"address","internalType":"address"}],"outputs":[{"name":"","type":"bool","internalType":"bool"}],"stateMutability":"view"},{"type":"function","name":"isDenylisted","inputs":[{"name":"addr","type":"address","internalType":"address"}],"outputs":[{"name":"","type":"bool","internalType":"bool"}],"stateMutability":"view"},{"type":"function","name":"isTokenSupported","inputs":[{"name":"token","type":"address","internalType":"address"}],"outputs":[{"name":"","type":"bool","internalType":"bool"}],"stateMutability":"view"},{"type":"function","name":"minterContract","inputs":[],"outputs":[{"name":"","type":"address","internalType":"contract GatewayMinter"}],"stateMutability":"view"},{"type":"function","name":"owner","inputs":[],"outputs":[{"name":"","type":"address","internalType":"address"}],"stateMutability":"view"},{"type":"function","name":"pause","inputs":[],"outputs":[],"stateMutability":"nonpayable"},{"type":"function","name":"paused","inputs":[],"outputs":[{"name":"","type":"bool","internalType":"bool"}],"stateMutability":"view"},{"type":"function","name":"pauser","inputs":[],"outputs":[{"name":"","type":"address","internalType":"address"}],"stateMutability":"view"},{"type":"function","name":"pendingOwner","inputs":[],"outputs":[{"name":"","type":"address","internalType":"address"}],"stateMutability":"view"},{"type":"function","name":"proxiableUUID","inputs":[],"outputs":[{"name":"","type":"bytes32","internalType":"bytes32"}],"stateMutability":"view"},{"type":"function","name":"removeDelegate","inputs":[{"name":"token","type":"address","internalType":"address"},{"name":"delegate","type":"address","internalType":"address"}],"outputs":[],"stateMutability":"nonpayable"},{"type":"function","name":"renounceOwnership","inputs":[],"outputs":[],"stateMutability":"nonpayable"},{"type":"function","name":"totalBalance","inputs":[{"name":"token","type":"address","internalType":"address"},{"name":"depositor","type":"address","internalType":"address"}],"outputs":[{"name":"","type":"uint256","internalType":"uint256"}],"stateMutability":"view"},{"type":"function","name":"transferOwnership","inputs":[{"name":"newOwner","type":"address","internalType":"address"}],"outputs":[],"stateMutability":"nonpayable"},{"type":"function","name":"transferSpecHashUsed","inputs":[{"name":"transferSpecHash","type":"bytes32","internalType":"bytes32"}],"outputs":[{"name":"","type":"bool","internalType":"bool"}],"stateMutability":"view"},{"type":"function","name":"unDenylist","inputs":[{"name":"addr","type":"address","internalType":"address"}],"outputs":[],"stateMutability":"nonpayable"},{"type":"function","name":"unpause","inputs":[],"outputs":[],"stateMutability":"nonpayable"},{"type":"function","name":"updateBurnSigner","inputs":[{"name":"newBurnSigner","type":"address","internalType":"address"}],"outputs":[],"stateMutability":"nonpayable"},{"type":"function","name":"updateCounterpart","inputs":[{"name":"newCounterpart","type":"address","internalType":"address"}],"outputs":[],"stateMutability":"nonpayable"},{"type":"function","name":"updateDenylister","inputs":[{"name":"newDenylister","type":"address","internalType":"address"}],"outputs":[],"stateMutability":"nonpayable"},{"type":"function","name":"updateFeeRecipient","inputs":[{"name":"newFeeRecipient","type":"address","internalType":"address"}],"outputs":[],"stateMutability":"nonpayable"},{"type":"function","name":"updatePauser","inputs":[{"name":"newPauser","type":"address","internalType":"address"}],"outputs":[],"stateMutability":"nonpayable"},{"type":"function","name":"updateWithdrawalDelay","inputs":[{"name":"newDelay","type":"uint256","internalType":"uint256"}],"outputs":[],"stateMutability":"nonpayable"},{"type":"function","name":"upgradeToAndCall","inputs":[{"name":"newImplementation","type":"address","internalType":"address"},{"name":"data","type":"bytes","internalType":"bytes"}],"outputs":[],"stateMutability":"payable"},{"type":"function","name":"validateBurnAuthorizations","inputs":[{"name":"authorization","type":"bytes","internalType":"bytes"},{"name":"signer","type":"address","internalType":"address"}],"outputs":[{"name":"","type":"bool","internalType":"bool"}],"stateMutability":"view"},{"type":"function","name":"withdraw","inputs":[{"name":"token","type":"address","internalType":"address"}],"outputs":[],"stateMutability":"nonpayable"},{"type":"function","name":"withdraw","inputs":[{"name":"token","type":"address","internalType":"address"},{"name":"depositor","type":"address","internalType":"address"},{"name":"recipient","type":"address","internalType":"address"}],"outputs":[],"stateMutability":"nonpayable"},{"type":"function","name":"withdrawableBalance","inputs":[{"name":"token","type":"address","internalType":"address"},{"name":"depositor","type":"address","internalType":"address"}],"outputs":[{"name":"","type":"uint256","internalType":"uint256"}],"stateMutability":"view"},{"type":"function","name":"withdrawalBlock","inputs":[{"name":"token","type":"address","internalType":"address"},{"name":"depositor","type":"address","internalType":"address"}],"outputs":[{"name":"","type":"uint256","internalType":"uint256"}],"stateMutability":"view"},{"type":"function","name":"withdrawalDelay","inputs":[],"outputs":[{"name":"","type":"uint256","internalType":"uint256"}],"stateMutability":"view"},{"type":"function","name":"withdrawingBalance","inputs":[{"name":"token","type":"address","internalType":"address"},{"name":"depositor","type":"address","internalType":"address"}],"outputs":[{"name":"","type":"uint256","internalType":"uint256"}],"stateMutability":"view"},{"type":"event","name":"BurnSignerUpdated","inputs":[{"name":"oldBurnSigner","type":"address","indexed":false,"internalType":"address"},{"name":"newBurnSigner","type":"address","indexed":false,"internalType":"address"}],"anonymous":false},{"type":"event","name":"CounterpartUpdated","inputs":[{"name":"newCounterpart","type":"address","indexed":false,"internalType":"address"}],"anonymous":false},{"type":"event","name":"DelegateAdded","inputs":[{"name":"token","type":"address","indexed":true,"internalType":"address"},{"name":"depositor","type":"address","indexed":true,"internalType":"address"},{"name":"delegate","type":"address","indexed":false,"internalType":"address"}],"anonymous":false},{"type":"event","name":"DelegateRemoved","inputs":[{"name":"token","type":"address","indexed":true,"internalType":"address"},{"name":"depositor","type":"address","indexed":true,"internalType":"address"},{"name":"delegate","type":"address","indexed":false,"internalType":"address"}],"anonymous":false},{"type":"event","name":"Denylisted","inputs":[{"name":"addr","type":"address","indexed":true,"internalType":"address"}],"anonymous":false},{"type":"event","name":"DenylisterChanged","inputs":[{"name":"oldDenylister","type":"address","indexed":true,"internalType":"address"},{"name":"newDenylister","type":"address","indexed":true,"internalType":"address"}],"anonymous":false},{"type":"event","name":"Deposited","inputs":[{"name":"token","type":"address","indexed":true,"internalType":"address"},{"name":"depositor","type":"address","indexed":true,"internalType":"address"},{"name":"value","type":"uint256","indexed":false,"internalType":"uint256"}],"anonymous":false},{"type":"event","name":"FeeRecipientUpdated","inputs":[{"name":"oldFeeRecipient","type":"address","indexed":false,"internalType":"address"},{"name":"newFeeRecipient","type":"address","indexed":false,"internalType":"address"}],"anonymous":false},{"type":"event","name":"GatewayBurned","inputs":[{"name":"token","type":"address","indexed":true,"internalType":"address"},{"name":"depositor","type":"address","indexed":true,"internalType":"address"},{"name":"transferSpecHash","type":"bytes32","indexed":true,"internalType":"bytes32"},{"name":"destinationDomain","type":"uint32","indexed":false,"internalType":"uint32"},{"name":"destinationRecipient","type":"bytes32","indexed":false,"internalType":"bytes32"},{"name":"signer","type":"address","indexed":false,"internalType":"address"},{"name":"value","type":"uint256","indexed":false,"internalType":"uint256"},{"name":"fee","type":"uint256","indexed":false,"internalType":"uint256"},{"name":"fromAvailable","type":"uint256","indexed":false,"internalType":"uint256"},{"name":"fromWithdrawing","type":"uint256","indexed":false,"internalType":"uint256"}],"anonymous":false},{"type":"event","name":"Initialized","inputs":[{"name":"version","type":"uint64","indexed":false,"internalType":"uint64"}],"anonymous":false},{"type":"event","name":"InsufficientBalance","inputs":[{"name":"token","type":"address","indexed":true,"internalType":"address"},{"name":"depositor","type":"address","indexed":true,"internalType":"address"},{"name":"value","type":"uint256","indexed":false,"internalType":"uint256"},{"name":"availableBalance","type":"uint256","indexed":false,"internalType":"uint256"},{"name":"withdrawingBalance","type":"uint256","indexed":false,"internalType":"uint256"}],"anonymous":false},{"type":"event","name":"OwnershipTransferStarted","inputs":[{"name":"previousOwner","type":"address","indexed":true,"internalType":"address"},{"name":"newOwner","type":"address","indexed":true,"internalType":"address"}],"anonymous":false},{"type":"event","name":"OwnershipTransferred","inputs":[{"name":"previousOwner","type":"address","indexed":true,"internalType":"address"},{"name":"newOwner","type":"address","indexed":true,"internalType":"address"}],"anonymous":false},{"type":"event","name":"Paused","inputs":[{"name":"account","type":"address","indexed":false,"internalType":"address"}],"anonymous":false},{"type":"event","name":"PauserUpdated","inputs":[{"name":"newPauser","type":"address","indexed":false,"internalType":"address"}],"anonymous":false},{"type":"event","name":"TokenSupported","inputs":[{"name":"token","type":"address","indexed":false,"internalType":"address"}],"anonymous":false},{"type":"event","name":"UnDenylisted","inputs":[{"name":"addr","type":"address","indexed":true,"internalType":"address"}],"anonymous":false},{"type":"event","name":"Unpaused","inputs":[{"name":"account","type":"address","indexed":false,"internalType":"address"}],"anonymous":false},{"type":"event","name":"Upgraded","inputs":[{"name":"implementation","type":"address","indexed":true,"internalType":"address"}],"anonymous":false},{"type":"event","name":"WithdrawalCompleted","inputs":[{"name":"token","type":"address","indexed":true,"internalType":"address"},{"name":"depositor","type":"address","indexed":true,"internalType":"address"},{"name":"recipient","type":"address","indexed":true,"internalType":"address"},{"name":"authorizer","type":"address","indexed":false,"internalType":"address"},{"name":"value","type":"uint256","indexed":false,"internalType":"uint256"}],"anonymous":false},{"type":"event","name":"WithdrawalDelayUpdated","inputs":[{"name":"newDelay","type":"uint256","indexed":false,"internalType":"uint256"}],"anonymous":false},{"type":"event","name":"WithdrawalInitiated","inputs":[{"name":"token","type":"address","indexed":true,"internalType":"address"},{"name":"depositor","type":"address","indexed":true,"internalType":"address"},{"name":"authorizer","type":"address","indexed":true,"internalType":"address"},{"name":"value","type":"uint256","indexed":false,"internalType":"uint256"},{"name":"remainingAvailable","type":"uint256","indexed":false,"internalType":"uint256"},{"name":"totalWithdrawing","type":"uint256","indexed":false,"internalType":"uint256"},{"name":"withdrawalBlock","type":"uint256","indexed":false,"internalType":"uint256"}],"anonymous":false},{"type":"error","name":"AccountDenylisted","inputs":[{"name":"addr","type":"address","internalType":"address"}]},{"type":"error","name":"AddressEmptyCode","inputs":[{"name":"target","type":"address","internalType":"address"}]},{"type":"error","name":"AuthorizationDataTooShort","inputs":[{"name":"expectedMinimumLength","type":"uint256","internalType":"uint256"},{"name":"actualLength","type":"uint256","internalType":"uint256"}]},{"type":"error","name":"AuthorizationExpiredAtIndex","inputs":[{"name":"index","type":"uint32","internalType":"uint32"},{"name":"maxBlockHeight","type":"uint256","internalType":"uint256"},{"name":"currentBlock","type":"uint256","internalType":"uint256"}]},{"type":"error","name":"AuthorizationHeaderTooShort","inputs":[{"name":"expectedMinimumLength","type":"uint256","internalType":"uint256"},{"name":"actualLength","type":"uint256","internalType":"uint256"}]},{"type":"error","name":"AuthorizationOverallLengthMismatch","inputs":[{"name":"expectedTotalLength","type":"uint256","internalType":"uint256"},{"name":"actualTotalLength","type":"uint256","internalType":"uint256"}]},{"type":"error","name":"AuthorizationSetElementHeaderTooShort","inputs":[{"name":"index","type":"uint32","internalType":"uint32"},{"name":"actualSetLength","type":"uint256","internalType":"uint256"},{"name":"requiredOffset","type":"uint256","internalType":"uint256"}]},{"type":"error","name":"AuthorizationSetElementTooShort","inputs":[{"name":"index","type":"uint32","internalType":"uint32"},{"name":"actualSetLength","type":"uint256","internalType":"uint256"},{"name":"requiredOffset","type":"uint256","internalType":"uint256"}]},{"type":"error","name":"AuthorizationSetHeaderTooShort","inputs":[{"name":"expectedMinimumLength","type":"uint256","internalType":"uint256"},{"name":"actualLength","type":"uint256","internalType":"uint256"}]},{"type":"error","name":"AuthorizationSetInvalidElementMagic","inputs":[{"name":"index","type":"uint32","internalType":"uint32"},{"name":"actualMagic","type":"bytes4","internalType":"bytes4"}]},{"type":"error","name":"AuthorizationSetOverallLengthMismatch","inputs":[{"name":"expectedTotalLength","type":"uint256","internalType":"uint256"},{"name":"actualTotalLength","type":"uint256","internalType":"uint256"}]},{"type":"error","name":"AuthorizationSetTooManyElements","inputs":[{"name":"maxElements","type":"uint32","internalType":"uint32"}]},{"type":"error","name":"AuthorizationValueMustBePositiveAtIndex","inputs":[{"name":"index","type":"uint32","internalType":"uint32"}]},{"type":"error","name":"BurnFeeTooHighAtIndex","inputs":[{"name":"index","type":"uint32","internalType":"uint32"},{"name":"maxFee","type":"uint256","internalType":"uint256"},{"name":"actualFee","type":"uint256","internalType":"uint256"}]},{"type":"error","name":"CannotDelegateToSelf","inputs":[]},{"type":"error","name":"CursorOutOfBounds","inputs":[]},{"type":"error","name":"DepositValueMustBePositive","inputs":[]},{"type":"error","name":"ECDSAInvalidSignature","inputs":[]},{"type":"error","name":"ECDSAInvalidSignatureLength","inputs":[{"name":"length","type":"uint256","internalType":"uint256"}]},{"type":"error","name":"ECDSAInvalidSignatureS","inputs":[{"name":"s","type":"bytes32","internalType":"bytes32"}]},{"type":"error","name":"ERC1967InvalidImplementation","inputs":[{"name":"implementation","type":"address","internalType":"address"}]},{"type":"error","name":"ERC1967NonPayable","inputs":[]},{"type":"error","name":"EnforcedPause","inputs":[]},{"type":"error","name":"ExpectedPause","inputs":[]},{"type":"error","name":"FailedCall","inputs":[]},{"type":"error","name":"InputArrayLengthMismatch","inputs":[]},{"type":"error","name":"InvalidAddress","inputs":[]},{"type":"error","name":"InvalidAuthorizationMagic","inputs":[{"name":"actualMagic","type":"bytes4","internalType":"bytes4"}]},{"type":"error","name":"InvalidAuthorizationSourceContractAtIndex","inputs":[{"name":"index","type":"uint32","internalType":"uint32"},{"name":"authContract","type":"address","internalType":"address"},{"name":"expectedContract","type":"address","internalType":"address"}]},{"type":"error","name":"InvalidAuthorizationSourceSignerAtIndex","inputs":[{"name":"index","type":"uint32","internalType":"uint32"},{"name":"authSigner","type":"address","internalType":"address"},{"name":"actualSigner","type":"address","internalType":"address"}]},{"type":"error","name":"InvalidBalanceType","inputs":[{"name":"balanceType","type":"uint96","internalType":"uint96"}]},{"type":"error","name":"InvalidBurnSigner","inputs":[]},{"type":"error","name":"InvalidInitialization","inputs":[]},{"type":"error","name":"InvalidTransferSpecMagic","inputs":[{"name":"actualMagic","type":"bytes4","internalType":"bytes4"}]},{"type":"error","name":"InvalidTransferSpecVersion","inputs":[{"name":"actualVersion","type":"uint32","internalType":"uint32"}]},{"type":"error","name":"MismatchedBurn","inputs":[]},{"type":"error","name":"MustHaveAtLeastOneBurnAuthorization","inputs":[]},{"type":"error","name":"NoRelevantBurnAuthorizations","inputs":[]},{"type":"error","name":"NoWithdrawingBalance","inputs":[]},{"type":"error","name":"NotAllSameToken","inputs":[]},{"type":"error","name":"NotAuthorized","inputs":[]},{"type":"error","name":"NotInitializing","inputs":[]},{"type":"error","name":"OwnableInvalidOwner","inputs":[{"name":"owner","type":"address","internalType":"address"}]},{"type":"error","name":"OwnableUnauthorizedAccount","inputs":[{"name":"account","type":"address","internalType":"address"}]},{"type":"error","name":"SafeERC20FailedOperation","inputs":[{"name":"token","type":"address","internalType":"address"}]},{"type":"error","name":"TransferSpecHashUsed","inputs":[{"name":"transferSpecHash","type":"bytes32","internalType":"bytes32"}]},{"type":"error","name":"TransferSpecHeaderTooShort","inputs":[{"name":"expectedMinimumLength","type":"uint256","internalType":"uint256"},{"name":"actualLength","type":"uint256","internalType":"uint256"}]},{"type":"error","name":"TransferSpecMetadataFieldTooLarge","inputs":[{"name":"actualLength","type":"uint256","internalType":"uint256"},{"name":"maxLength","type":"uint256","internalType":"uint256"}]},{"type":"error","name":"TransferSpecOverallLengthMismatch","inputs":[{"name":"expectedTotalLength","type":"uint256","internalType":"uint256"},{"name":"actualTotalLength","type":"uint256","internalType":"uint256"}]},{"type":"error","name":"UUPSUnauthorizedCallContext","inputs":[]},{"type":"error","name":"UUPSUnsupportedProxiableUUID","inputs":[{"name":"slot","type":"bytes32","internalType":"bytes32"}]},{"type":"error","name":"UnauthorizedDenylister","inputs":[{"name":"addr","type":"address","internalType":"address"}]},{"type":"error","name":"UnauthorizedPauser","inputs":[{"name":"caller","type":"address","internalType":"address"}]},{"type":"error","name":"UnsupportedToken","inputs":[{"name":"token","type":"address","internalType":"address"}]},{"type":"error","name":"UnsupportedTokenAtIndex","inputs":[{"name":"index","type":"uint32","internalType":"uint32"},{"name":"sourceToken","type":"address","internalType":"address"}]},{"type":"error","name":"WithdrawalNotYetAvailable","inputs":[]},{"type":"error","name":"WithdrawalValueExceedsAvailableBalance","inputs":[]},{"type":"error","name":"WithdrawalValueMustBePositive","inputs":[]}],"bytecode":{"object":"0x60a060405230608052348015610013575f5ffd5b5061001c610029565b610024610029565b6100db565b7ff0c57e16840df040f15088dc2f81fe391c3923bec73e23a9662efc9c229c6a00805468010000000000000000900460ff16156100795760405163f92ee8a960e01b815260040160405180910390fd5b80546001600160401b03908116146100d85780546001600160401b0319166001600160401b0390811782556040519081527fc7f505b2f371ae2175ee4913f4499e1f2633a7b5936321eed1cdaeb6115181d29060200160405180910390a15b50565b6080516158c86101015f395f81816128cd015281816128f60152612ab001526158c85ff3fe608060405260043610610326575f3560e01c806374392bf3116101a3578063bb9354af116100f2578063e30c397811610092578063f160d3691161006d578063f160d3691461097a578063f2fde38b14610999578063fefeec13146109b8578063ff7885e8146109d7575f5ffd5b8063e30c397814610928578063e877a5261461093c578063e909ebfa1461095b575f5ffd5b8063c8393ba9116100cd578063c8393ba9146108ac578063d6d344a1146108cb578063da4ab9a4146108ea578063df0c669014610909575f5ffd5b8063bb9354af14610836578063bcc76c6014610855578063c2fb26a614610869575f5ffd5b80638ef597391161015d5780639fd0506d116101385780639fd0506d146107a0578063a7ab6961146107b4578063a946de04146107e7578063ad3cb1cc14610806575f5ffd5b80638ef597391461074e57806392f002331461076d5780639cab0c1c14610781575f5ffd5b806374392bf3146106b557806375151b63146106d457806379ba5097146106f35780638456cb59146107075780638a94d4fc1461071b5780638da5cb5b1461073a575f5ffd5b8063469048401161027957806352d1902d116102195780635c975abb116101f45780635c975abb146106405780636af7921a146106635780636d69fcaf14610682578063715018a6146106a1575f5ffd5b806352d1902d146105c057806353a8ddff146105d4578063554bab3c14610621575f5ffd5b80634f1ef286116102545780634f1ef2861461055b5780634fec87921461056e57806351cff8d91461058257806352cd67e9146105a1575f5ffd5b806346904840146104e457806347e7ef24146105105780634e1273f41461052f575f5ffd5b806328fa1d20116102e45780633bbe1ecd116102bf5780633bbe1ecd146104735780633ccb64ae146104925780633f4ba83a146104b1578063438d4835146104c5575f5ffd5b806328fa1d20146104095780632e77b97a146104285780633371bfff14610454575f5ffd5b8062fdd58e1461032a578063020d308d1461035c578063056a38d61461037d5780631453b9871461039c57806317a83ad2146103bb57806326a3fb30146103ea575b5f5ffd5b348015610335575f5ffd5b50610349610344366004614957565b6109f6565b6040519081526020015b60405180910390f35b348015610367575f5ffd5b5061037b61037636600461497f565b610b2f565b005b348015610388575f5ffd5b5061037b610397366004614a0a565b610c44565b3480156103a7575f5ffd5b506103496103b636600461497f565b610d46565b3480156103c6575f5ffd5b506103da6103d5366004614bad565b610daf565b6040519015158152602001610353565b3480156103f5575f5ffd5b5061037b610404366004614c2b565b610ead565b348015610414575f5ffd5b5061037b610423366004614c9d565b610f20565b348015610433575f5ffd5b50610447610442366004614e00565b610f34565b6040516103539190614ee2565b34801561045f575f5ffd5b5061037b61046e366004614c9d565b610f55565b34801561047e575f5ffd5b5061034961048d36600461497f565b610fd2565b34801561049d575f5ffd5b506103496104ac36600461497f565b611034565b3480156104bc575f5ffd5b5061037b61106c565b3480156104d0575f5ffd5b5061037b6104df366004614ef4565b6110a8565b3480156104ef575f5ffd5b506104f861111f565b6040516001600160a01b039091168152602001610353565b34801561051b575f5ffd5b5061037b61052a366004614957565b611141565b34801561053a575f5ffd5b5061054e610549366004614fdd565b6111f2565b6040516103539190615044565b61037b610569366004615086565b6112dc565b348015610579575f5ffd5b506104f86112fb565b34801561058d575f5ffd5b5061037b61059c366004614c9d565b61131a565b3480156105ac575f5ffd5b5061037b6105bb3660046150d0565b611342565b3480156105cb575f5ffd5b506103496113a5565b3480156105df575f5ffd5b506103da6105ee3660046150d0565b5f9081527f20b6f2ac2ef95221991caf3be38efadb0bb1d3093c65d3a8c962def8d652ee00602052604090205460ff1690565b34801561062c575f5ffd5b5061037b61063b366004614c9d565b6113c0565b34801561064b575f5ffd5b505f5160206158535f395f51905f525460ff166103da565b34801561066e575f5ffd5b5061037b61067d366004615165565b6113d1565b34801561068d575f5ffd5b5061037b61069c366004614c9d565b61149d565b3480156106ac575f5ffd5b5061037b611517565b3480156106c0575f5ffd5b506103da6106cf366004615290565b611528565b3480156106df575f5ffd5b506103da6106ee366004614c9d565b6115a6565b3480156106fe575f5ffd5b5061037b6115ea565b348015610712575f5ffd5b5061037b61162f565b348015610726575f5ffd5b5061037b6107353660046152e0565b611669565b348015610745575f5ffd5b506104f86116ed565b348015610759575f5ffd5b5061037b61076836600461535b565b611721565b348015610778575f5ffd5b506104f86117a1565b34801561078c575f5ffd5b5061037b61079b366004614c9d565b6117af565b3480156107ab575f5ffd5b506104f861182b565b3480156107bf575f5ffd5b507f8f0d2169d60e1d6e8f336adc673aa9b36c7a3956bc915f85e5cfebff815daa0154610349565b3480156107f2575f5ffd5b5061037b610801366004614c9d565b611852565b348015610811575f5ffd5b50610447604051806040016040528060058152602001640352e302e360dc1b81525081565b348015610841575f5ffd5b5061037b610850366004614c9d565b6118ca565b348015610860575f5ffd5b506104f861194a565b348015610874575f5ffd5b507ffe4c86d7e89d95779292c8077b542f271e850fa895928d0b7b19a0ae50865c005460405163ffffffff9091168152602001610353565b3480156108b7575f5ffd5b5061037b6108c6366004614957565b61195e565b3480156108d6575f5ffd5b5061037b6108e53660046153c1565b61197e565b3480156108f5575f5ffd5b506104476109043660046153fb565b6119d2565b348015610914575f5ffd5b5061034961092336600461497f565b6119dd565b348015610933575f5ffd5b506104f8611a20565b348015610947575f5ffd5b506103da610956366004614c9d565b611a48565b348015610966575f5ffd5b5061037b61097536600461497f565b611a5c565b348015610985575f5ffd5b5061037b610994366004614c9d565b611b2b565b3480156109a4575f5ffd5b5061037b6109b3366004614c9d565b611bc5565b3480156109c3575f5ffd5b506103496109d236600461497f565b611c4a565b3480156109e2575f5ffd5b5061037b6109f1366004615290565b611c71565b5f81610a01816115a6565b610a2e57604051635f8b555b60e11b81526001600160a01b03821660048201526024015b60405180910390fd5b60a083901c6003811115610a6057604051635315cba760e01b81526001600160601b0382166004820152602401610a25565b5f816001600160601b03166003811115610a7c57610a7c61542c565b6003811115610a8d57610a8d61542c565b03610aa557610a9c8286610d46565b92505050610b29565b6001816001600160601b03166003811115610ac257610ac261542c565b6003811115610ad357610ad361542c565b03610ae257610a9c8286611034565b6002816001600160601b03166003811115610aff57610aff61542c565b6003811115610b1057610b1061542c565b03610b1f57610a9c82866119dd565b610a9c8286610fd2565b92915050565b610b37611cbb565b33610b4181611ceb565b82610b4b81611d1d565b610b5483611d4e565b6001600160a01b038481165f9081525f5160206158335f395f51905f5260208181526040808420338552825280842094881684529390529181205460ff1690816002811115610ba557610ba561542c565b1480610bc257506002816002811115610bc057610bc061542c565b145b15610bce575050610c3e565b6001600160a01b038681165f8181526020858152604080832033808552908352818420958b1680855295835292819020805460ff191660021790555193845290927ff706b3b70da5d5dada9b3c7d9f14e4f6c280183742a82ea2f951653070b0f19591015b60405180910390a350505b50505050565b7ff0c57e16840df040f15088dc2f81fe391c3923bec73e23a9662efc9c229c6a00805460029190600160401b900460ff1680610c8d575080546001600160401b03808416911610155b15610cab5760405163f92ee8a960e01b815260040160405180910390fd5b805468ffffffffffffffffff19166001600160401b03831617600160401b178155610cda8b8b8b8b8b8b611d75565b610ce385611db3565b610ced8484611dc4565b805468ff0000000000000000191681556040516001600160401b03831681527fc7f505b2f371ae2175ee4913f4499e1f2633a7b5936321eed1cdaeb6115181d29060200160405180910390a15050505050505050505050565b6001600160a01b038281165f8181525f5160206157b35f395f51905f5260209081526040808320948616808452948252808320549383525f5160206158735f395f51905f5280835281842095845294909152812054909291610da791615454565b949350505050565b5f5f610dba84611dde565b9050806040015163ffffffff165f03610de657604051631df9068d60e31b815260040160405180910390fd5b5f5f5b8260800151610ea157610dfb83611e75565b91505f610e1a83875f60018860600151610e159190615467565b611f59565b905080610e275750610de9565b5f610e3762ffffff1985166121ea565b90505f610e4f610e4c62ffffff198416612271565b90565b90506001600160a01b038416610e6757809350610e99565b836001600160a01b0316816001600160a01b031614610e99576040516307897d0f60e31b815260040160405180910390fd5b505050610de9565b50600195945050505050565b610eb5611cbb565b33610ebf81611ceb565b85610ec981611ceb565b87610ed381611d1d565b610f158989898989898080601f0160208091040260200160405190810160405280939291908181526020018383808284375f9201919091525061228592505050565b505050505050505050565b610f2861236d565b610f318161239f565b50565b6040805160208101909152818152606090610f4e8161240d565b9392505050565b5f5160206157d35f395f51905f52600101546001600160a01b03163314610f9157604051637446939f60e11b8152336004820152602401610a25565b610f9c816001612698565b6040516001600160a01b038216907ffa4507bc1f9c730e6e95897024f1fe7d576cf2deb53579d55c14f1ac3439e114905f90a250565b5f82610fdd81611d1d565b6001600160a01b038481165f9081525f5160206157b35f395f51905f5260209081526040808320938716835292905220548015806110235750436110218686611c4a565b115b15610da7575f9250505b5092915050565b5f5f5160206158735f395f51905f525b6001600160a01b039384165f9081526020918252604080822094909516815292905250205490565b3361107561182b565b6001600160a01b03161461109e5760405163ae3b56d560e01b8152336004820152602401610a25565b6110a66126ce565b565b6110b0611cbb565b336110ba81611ceb565b876110c481611ceb565b896110ce81611d1d565b6111128b8b8b8b8b8b8b8b8080601f0160208091040260200160405190810160405280939291908181526020018383808284375f9201919091525061272792505050565b5050505050505050505050565b5f5f5160206157f35f395f51905f525b600101546001600160a01b0316919050565b611149611cbb565b3361115381611ceb565b8261115d81611d1d565b825f0361117d576040516370e1e43160e01b815260040160405180910390fd5b3361118985828661280f565b61119e6001600160a01b03861682308761285b565b806001600160a01b0316856001600160a01b03167f8752a472e571a816aea92eec8dae9baf628e840f4929fbcc2d155e6233ff68a7866040516111e391815260200190565b60405180910390a35050505050565b80516060908314611216576040516343714afd60e01b815260040160405180910390fd5b5f836001600160401b0381111561122f5761122f614ab3565b604051908082528060200260200182016040528015611258578160200160208202803683370190505b5090505f5b848110156112d3576112ae86868381811061127a5761127a615483565b905060200201602081019061128f9190614c9d565b8583815181106112a1576112a1615483565b60200260200101516109f6565b8282815181106112c0576112c0615483565b602090810291909101015260010161125d565b50949350505050565b6112e46128c2565b6112ed82612950565b6112f78282612958565b5050565b5f5f5160206157f35f395f51905f525b546001600160a01b0316919050565b611322611cbb565b8061132c81611d1d565b33808061133b85828080612a19565b5050505050565b61134a61236d565b7f8f0d2169d60e1d6e8f336adc673aa9b36c7a3956bc915f85e5cfebff815daa018190556040518181527fb34b8e54226bc5e8f4a9d846e344e0c42d09eeb1c79798df7ce7460c16071e2d906020015b60405180910390a150565b5f6113ae612aa5565b505f5160206158135f395f51905f5290565b6113c861236d565b610f3181612aee565b6113d9611cbb565b83515f036113fa57604051631df9068d60e31b815260040160405180910390fd5b8351835114158061140d57508351825114155b1561142b576040516336dc648360e21b815260040160405180910390fd5b61143481612b5c565b5f5b845181101561133b5761149585828151811061145457611454615483565b602002602001015185838151811061146e5761146e615483565b602002602001015185848151811061148857611488615483565b6020026020010151612c4f565b600101611436565b6114a561236d565b6001600160a01b0381165f8181527f3ba16516a08fb9c5c48fb6662657ad4ffe1c779829969b4c7abdb9287bbf85006020908152604091829020805460ff1916600117905590519182527fea3145306a87baeba6bb1a8b5c8d3744f840a81cb436b3509f64fc978600cdfb910161139a565b61151f61236d565b6110a65f612cfd565b5f826001600160a01b0316826001600160a01b03160361154a57506001610f4e565b6001600160a01b038481165f9081525f5160206158335f395f51905f5260209081526040808320878516845282528083209386168352929052205460ff16600181600281111561159c5761159c61542c565b1495945050505050565b5f7f3ba16516a08fb9c5c48fb6662657ad4ffe1c779829969b4c7abdb9287bbf85005b6001600160a01b039092165f90815260209290925250604090205460ff1690565b33806115f4611a20565b6001600160a01b0316146116265760405163118cdaa760e01b81526001600160a01b0382166004820152602401610a25565b610f3181612cfd565b3361163861182b565b6001600160a01b0316146116615760405163ae3b56d560e01b8152336004820152602401610a25565b6110a6612d35565b611671611cbb565b3361167b81611ceb565b8861168581611ceb565b8a61168f81611d1d565b6116df8c8c8c8c8c8c8b8b8e6040516020016116cb93929190928352602083019190915260f81b6001600160f81b031916604082015260410190565b604051602081830303815290604052612727565b505050505050505050505050565b5f807f9016d09d72d40fdae2fd8ceac6b6234c7706214fd39c1cd1e609a0528c1993005b546001600160a01b031692915050565b611729611cbb565b3361173381611ceb565b8661173d81611ceb565b8861174781611d1d565b6117958a8a8a8a89898c60405160200161178193929190928352602083019190915260f81b6001600160f81b031916604082015260410190565b604051602081830303815290604052612285565b50505050505050505050565b5f6117aa612d7d565b905090565b5f5160206157d35f395f51905f52600101546001600160a01b031633146117eb57604051637446939f60e11b8152336004820152602401610a25565b6117f5815f612698565b6040516001600160a01b038216907fc904e1b03de0c20d7fcf9dbd056daf1bd3815e93f251199de815fd0f0b96e166905f90a250565b5f7f7e0f0117f6f510f2a35b1c8185f303b28ba884334cd776f9d98e2abef24e2f0061130b565b61185a61236d565b7f77aee7014301166d8532df7f3d0b1c40d5b12f074d2d69255b43654e0419340180546001600160a01b038381166001600160a01b0319831681179093556040519116919082907fe144e84038182cefebda68c192c222085b2c12a85d135d3c938498c0165c01d3905f90a35050565b6118d261236d565b6118db81611d4e565b5f5160206157f35f395f51905f5280546001600160a01b038381166001600160a01b031983168117845560408051929093168083526020830191909152917fa8ef8f2b31291cf5528b1368607c2d9a00fa5ca6cbac4efe542aaf601b69463a91015b60405180910390a1505050565b5f5f5160206157d35f395f51905f5261112f565b611966611cbb565b8161197081611d1d565b338061133b85828087612da4565b611986611cbb565b8261199081611d1d565b83833361199e838383611528565b6119bb5760405163ea8e4eb560e01b815260040160405180910390fd5b336119c888888389612da4565b5050505050505050565b6060610b2982612ea3565b5f826119e881611d1d565b50506001600160a01b039182165f9081525f5160206157b35f395f51905f526020908152604080832093909416825291909152205490565b5f807f237e158222e3e6968b72b9db0d8043aacf074ad9f650f0d1606b4d82ee432c00611711565b5f5f5160206157d35f395f51905f526115c9565b611a64611cbb565b33611a6e81611ceb565b81611a7881611ceb565b83611a8281611d1d565b611a8b84611d4e565b336001600160a01b03851603611ab457604051633be64e5b60e21b815260040160405180910390fd5b6001600160a01b038581165f8181525f5160206158335f395f51905f526020908152604080832033808552908352818420958a1680855295835292819020805460ff191660011790555193845290927fe91cba149cb264c22b997b1a69e785ad1562a07f83318cd0c985ba1be6e6609991016111e3565b611b3361236d565b611b3c81611d4e565b7f931ec06eaaa2cd8a002032d3364041b052af597aa8c169fcc20c959a9f55710180546001600160a01b038381166001600160a01b031983168117909355604080519190921680825260208201939093525f5160206157f35f395f51905f5292917faaebcf1bfa00580e41d966056b48521fa9f202645c86d4ddf28113e617c1b1d3910161193d565b611bcd61236d565b7f237e158222e3e6968b72b9db0d8043aacf074ad9f650f0d1606b4d82ee432c0080546001600160a01b0319166001600160a01b0383169081178255611c116116ed565b6001600160a01b03167f38d16b8cac22d99fc7c124b9cd0de2d3fa1faef420bfe791d8c362d765e2270060405160405180910390a35050565b5f7f8f0d2169d60e1d6e8f336adc673aa9b36c7a3956bc915f85e5cfebff815daa00611044565b611c79611cbb565b82611c8381611d1d565b838333611c91838383611528565b611cae5760405163ea8e4eb560e01b815260040160405180910390fd5b336119c888888389612a19565b5f5160206158535f395f51905f525460ff16156110a65760405163d93c066560e01b815260040160405180910390fd5b611cf481611a48565b15610f31576040516313f7662b60e11b81526001600160a01b0382166004820152602401610a25565b611d26816115a6565b610f3157604051635f8b555b60e11b81526001600160a01b0382166004820152602401610a25565b6001600160a01b038116610f315760405163e6c4247b60e01b815260040160405180910390fd5b611d7d612ef0565b611d8686612f39565b611d8f85612f49565b611d9884612f5a565b611da28383612f62565b611dab81612fa6565b505050505050565b611dbb612ef0565b610f3181612fe9565b611dcc612ef0565b611dd5826118ca565b6112f781611b2b565b6040805160a0810182525f80825260208201819052918101829052606081018290526080810182905290611e1183612ffa565b62ffffff19811683525f60608401529050611e2b8161302b565b611e4957505f60208201819052600160408301526080820152919050565b5f611e538261304d565b6008602085015263ffffffff1660408401819052156080840152509092915050565b5f816080015115611e9957604051631365229760e31b815260040160405180910390fd5b5f611ec2604461ffff168460200151611eb29190615454565b845162ffffff191690600461305c565b90505f611ed0826048615497565b6020850151855163ffffffff929092169250611ef89162ffffff191690836371a020ae61308b565b92508084602001818151611f0c9190615454565b90525060608401805190611f1f826154b3565b63ffffffff1663ffffffff1681525050836040015163ffffffff16846060015163ffffffff1610611f5257600160808501525b5050919050565b5f80611f6a62ffffff1987166121ea565b90505f611f7c62ffffff198316613104565b9050805f03611fa657604051633c168f0360e21b815263ffffffff85166004820152602401610a25565b5f611fb662ffffff198416613119565b7ffe4c86d7e89d95779292c8077b542f271e850fa895928d0b7b19a0ae50865c005490915063ffffffff808316911614611ff5575f9350505050610da7565b5f61200562ffffff198a1661312d565b90504381101561203d57604051637aac644360e11b815263ffffffff8716600482015260248101829052436044820152606401610a25565b5f61204d62ffffff198b16613141565b9050878110156120865760405163195785c960e11b815263ffffffff881660048201526024810182905260448101899052606401610a25565b5f612099610e4c62ffffff198816613155565b90506001600160a01b03811630146120e157604051634d5a834960e01b815263ffffffff891660048201526001600160a01b0382166024820152306044820152606401610a25565b5f6120f4610e4c62ffffff198916612271565b90506120ff816115a6565b6121335760405163600a901b60e01b815263ffffffff8a1660048201526001600160a01b0382166024820152604401610a25565b5f612146610e4c62ffffff198a16613169565b90508b6001600160a01b0316816001600160a01b0316146121995760405163b7855e3b60e01b815263ffffffff8b1660048201526001600160a01b0380831660248301528d166044820152606401610a25565b5f6121ac610e4c62ffffff198b1661317d565b90506121b983828f613191565b6121d65760405163ea8e4eb560e01b815260040160405180910390fd5b5060019d9c50505050505050505050505050565b5f5f6121f583613211565b90505f61221562ffffff198516604863ffffffff851663ca85def761308b565b90505f61222a62ffffff198316826004613225565b90506001600160e01b0319811663ca85def760e01b1461226957604051633c2c863160e11b81526001600160e01b031982166004820152602401610a25565b509392505050565b5f610b2962ffffff19831660506020613225565b825f036122a5576040516370e1e43160e01b815260040160405180910390fd5b836122b186828661280f565b604051639fd5a6cf60e01b81526001600160a01b03871690639fd5a6cf906122e590849030908990899089906004016154d7565b5f604051808303815f87803b1580156122fc575f5ffd5b505af115801561230e573d5f5f3e3d5ffd5b50612328925050506001600160a01b03871682308761285b565b846001600160a01b0316866001600160a01b03167f8752a472e571a816aea92eec8dae9baf628e840f4929fbcc2d155e6233ff68a786604051610c3391815260200190565b336123766116ed565b6001600160a01b0316146110a65760405163118cdaa760e01b8152336004820152602401610a25565b807f93e77e25ef9d7551b01674a3ef68f44dcb2b33c68692c96a16f33bfe6d355b0080546001600160a01b0319166001600160a01b0392831617905560405190821681527f6a34e32d464e941bf9b440e98470c1959857c88b22ca02a37e7ba1777ceefff29060200161139a565b80515160609063ffffffff81111561243e576040516316c45a2760e01b815263ffffffff6004820152602401610a25565b5f80826001600160401b0381111561245857612458614ab3565b60405190808252806020026020018201604052801561248b57816020015b60608152602001906001900390816124765790505b5090505f5b8381101561250a576124bd865f015182815181106124b0576124b0615483565b6020026020010151612ea3565b8282815181106124cf576124cf615483565b60200260200101819052508181815181106124ec576124ec615483565b602002602001015151836125009190615454565b9250600101612490565b5060405163b12eecd960e01b602082015260e084901b6001600160e01b03191660248201525f9060280160405160208183030381529060405290505f8382516125539190615454565b6001600160401b0381111561256a5761256a614ab3565b6040519080825280601f01601f191660200182016040528015612594576020820181803683370190505b5090505f5b82518110156125ef578281815181106125b4576125b4615483565b602001015160f81c60f81b8282815181106125d1576125d1615483565b60200101906001600160f81b03191690815f1a905350600101612599565b5081515f5b8681101561268b575f85828151811061260f5761260f615483565b602002602001015190505f5f90505b81518110156126815781818151811061263957612639615483565b602001015160f81c60f81b85858151811061265657612656615483565b60200101906001600160f81b03191690815f1a905350836126768161551b565b94505060010161261e565b50506001016125f4565b5090979650505050505050565b6001600160a01b03919091165f9081525f5160206157d35f395f51905f5260205260409020805460ff1916911515919091179055565b6126d661337b565b5f5160206158535f395f51905f52805460ff191681557f5db9ee0a495bf2e6ff9c91a7834c1ba4fdd244a5e8aa4e537bd38aeae4b073aa335b6040516001600160a01b03909116815260200161139a565b845f03612747576040516370e1e43160e01b815260040160405180910390fd5b8561275388828861280f565b6040516388b7ab6360e01b81526001600160a01b038916906388b7ab639061278b90849030908b908b908b908b908b90600401615533565b5f604051808303815f87803b1580156127a2575f5ffd5b505af11580156127b4573d5f5f3e3d5ffd5b50505050806001600160a01b0316886001600160a01b03167f8752a472e571a816aea92eec8dae9baf628e840f4929fbcc2d155e6233ff68a7886040516127fd91815260200190565b60405180910390a35050505050505050565b6001600160a01b038381165f9081525f5160206158735f395f51905f526020908152604080832093861683529290529081208054839290612851908490615454565b9091555050505050565b6040516001600160a01b038481166024830152838116604483015260648201839052610c3e9186918216906323b872dd906084015b604051602081830303815290604052915060e01b6020820180516001600160e01b0383818316178352505050506133aa565b306001600160a01b037f000000000000000000000000000000000000000000000000000000000000000016148061293257507f00000000000000000000000000000000000000000000000000000000000000006001600160a01b0316612926613416565b6001600160a01b031614155b156110a65760405163703e46dd60e11b815260040160405180910390fd5b610f3161236d565b816001600160a01b03166352d1902d6040518163ffffffff1660e01b8152600401602060405180830381865afa9250505080156129b2575060408051601f3d908101601f191682019092526129af91810190615587565b60015b6129da57604051634c9c8ce360e01b81526001600160a01b0383166004820152602401610a25565b5f5160206158135f395f51905f528114612a0a57604051632a87526960e21b815260048101829052602401610a25565b612a14838361342a565b505050565b612a23848461347f565b5f612a2e85856134e3565b9050612a3b85855f613579565b612a4f6001600160a01b03861683836135c3565b604080516001600160a01b038581168252602082018490528085169287821692918916917f5deff88b03b957761fa02c49b4ac05d260e7ccfb4a198b92f0491e17a0f7f95c910160405180910390a45050505050565b306001600160a01b037f000000000000000000000000000000000000000000000000000000000000000016146110a65760405163703e46dd60e11b815260040160405180910390fd5b807f7e0f0117f6f510f2a35b1c8185f303b28ba884334cd776f9d98e2abef24e2f0080546001600160a01b0319166001600160a01b0392831617905560405190821681527fa4336c0cb1e245b95ad204faed7e940d6dc999684fd8b5e1ff597a0c4efca8ab9060200161139a565b8051604114612b7e5760405163d611d6a560e01b815260040160405180910390fd5b5f80608436612b8e60808261559e565b92612b9b939291906155b1565b8080601f0160208091040260200160405190810160405280939291908181526020018383808284375f920182905250845160208601207f19457468657265756d205369676e6564204d6573736167653a0a3332000000008252601c52603c812094955093612c1393509150612c0d9050565b846135f4565b90505f5160206157f35f395f51905f52546001600160a01b03828116911614612a145760405163d611d6a560e01b815260040160405180910390fd5b5f612c5984611dde565b9050806040015163ffffffff165f03612c8557604051631df9068d60e31b815260040160405180910390fd5b806040015163ffffffff16825114612cb0576040516336dc648360e21b815260040160405180910390fd5b835160208501207f19457468657265756d205369676e6564204d6573736167653a0a3332000000005f908152601c91909152603c8120612cf090856135f4565b905061133b82828561361c565b7f237e158222e3e6968b72b9db0d8043aacf074ad9f650f0d1606b4d82ee432c0080546001600160a01b03191681556112f7826137d5565b612d3d611cbb565b5f5160206158535f395f51905f52805460ff191660011781557f62e78cea01bee320cd4e420270b5ea74000d11b0c9f74754ebdbfc544b05a2583361270f565b5f7f93e77e25ef9d7551b01674a3ef68f44dcb2b33c68692c96a16f33bfe6d355b0061130b565b805f03612dc457604051636e120c9560e11b815260040160405180910390fd5b612dce8484611034565b811115612dee57604051636b18a64360e01b815260040160405180910390fd5b5f5f612dfb868685613845565b915091505f612e287f8f0d2169d60e1d6e8f336adc673aa9b36c7a3956bc915f85e5cfebff815daa015490565b612e329043615454565b9050612e3f878783613579565b6040805185815260208101859052908101839052606081018290526001600160a01b0380871691888216918a16907f435e11a5b75fcd07f0541bca0b78c909c9185ee2383811835e1727d289cf579f9060800160405180910390a450505050505050565b60605f612eb3836040015161391c565b83516020808601518351604051949550612ed9946338d0105760e11b94938791016155ef565b604051602081830303815290604052915050919050565b7ff0c57e16840df040f15088dc2f81fe391c3923bec73e23a9662efc9c229c6a0054600160401b900460ff166110a657604051631afcd79f60e31b815260040160405180910390fd5b612f41612ef0565b6113c8613a18565b612f51612ef0565b610f3181611852565b610f28612ef0565b612f6a612ef0565b5f5b81811015612a1457612f9e838383818110612f8957612f89615483565b905060200201602081019061069c9190614c9d565b600101612f6c565b612fae612ef0565b7ffe4c86d7e89d95779292c8077b542f271e850fa895928d0b7b19a0ae50865c00805463ffffffff191663ffffffff92909216919091179055565b612ff1612ef0565b610f3181611342565b5f61300482613a28565b905061300f8161302b565b156130225761301d81613b03565b919050565b61301d81613d47565b5f63b12eecd960e01b61304662ffffff198416836004613225565b1492915050565b5f610b2962ffffff1983166004805b5f613068826020615624565b61307390600861563d565b60ff16613081858585613225565b901c949350505050565b5f5f6130a08660781c6001600160601b031690565b6001600160601b031690506130b486613d65565b846130bf8784615454565b6130c99190615454565b11156130dc5762ffffff19915050610da7565b6130e68582615454565b90506130fa8364ffffffffff168286613d9d565b9695505050505050565b5f610b2962ffffff198316610110602061305c565b5f610b2962ffffff1983166008600461305c565b5f610b2962ffffff1983166004602061305c565b5f610b2962ffffff1983166024602061305c565b5f610b2962ffffff19831660106020613225565b5f610b2962ffffff19831660d06020613225565b5f610b2962ffffff19831660906020613225565b5f826001600160a01b0316826001600160a01b0316036131b357506001610f4e565b6001600160a01b038481165f9081525f5160206158335f395f51905f52602090815260408083208785168452825280832093861683529290529081205460ff16908160028111156132065761320661542c565b141595945050505050565b5f610b2962ffffff1983166044600461305c565b5f8160ff165f0361323757505f610f4e565b61324a8460181c6001600160601b031690565b6001600160601b031661326060ff841685615454565b11156132c4576132ab61327c8560781c6001600160601b031690565b6001600160601b03166132988660181c6001600160601b031690565b6001600160601b0316858560ff16613de4565b60405162461bcd60e51b8152600401610a259190614ee2565b60208260ff16111561333e5760405162461bcd60e51b815260206004820152603a60248201527f54797065644d656d566965772f696e646578202d20417474656d70746564207460448201527f6f20696e646578206d6f7265207468616e2033322062797465730000000000006064820152608401610a25565b600882025f6133568660781c6001600160601b031690565b6001600160601b031690505f600160ff1b5f1984011d91909501511695945050505050565b5f5160206158535f395f51905f525460ff166110a657604051638dfc202b60e01b815260040160405180910390fd5b5f5f60205f8451602086015f885af1806133c9576040513d5f823e3d81fd5b50505f513d915081156133e05780600114156133ed565b6001600160a01b0384163b155b15610c3e57604051635274afe760e01b81526001600160a01b0385166004820152602401610a25565b5f5f5160206158135f395f51905f5261130b565b61343382613e4e565b6040516001600160a01b038316907fbc7cd75a20ee27fd9adebab32041f755214dbc6bffa90cc0225b39da2e5c2d3b905f90a280511561347757612a148282613eb1565b6112f7613f1a565b6001600160a01b038281165f9081527f8f0d2169d60e1d6e8f336adc673aa9b36c7a3956bc915f85e5cfebff815daa0060209081526040808320938516835292905220544310156112f7576040516327b0bab160e11b815260040160405180910390fd5b6001600160a01b038281165f9081525f5160206157b35f395f51905f52602090815260408083209385168352929052908120545f5160206158735f395f51905f529080830361354557604051631b4e3b4f60e01b815260040160405180910390fd5b6001600160a01b038086165f9081526001909301602090815260408085209287168552919052822091909155905092915050565b6001600160a01b039283165f9081527f8f0d2169d60e1d6e8f336adc673aa9b36c7a3956bc915f85e5cfebff815daa00602090815260408083209490951682529290925291902055565b6040516001600160a01b03838116602483015260448201839052612a1491859182169063a9059cbb90606401612890565b5f5f5f5f6136028686613f39565b9250925092506136128282613f82565b5090949350505050565b5f808080805b8760800151613739578760600151925061363b88611e75565b93505f61364d62ffffff1986166121ea565b90505f61367b868a8a8863ffffffff168151811061366d5761366d615483565b602002602001015188611f59565b905080613689575050613622565b5f61369c610e4c62ffffff198516612271565b90506001600160a01b0388166136b4578097506136e6565b876001600160a01b0316816001600160a01b0316146136e6576040516307897d0f60e31b815260040160405180910390fd5b5f5f613712858d8d8b63ffffffff168151811061370557613705615483565b602002602001015161403a565b90925090506137218287615454565b955061372d8188615454565b96505050505050613622565b805f0361375957604051634296576960e11b815260040160405180910390fd5b61377561376461111f565b6001600160a01b03871690846135c3565b6001600160a01b0385166342966c6861378e848461559e565b6040518263ffffffff1660e01b81526004016137ac91815260200190565b5f604051808303815f87803b1580156137c3575f5ffd5b505af11580156116df573d5f5f3e3d5ffd5b7f9016d09d72d40fdae2fd8ceac6b6234c7706214fd39c1cd1e609a0528c19930080546001600160a01b031981166001600160a01b03848116918217845560405192169182907f8be0079c531659141344cd1fd0a4f28419497f9722a3daafe3b4186f6b6457e0905f90a3505050565b6001600160a01b038381165f9081525f5160206158735f395f51905f5260208181526040808420948716845293905291812080549192839290918591849061388e90849061559e565b90915550506001600160a01b038087165f9081526001830160209081526040808320938916835292905290812080548692906138cb908490615454565b90915550506001600160a01b038087165f81815260208481526040808320948a168084529482528083205493835260019095018152848220938252929092529190205490925090505b935093915050565b60605f6139bc835f015184602001518560400151866060015187608001518860a001518960c001518a60e001516040805163ca85def760e01b602082015260e0998a1b6001600160e01b03199081166024830152988a1b891660288201529690981b909616602c860152603085019390935260508401919091526070830152609082015260b0808201929092528251808203909201825260d00190915290565b90505f6139eb846101000151856101200151866101400151876101600151886101800151896101a00151614200565b90508181604051602001613a00929190615659565b60405160208183030381529060405292505050919050565b613a20612ef0565b6110a6614272565b5f600460ff1682511015613a5b5781516040516327c1b0b760e01b81526004808201526024810191909152604401610a25565b5f613a668382614292565b90505f613a7b62ffffff198316826004613225565b905063472fefa960e11b6001600160e01b0319821601613ab957613ab26371a020ae5b60d81b6301000000600160d81b0384161790565b9250611f52565b634ed1132760e01b6001600160e01b0319821601613ade57613ab263b12eecd9613a9e565b604051630d779af160e31b81526001600160e01b031982166004820152602401610a25565b6008601882901c6001600160601b03161015613b4857604051632639ef7960e21b815260086004820152601882901c6001600160601b03166024820152604401610a25565b5f613b528261304d565b905060085f5b8263ffffffff168163ffffffff161015613d03575f613b78604884615454565b9050601885901c6001600160601b0316811115613bca57604051630367206d60e61b815263ffffffff83166004820152601886901c6001600160601b0316602482015260448101829052606401610a25565b5f613be8613bd9604486615454565b62ffffff19881690600461305c565b90505f613bf6826048615497565b63ffffffff1690505f613c098287615454565b9050601888901c6001600160601b0316811115613c5b57604051631f5d3d0d60e31b815263ffffffff86166004820152601889901c6001600160601b0316602482015260448101829052606401610a25565b5f613c78613c698289615454565b62ffffff198b16906004613225565b90506001600160e01b031981166338d0105760e11b14613cc357604051637a4ecbaf60e11b815263ffffffff871660048201526001600160e01b031982166024820152604401610a25565b5f613cda62ffffff198b1689866371a020ae61308b565b9050613ce581613d47565b613cef8489615454565b97505060019095019450613b589350505050565b50601883901c6001600160601b03168114612a1457604051633be082ef60e01b815260048101829052601884901c6001600160601b03166024820152604401610a25565b613d50816142ac565b5f613d5a826121ea565b90506112f781614354565b5f613d798260181c6001600160601b031690565b613d8c8360781c6001600160601b031690565b016001600160601b03169050919050565b5f80613da98385615454565b9050604051811115613db857505f5b805f03613dcc5762ffffff19915050610f4e565b606085811b8517901b831760181b5b95945050505050565b60605f613df08661443a565b9150505f613dfd8661443a565b9150505f613e0a8661443a565b9150505f613e178661443a565b91505083838383604051602001613e31949392919061566d565b604051602081830303815290604052945050505050949350505050565b806001600160a01b03163b5f03613e8357604051634c9c8ce360e01b81526001600160a01b0382166004820152602401610a25565b5f5160206158135f395f51905f5280546001600160a01b0319166001600160a01b0392909216919091179055565b60605f5f846001600160a01b031684604051613ecd919061576c565b5f60405180830381855af49150503d805f8114613f05576040519150601f19603f3d011682016040523d82523d5f602084013e613f0a565b606091505b5091509150613ddb8583836144e2565b34156110a65760405163b398979f60e01b815260040160405180910390fd5b5f5f5f8351604103613f70576020840151604085015160608601515f1a613f628882858561453e565b955095509550505050613f7b565b505081515f91506002905b9250925092565b5f826003811115613f9557613f9561542c565b03613f9e575050565b6001826003811115613fb257613fb261542c565b03613fd05760405163f645eedf60e01b815260040160405180910390fd5b6002826003811115613fe457613fe461542c565b036140055760405163fce698f760e01b815260048101829052602401610a25565b60038260038111156140195761401961542c565b036112f7576040516335e2f38360e21b815260048101829052602401610a25565b5f8061405361404e62ffffff198716614606565b614616565b5f614066610e4c62ffffff198816612271565b90505f61407b610e4c62ffffff19891661317d565b90505f61408d62ffffff198916613104565b90505f806140a585856140a08b87615454565b61465c565b90925090506140b48183615454565b96506140c08884615454565b87101561411f576001600160a01b038085169086167f5fab62745de032ad35a05146c51710fd80871be06cb193722c40f011df352f0c6141008b87615454565b6040805191825260208201879052810185905260600160405180910390a35b82871161412e575f955061413b565b614138838861559e565b95505b61414a62ffffff198b16614606565b846001600160a01b0316866001600160a01b03167f12ee2719e7e2dec9f2a0041286b66669153dff0d36719f692b8bbaa4dfe0aa8761418e8e62ffffff19166147c4565b61419d8f62ffffff19166147d8565b8e6141a88d8f61559e565b6040805163ffffffff95909516855260208501939093526001600160a01b0391909116838301526060830152608082018c905260a0820188905260c08201879052519081900360e00190a45050505050935093915050565b606063ffffffff80168251111561423a578151604051636848529960e11b8152600481019190915263ffffffff6024820152604401610a25565b815160405161425791899189918991899189918990602001615777565b60405160208183030381529060405290509695505050505050565b61427a612ef0565b5f5160206158535f395f51905f52805460ff19169055565b81515f9060208401613ddb64ffffffffff85168284613d9d565b6048601882901c6001600160601b031610156142f1576040516306dee79760e11b815260486004820152601882901c6001600160601b03166024820152604401610a25565b5f6142fb82613211565b90505f614309826048615497565b63ffffffff169050601883901c6001600160601b03168114612a145760405163662f9ab960e11b815260048101829052601884901c6001600160601b03166024820152604401610a25565b610154601882901c6001600160601b0316101561439b57604051631cd8e33f60e11b81526101546004820152601882901c6001600160601b03166024820152604401610a25565b5f6143a58261304d565b905063ffffffff81166001146143d657604051633665681760e11b815263ffffffff82166004820152602401610a25565b5f6143e0836147ec565b90505f6143ef82610154615497565b63ffffffff169050601884901c6001600160601b03168114610c3e57604051633df4634560e01b815260048101829052601885901c6001600160601b03166024820152604401610a25565b5f80601f5b600f8160ff16111561448c575f61445782600861563d565b60ff1685901c905061446881614801565b61ffff16841793508160ff1660101461448357601084901b93505b505f190161443f565b50600f5b60ff8160ff1610156144dc575f6144a882600861563d565b60ff1685901c90506144b981614801565b61ffff16831792508160ff165f146144d357601083901b92505b505f1901614490565b50915091565b6060826144f7576144f282614832565b610f4e565b815115801561450e57506001600160a01b0384163b155b1561453757604051639996b31560e01b81526001600160a01b0385166004820152602401610a25565b5080610f4e565b5f80807f7fffffffffffffffffffffffffffffff5d576e7357a4501ddfe92f46681b20a084111561457757505f915060039050826145fc565b604080515f808252602082018084528a905260ff891692820192909252606081018790526080810186905260019060a0016020604051602081039080840390855afa1580156145c8573d5f5f3e3d5ffd5b5050604051601f1901519150506001600160a01b0381166145f357505f9250600191508290506145fc565b92505f91508190505b9450945094915050565b5f610b2962ffffff19831661485b565b61461f816148a2565b610f31815f9081527f20b6f2ac2ef95221991caf3be38efadb0bb1d3093c65d3a8c962def8d652ee0060205260409020805460ff19166001179055565b5f80805f5160206158735f395f51905f526001600160a01b038088165f90815260208381526040808320938a1683529290522054909150848082106146e2576001600160a01b038089165f90815260208581526040808320938b16835292905290812080548392906146cf90849061559e565b909155509094505f935061391492505050565b6001600160a01b038089165f90815260208581526040808320938b16835292905290812055614711828261559e565b6001600160a01b03808a165f9081526001860160209081526040808320938c168352929052205490915081811061478d576001600160a01b03808a165f9081526001860160209081526040808320938c168352929052908120805484929061477a90849061559e565b9091555092955090935061391492505050565b6001600160a01b039889165f9081526001949094016020908152604080862099909a16855297909752509581205550929391925050565b5f610b2962ffffff198316600c600461305c565b5f610b2962ffffff19831660b06020613225565b5f610b2962ffffff198316610150600461305c565b5f61481260048360ff16901c6148f3565b60ff1661ffff919091161760081b614829826148f3565b60ff1617919050565b8051156148425780518082602001fd5b60405163d6bda27560e01b815260040160405180910390fd5b5f5f6148708360781c6001600160601b031690565b6001600160601b031690505f61488f8460181c6001600160601b031690565b6001600160601b03169091209392505050565b5f8181527f20b6f2ac2ef95221991caf3be38efadb0bb1d3093c65d3a8c962def8d652ee00602052604090205460ff1615610f3157604051630b06514960e11b815260048101829052602401610a25565b6040805180820190915260108082526f181899199a1a9b1b9c1cb0b131b232b360811b60208301525f91600f8416918290811061493257614932615483565b016020015160f81c9392505050565b80356001600160a01b038116811461301d575f5ffd5b5f5f60408385031215614968575f5ffd5b61497183614941565b946020939093013593505050565b5f5f60408385031215614990575f5ffd5b61499983614941565b91506149a760208401614941565b90509250929050565b5f5f83601f8401126149c0575f5ffd5b5081356001600160401b038111156149d6575f5ffd5b6020830191508360208260051b85010111156149f0575f5ffd5b9250929050565b803563ffffffff8116811461301d575f5ffd5b5f5f5f5f5f5f5f5f5f6101008a8c031215614a23575f5ffd5b614a2c8a614941565b9850614a3a60208b01614941565b9750614a4860408b01614941565b965060608a01356001600160401b03811115614a62575f5ffd5b614a6e8c828d016149b0565b9097509550614a81905060808b016149f7565b935060a08a01359250614a9660c08b01614941565b9150614aa460e08b01614941565b90509295985092959850929598565b634e487b7160e01b5f52604160045260245ffd5b604051606081016001600160401b0381118282101715614ae957614ae9614ab3565b60405290565b6040516101c081016001600160401b0381118282101715614ae957614ae9614ab3565b604051601f8201601f191681016001600160401b0381118282101715614b3a57614b3a614ab3565b604052919050565b5f82601f830112614b51575f5ffd5b81356001600160401b03811115614b6a57614b6a614ab3565b614b7d601f8201601f1916602001614b12565b818152846020838601011115614b91575f5ffd5b816020850160208301375f918101602001919091529392505050565b5f5f60408385031215614bbe575f5ffd5b82356001600160401b03811115614bd3575f5ffd5b614bdf85828601614b42565b9250506149a760208401614941565b5f5f83601f840112614bfe575f5ffd5b5081356001600160401b03811115614c14575f5ffd5b6020830191508360208285010111156149f0575f5ffd5b5f5f5f5f5f5f60a08789031215614c40575f5ffd5b614c4987614941565b9550614c5760208801614941565b9450604087013593506060870135925060808701356001600160401b03811115614c7f575f5ffd5b614c8b89828a01614bee565b979a9699509497509295939492505050565b5f60208284031215614cad575f5ffd5b610f4e82614941565b5f6001600160401b03821115614cce57614cce614ab3565b5060051b60200190565b5f60608284031215614ce8575f5ffd5b614cf0614ac7565b8235815260208084013590820152905060408201356001600160401b03811115614d18575f5ffd5b82016101c08185031215614d2a575f5ffd5b614d32614aef565b614d3b826149f7565b8152614d49602083016149f7565b6020820152614d5a604083016149f7565b6040820152606082810135908201526080808301359082015260a0808301359082015260c0808301359082015260e08083013590820152610100808301359082015261012080830135908201526101408083013590820152610160808301359082015261018080830135908201526101a08201356001600160401b03811115614de1575f5ffd5b614ded86828501614b42565b6101a08301525060408301525092915050565b5f60208284031215614e10575f5ffd5b81356001600160401b03811115614e25575f5ffd5b8201601f81018413614e35575f5ffd5b8035614e48614e4382614cb6565b614b12565b8082825260208201915060208360051b850101925086831115614e69575f5ffd5b602084015b83811015614ea95780356001600160401b03811115614e8b575f5ffd5b614e9a89602083890101614cd8565b84525060209283019201614e6e565b509695505050505050565b5f81518084528060208401602086015e5f602082860101526020601f19601f83011685010191505092915050565b602081525f610f4e6020830184614eb4565b5f5f5f5f5f5f5f5f60e0898b031215614f0b575f5ffd5b614f1489614941565b9750614f2260208a01614941565b965060408901359550606089013594506080890135935060a0890135925060c08901356001600160401b03811115614f58575f5ffd5b614f648b828c01614bee565b999c989b5096995094979396929594505050565b5f82601f830112614f87575f5ffd5b8135614f95614e4382614cb6565b8082825260208201915060208360051b860101925085831115614fb6575f5ffd5b602085015b83811015614fd3578035835260209283019201614fbb565b5095945050505050565b5f5f5f60408486031215614fef575f5ffd5b83356001600160401b03811115615004575f5ffd5b615010868287016149b0565b90945092505060208401356001600160401b0381111561502e575f5ffd5b61503a86828701614f78565b9150509250925092565b602080825282518282018190525f918401906040840190835b8181101561507b57835183526020938401939092019160010161505d565b509095945050505050565b5f5f60408385031215615097575f5ffd5b6150a083614941565b915060208301356001600160401b038111156150ba575f5ffd5b6150c685828601614b42565b9150509250929050565b5f602082840312156150e0575f5ffd5b5035919050565b5f82601f8301126150f6575f5ffd5b8135615104614e4382614cb6565b8082825260208201915060208360051b860101925085831115615125575f5ffd5b602085015b83811015614fd35780356001600160401b03811115615147575f5ffd5b615156886020838a0101614b42565b8452506020928301920161512a565b5f5f5f5f60808587031215615178575f5ffd5b84356001600160401b0381111561518d575f5ffd5b615199878288016150e7565b94505060208501356001600160401b038111156151b4575f5ffd5b6151c0878288016150e7565b93505060408501356001600160401b038111156151db575f5ffd5b8501601f810187136151eb575f5ffd5b80356151f9614e4382614cb6565b8082825260208201915060208360051b85010192508983111561521a575f5ffd5b602084015b8381101561525a5780356001600160401b0381111561523c575f5ffd5b61524b8c602083890101614f78565b8452506020928301920161521f565b50945050505060608501356001600160401b03811115615278575f5ffd5b61528487828801614b42565b91505092959194509250565b5f5f5f606084860312156152a2575f5ffd5b6152ab84614941565b92506152b960208501614941565b91506152c760408501614941565b90509250925092565b803560ff8116811461301d575f5ffd5b5f5f5f5f5f5f5f5f5f6101208a8c0312156152f9575f5ffd5b6153028a614941565b985061531060208b01614941565b975060408a0135965060608a0135955060808a0135945060a08a0135935061533a60c08b016152d0565b989b979a50959894979396929550929360e081013593506101000135919050565b5f5f5f5f5f5f5f60e0888a031215615371575f5ffd5b61537a88614941565b965061538860208901614941565b955060408801359450606088013593506153a4608089016152d0565b9699959850939692959460a0840135945060c09093013592915050565b5f5f5f606084860312156153d3575f5ffd5b6153dc84614941565b92506153ea60208501614941565b929592945050506040919091013590565b5f6020828403121561540b575f5ffd5b81356001600160401b03811115615420575f5ffd5b610da784828501614cd8565b634e487b7160e01b5f52602160045260245ffd5b634e487b7160e01b5f52601160045260245ffd5b80820180821115610b2957610b29615440565b63ffffffff8281168282160390811115610b2957610b29615440565b634e487b7160e01b5f52603260045260245ffd5b63ffffffff8181168382160190811115610b2957610b29615440565b5f63ffffffff821663ffffffff81036154ce576154ce615440565b60010192915050565b6001600160a01b03868116825285166020820152604081018490526060810183905260a0608082018190525f9061551090830184614eb4565b979650505050505050565b5f6001820161552c5761552c615440565b5060010190565b6001600160a01b0388811682528716602082015260408101869052606081018590526080810184905260a0810183905260e060c082018190525f9061557a90830184614eb4565b9998505050505050505050565b5f60208284031215615597575f5ffd5b5051919050565b81810381811115610b2957610b29615440565b5f5f858511156155bf575f5ffd5b838611156155cb575f5ffd5b5050820193919092039150565b5f81518060208401855e5f93019283525090919050565b6001600160e01b03198681168252600482018690526024820185905260e084901b1660448201525f61551060488301846155d8565b60ff8281168282160390811115610b2957610b29615440565b60ff818116838216029081169081811461102d5761102d615440565b5f610da761566783866155d8565b846155d8565b7f54797065644d656d566965772f696e646578202d204f76657272616e20746865815274040ecd2caee5c40a6d8d2c6ca40d2e640c2e84060f605b1b602082015260d085811b6001600160d01b031990811660358401526e040eed2e8d040d8cadccee8d04060f608b1b603b84015285821b8116604a8401527f2e20417474656d7074656420746f20696e646578206174206f666673657420306050840152600f60fb1b60708401529084901b1660718201525f615743607783016e040eed2e8d040d8cadccee8d04060f608b1b8152600f0190565b615759818560d01b6001600160d01b0319169052565b601760f91b600682015260078101615510565b5f610f4e82846155d8565b87815286602082015285604082015284606082015283608082015263ffffffff60e01b8360e01b1660a08201525f61557a60a48301846155d856fedd3dca88e892815d13ea80f1982e32e4fe3d0a89f03d14d3565bf56d58c31a0177aee7014301166d8532df7f3d0b1c40d5b12f074d2d69255b43654e04193400931ec06eaaa2cd8a002032d3364041b052af597aa8c169fcc20c959a9f557100360894a13ba1a3210667c828492db98dca3e2076cc3735a920a3ca505d382bbcbcbbce9c37b75586602042f686570dadc3d32ddb14a687daffcfefad2ac57b00cd5ed15c6e187e77e9aee88184c21f4f2182ab5827cb3b7e07fbedcd63f03300dd3dca88e892815d13ea80f1982e32e4fe3d0a89f03d14d3565bf56d58c31a00a2646970667358221220bf6855b333c03e451f59dca361af74422851a177613f4211ab919e7517a54b5164736f6c634300081d0033","linkReferences":{}},"methodIdentifiers":{"UPGRADE_INTERFACE_VERSION()":"ad3cb1cc","acceptOwnership()":"79ba5097","addDelegate(address,address)":"e909ebfa","addSupportedToken(address)":"6d69fcaf","availableBalance(address,address)":"3ccb64ae","balanceOf(address,uint256)":"00fdd58e","balanceOfBatch(address[],uint256[])":"4e1273f4","burnSigner()":"4fec8792","denylist(address)":"3371bfff","denylister()":"bcc76c60","deposit(address,uint256)":"47e7ef24","depositWithAuthorization(address,address,uint256,uint256,uint256,bytes32,bytes)":"438d4835","depositWithAuthorization(address,address,uint256,uint256,uint256,bytes32,uint8,bytes32,bytes32)":"8a94d4fc","depositWithPermit(address,address,uint256,uint256,bytes)":"26a3fb30","depositWithPermit(address,address,uint256,uint256,uint8,bytes32,bytes32)":"8ef59739","domain()":"c2fb26a6","encodeBurnAuthorization((uint256,uint256,(uint32,uint32,uint32,bytes32,bytes32,bytes32,bytes32,bytes32,bytes32,bytes32,bytes32,uint256,bytes32,bytes)))":"da4ab9a4","encodeBurnAuthorizations((uint256,uint256,(uint32,uint32,uint32,bytes32,bytes32,bytes32,bytes32,bytes32,bytes32,bytes32,bytes32,uint256,bytes32,bytes))[])":"2e77b97a","feeRecipient()":"46904840","gatewayBurn(bytes[],bytes[],uint256[][],bytes)":"6af7921a","initialize(address,address,address,address[],uint32,uint256,address,address)":"056a38d6","initiateWithdrawal(address,address,uint256)":"d6d344a1","initiateWithdrawal(address,uint256)":"c8393ba9","isAuthorizedForBalance(address,address,address)":"74392bf3","isDenylisted(address)":"e877a526","isTokenSupported(address)":"75151b63","minterContract()":"92f00233","owner()":"8da5cb5b","pause()":"8456cb59","paused()":"5c975abb","pauser()":"9fd0506d","pendingOwner()":"e30c3978","proxiableUUID()":"52d1902d","removeDelegate(address,address)":"020d308d","renounceOwnership()":"715018a6","totalBalance(address,address)":"1453b987","transferOwnership(address)":"f2fde38b","transferSpecHashUsed(bytes32)":"53a8ddff","unDenylist(address)":"9cab0c1c","unpause()":"3f4ba83a","updateBurnSigner(address)":"bb9354af","updateCounterpart(address)":"28fa1d20","updateDenylister(address)":"a946de04","updateFeeRecipient(address)":"f160d369","updatePauser(address)":"554bab3c","updateWithdrawalDelay(uint256)":"52cd67e9","upgradeToAndCall(address,bytes)":"4f1ef286","validateBurnAuthorizations(bytes,address)":"17a83ad2","withdraw(address)":"51cff8d9","withdraw(address,address,address)":"ff7885e8","withdrawableBalance(address,address)":"3bbe1ecd","withdrawalBlock(address,address)":"fefeec13","withdrawalDelay()":"a7ab6961","withdrawingBalance(address,address)":"df0c6690"},"id":29}