{"abi":[{"type":"constructor","inputs":[],"stateMutability":"nonpayable"},{"type":"function","name":"UPGRADE_INTERFACE_VERSION","inputs":[],"outputs":[{"name":"","type":"string","internalType":"string"}],"stateMutability":"view"},{"type":"function","name":"acceptOwnership","inputs":[],"outputs":[],"stateMutability":"nonpayable"},{"type":"function","name":"addSupportedToken","inputs":[{"name":"token","type":"address","internalType":"address"}],"outputs":[],"stateMutability":"nonpayable"},{"type":"function","name":"attestationSigner","inputs":[],"outputs":[{"name":"","type":"address","internalType":"address"}],"stateMutability":"view"},{"type":"function","name":"denylist","inputs":[{"name":"addr","type":"address","internalType":"address"}],"outputs":[],"stateMutability":"nonpayable"},{"type":"function","name":"denylister","inputs":[],"outputs":[{"name":"","type":"address","internalType":"address"}],"stateMutability":"view"},{"type":"function","name":"domain","inputs":[],"outputs":[{"name":"","type":"uint32","internalType":"uint32"}],"stateMutability":"view"},{"type":"function","name":"gatewayMint","inputs":[{"name":"attestationPayload","type":"bytes","internalType":"bytes"},{"name":"signature","type":"bytes","internalType":"bytes"}],"outputs":[],"stateMutability":"nonpayable"},{"type":"function","name":"initialize","inputs":[{"name":"pauser_","type":"address","internalType":"address"},{"name":"denylister_","type":"address","internalType":"address"},{"name":"wallet_","type":"address","internalType":"address"},{"name":"supportedTokens_","type":"address[]","internalType":"address[]"},{"name":"domain_","type":"uint32","internalType":"uint32"},{"name":"attestationSigner_","type":"address","internalType":"address"},{"name":"tokenMintAuthorities_","type":"address[]","internalType":"address[]"}],"outputs":[],"stateMutability":"nonpayable"},{"type":"function","name":"isDenylisted","inputs":[{"name":"addr","type":"address","internalType":"address"}],"outputs":[{"name":"","type":"bool","internalType":"bool"}],"stateMutability":"view"},{"type":"function","name":"isTokenSupported","inputs":[{"name":"token","type":"address","internalType":"address"}],"outputs":[{"name":"","type":"bool","internalType":"bool"}],"stateMutability":"view"},{"type":"function","name":"isTransferSpecHashUsed","inputs":[{"name":"transferSpecHash","type":"bytes32","internalType":"bytes32"}],"outputs":[{"name":"","type":"bool","internalType":"bool"}],"stateMutability":"view"},{"type":"function","name":"owner","inputs":[],"outputs":[{"name":"","type":"address","internalType":"address"}],"stateMutability":"view"},{"type":"function","name":"pause","inputs":[],"outputs":[],"stateMutability":"nonpayable"},{"type":"function","name":"paused","inputs":[],"outputs":[{"name":"","type":"bool","internalType":"bool"}],"stateMutability":"view"},{"type":"function","name":"pauser","inputs":[],"outputs":[{"name":"","type":"address","internalType":"address"}],"stateMutability":"view"},{"type":"function","name":"pendingOwner","inputs":[],"outputs":[{"name":"","type":"address","internalType":"address"}],"stateMutability":"view"},{"type":"function","name":"proxiableUUID","inputs":[],"outputs":[{"name":"","type":"bytes32","internalType":"bytes32"}],"stateMutability":"view"},{"type":"function","name":"renounceOwnership","inputs":[],"outputs":[],"stateMutability":"nonpayable"},{"type":"function","name":"tokenMintAuthority","inputs":[{"name":"token","type":"address","internalType":"address"}],"outputs":[{"name":"","type":"address","internalType":"address"}],"stateMutability":"view"},{"type":"function","name":"transferOwnership","inputs":[{"name":"newOwner","type":"address","internalType":"address"}],"outputs":[],"stateMutability":"nonpayable"},{"type":"function","name":"unDenylist","inputs":[{"name":"addr","type":"address","internalType":"address"}],"outputs":[],"stateMutability":"nonpayable"},{"type":"function","name":"unpause","inputs":[],"outputs":[],"stateMutability":"nonpayable"},{"type":"function","name":"updateAttestationSigner","inputs":[{"name":"newAttestationSigner","type":"address","internalType":"address"}],"outputs":[],"stateMutability":"nonpayable"},{"type":"function","name":"updateCounterpart","inputs":[{"name":"newCounterpart","type":"address","internalType":"address"}],"outputs":[],"stateMutability":"nonpayable"},{"type":"function","name":"updateDenylister","inputs":[{"name":"newDenylister","type":"address","internalType":"address"}],"outputs":[],"stateMutability":"nonpayable"},{"type":"function","name":"updateMintAuthority","inputs":[{"name":"token","type":"address","internalType":"address"},{"name":"newMintAuthority","type":"address","internalType":"address"}],"outputs":[],"stateMutability":"nonpayable"},{"type":"function","name":"updatePauser","inputs":[{"name":"newPauser","type":"address","internalType":"address"}],"outputs":[],"stateMutability":"nonpayable"},{"type":"function","name":"upgradeToAndCall","inputs":[{"name":"newImplementation","type":"address","internalType":"address"},{"name":"data","type":"bytes","internalType":"bytes"}],"outputs":[],"stateMutability":"payable"},{"type":"function","name":"walletContract","inputs":[],"outputs":[{"name":"","type":"address","internalType":"contract GatewayWallet"}],"stateMutability":"view"},{"type":"event","name":"AttestationSignerChanged","inputs":[{"name":"oldAttestationSigner","type":"address","indexed":true,"internalType":"address"},{"name":"newAttestationSigner","type":"address","indexed":true,"internalType":"address"}],"anonymous":false},{"type":"event","name":"AttestationUsed","inputs":[{"name":"token","type":"address","indexed":true,"internalType":"address"},{"name":"recipient","type":"address","indexed":true,"internalType":"address"},{"name":"transferSpecHash","type":"bytes32","indexed":true,"internalType":"bytes32"},{"name":"sourceDomain","type":"uint32","indexed":false,"internalType":"uint32"},{"name":"sourceDepositor","type":"bytes32","indexed":false,"internalType":"bytes32"},{"name":"sourceSigner","type":"bytes32","indexed":false,"internalType":"bytes32"},{"name":"value","type":"uint256","indexed":false,"internalType":"uint256"}],"anonymous":false},{"type":"event","name":"CounterpartChanged","inputs":[{"name":"oldCounterpart","type":"address","indexed":true,"internalType":"address"},{"name":"newCounterpart","type":"address","indexed":true,"internalType":"address"}],"anonymous":false},{"type":"event","name":"Denylisted","inputs":[{"name":"addr","type":"address","indexed":true,"internalType":"address"}],"anonymous":false},{"type":"event","name":"DenylisterChanged","inputs":[{"name":"oldDenylister","type":"address","indexed":true,"internalType":"address"},{"name":"newDenylister","type":"address","indexed":true,"internalType":"address"}],"anonymous":false},{"type":"event","name":"Initialized","inputs":[{"name":"version","type":"uint64","indexed":false,"internalType":"uint64"}],"anonymous":false},{"type":"event","name":"MintAuthorityChanged","inputs":[{"name":"token","type":"address","indexed":true,"internalType":"address"},{"name":"oldMintAuthority","type":"address","indexed":true,"internalType":"address"},{"name":"newMintAuthority","type":"address","indexed":true,"internalType":"address"}],"anonymous":false},{"type":"event","name":"OwnershipTransferStarted","inputs":[{"name":"previousOwner","type":"address","indexed":true,"internalType":"address"},{"name":"newOwner","type":"address","indexed":true,"internalType":"address"}],"anonymous":false},{"type":"event","name":"OwnershipTransferred","inputs":[{"name":"previousOwner","type":"address","indexed":true,"internalType":"address"},{"name":"newOwner","type":"address","indexed":true,"internalType":"address"}],"anonymous":false},{"type":"event","name":"Paused","inputs":[{"name":"account","type":"address","indexed":false,"internalType":"address"}],"anonymous":false},{"type":"event","name":"PauserChanged","inputs":[{"name":"oldPauser","type":"address","indexed":true,"internalType":"address"},{"name":"newPauser","type":"address","indexed":true,"internalType":"address"}],"anonymous":false},{"type":"event","name":"TokenSupported","inputs":[{"name":"token","type":"address","indexed":false,"internalType":"address"}],"anonymous":false},{"type":"event","name":"UnDenylisted","inputs":[{"name":"addr","type":"address","indexed":true,"internalType":"address"}],"anonymous":false},{"type":"event","name":"Unpaused","inputs":[{"name":"account","type":"address","indexed":false,"internalType":"address"}],"anonymous":false},{"type":"event","name":"Upgraded","inputs":[{"name":"implementation","type":"address","indexed":true,"internalType":"address"}],"anonymous":false},{"type":"error","name":"AccountDenylisted","inputs":[{"name":"addr","type":"address","internalType":"address"}]},{"type":"error","name":"AddressEmptyCode","inputs":[{"name":"target","type":"address","internalType":"address"}]},{"type":"error","name":"AttestationExpiredAtIndex","inputs":[{"name":"index","type":"uint32","internalType":"uint32"},{"name":"maxBlockHeight","type":"uint256","internalType":"uint256"},{"name":"currentBlock","type":"uint256","internalType":"uint256"}]},{"type":"error","name":"AttestationValueMustBePositiveAtIndex","inputs":[{"name":"index","type":"uint32","internalType":"uint32"}]},{"type":"error","name":"CursorOutOfBounds","inputs":[]},{"type":"error","name":"ECDSAInvalidSignature","inputs":[]},{"type":"error","name":"ECDSAInvalidSignatureLength","inputs":[{"name":"length","type":"uint256","internalType":"uint256"}]},{"type":"error","name":"ECDSAInvalidSignatureS","inputs":[{"name":"s","type":"bytes32","internalType":"bytes32"}]},{"type":"error","name":"ERC1967InvalidImplementation","inputs":[{"name":"implementation","type":"address","internalType":"address"}]},{"type":"error","name":"ERC1967NonPayable","inputs":[]},{"type":"error","name":"EnforcedPause","inputs":[]},{"type":"error","name":"ExpectedPause","inputs":[]},{"type":"error","name":"FailedCall","inputs":[]},{"type":"error","name":"InvalidAddress","inputs":[]},{"type":"error","name":"InvalidAttestationDestinationCallerAtIndex","inputs":[{"name":"index","type":"uint32","internalType":"uint32"},{"name":"attestationCaller","type":"address","internalType":"address"},{"name":"actualCaller","type":"address","internalType":"address"}]},{"type":"error","name":"InvalidAttestationDestinationContractAtIndex","inputs":[{"name":"index","type":"uint32","internalType":"uint32"},{"name":"attestationContract","type":"address","internalType":"address"},{"name":"expectedContract","type":"address","internalType":"address"}]},{"type":"error","name":"InvalidAttestationDestinationDomainAtIndex","inputs":[{"name":"index","type":"uint32","internalType":"uint32"},{"name":"attestationDomain","type":"uint32","internalType":"uint32"},{"name":"expectedDomain","type":"uint32","internalType":"uint32"}]},{"type":"error","name":"InvalidAttestationSigner","inputs":[]},{"type":"error","name":"InvalidAttestationSourceContractAtIndex","inputs":[{"name":"index","type":"uint32","internalType":"uint32"},{"name":"attestationContract","type":"address","internalType":"address"},{"name":"expectedContract","type":"address","internalType":"address"}]},{"type":"error","name":"InvalidAttestationTokenAtIndex","inputs":[{"name":"index","type":"uint32","internalType":"uint32"},{"name":"sourceToken","type":"address","internalType":"address"},{"name":"destinationToken","type":"address","internalType":"address"}]},{"type":"error","name":"InvalidInitialization","inputs":[]},{"type":"error","name":"InvalidTransferPayloadMagic","inputs":[{"name":"actualMagic","type":"bytes4","internalType":"bytes4"}]},{"type":"error","name":"InvalidTransferSpecMagic","inputs":[{"name":"actualMagic","type":"bytes4","internalType":"bytes4"}]},{"type":"error","name":"InvalidTransferSpecVersion","inputs":[{"name":"actualVersion","type":"uint32","internalType":"uint32"}]},{"type":"error","name":"MismatchedLengthTokenAndTokenMintAuthorities","inputs":[]},{"type":"error","name":"MustHaveAtLeastOneAttestation","inputs":[]},{"type":"error","name":"NotInitializing","inputs":[]},{"type":"error","name":"OwnableInvalidOwner","inputs":[{"name":"owner","type":"address","internalType":"address"}]},{"type":"error","name":"OwnableUnauthorizedAccount","inputs":[{"name":"account","type":"address","internalType":"address"}]},{"type":"error","name":"TransferPayloadDataTooShort","inputs":[{"name":"expectedMinimumLength","type":"uint256","internalType":"uint256"},{"name":"actualLength","type":"uint256","internalType":"uint256"}]},{"type":"error","name":"TransferPayloadHeaderTooShort","inputs":[{"name":"expectedMinimumLength","type":"uint256","internalType":"uint256"},{"name":"actualLength","type":"uint256","internalType":"uint256"}]},{"type":"error","name":"TransferPayloadOverallLengthMismatch","inputs":[{"name":"expectedTotalLength","type":"uint256","internalType":"uint256"},{"name":"actualTotalLength","type":"uint256","internalType":"uint256"}]},{"type":"error","name":"TransferPayloadSetElementHeaderTooShort","inputs":[{"name":"index","type":"uint32","internalType":"uint32"},{"name":"actualSetLength","type":"uint256","internalType":"uint256"},{"name":"requiredOffset","type":"uint256","internalType":"uint256"}]},{"type":"error","name":"TransferPayloadSetElementTooShort","inputs":[{"name":"index","type":"uint32","internalType":"uint32"},{"name":"actualSetLength","type":"uint256","internalType":"uint256"},{"name":"requiredOffset","type":"uint256","internalType":"uint256"}]},{"type":"error","name":"TransferPayloadSetHeaderTooShort","inputs":[{"name":"expectedMinimumLength","type":"uint256","internalType":"uint256"},{"name":"actualLength","type":"uint256","internalType":"uint256"}]},{"type":"error","name":"TransferPayloadSetInvalidElementMagic","inputs":[{"name":"index","type":"uint32","internalType":"uint32"},{"name":"actualMagic","type":"bytes4","internalType":"bytes4"}]},{"type":"error","name":"TransferPayloadSetOverallLengthMismatch","inputs":[{"name":"expectedTotalLength","type":"uint256","internalType":"uint256"},{"name":"actualTotalLength","type":"uint256","internalType":"uint256"}]},{"type":"error","name":"TransferSpecHashUsed","inputs":[{"name":"transferSpecHash","type":"bytes32","internalType":"bytes32"}]},{"type":"error","name":"TransferSpecHeaderTooShort","inputs":[{"name":"expectedMinimumLength","type":"uint256","internalType":"uint256"},{"name":"actualLength","type":"uint256","internalType":"uint256"}]},{"type":"error","name":"TransferSpecOverallLengthMismatch","inputs":[{"name":"expectedTotalLength","type":"uint256","internalType":"uint256"},{"name":"actualTotalLength","type":"uint256","internalType":"uint256"}]},{"type":"error","name":"UUPSUnauthorizedCallContext","inputs":[]},{"type":"error","name":"UUPSUnsupportedProxiableUUID","inputs":[{"name":"slot","type":"bytes32","internalType":"bytes32"}]},{"type":"error","name":"UnauthorizedDenylister","inputs":[{"name":"addr","type":"address","internalType":"address"}]},{"type":"error","name":"UnauthorizedPauser","inputs":[{"name":"caller","type":"address","internalType":"address"}]},{"type":"error","name":"UnsupportedToken","inputs":[{"name":"token","type":"address","internalType":"address"}]},{"type":"error","name":"UnsupportedTokenAtIndex","inputs":[{"name":"index","type":"uint32","internalType":"uint32"},{"name":"destinationToken","type":"address","internalType":"address"}]}],"bytecode":{"object":"0x60a060405230608052348015610013575f5ffd5b5061001c610029565b610024610029565b6100db565b7ff0c57e16840df040f15088dc2f81fe391c3923bec73e23a9662efc9c229c6a00805468010000000000000000900460ff16156100795760405163f92ee8a960e01b815260040160405180910390fd5b80546001600160401b03908116146100d85780546001600160401b0319166001600160401b0390811782556040519081527fc7f505b2f371ae2175ee4913f4499e1f2633a7b5936321eed1cdaeb6115181d29060200160405180910390a15b50565b6080516130746101015f395f8181610e7601528181610e9f0152610fc401526130745ff3fe6080604052600436106101a7575f3560e01c806379ba5097116100e3578063a946de0411610092578063d0ed5c2f11610062578063d0ed5c2f146104e2578063e30c3978146104f6578063e877a5261461050a578063f2fde38b14610529575f5ffd5b8063a946de0414610442578063ad3cb1cc14610461578063bcc76c601461049e578063c2fb26a6146104b2575f5ffd5b806379ba5097146103955780638456cb59146103a95780638da5cb5b146103bd57806391d01609146103d15780639cab0c1c146103f05780639fb01cc51461040f5780639fd0506d1461042e575f5ffd5b80634f1ef286116101595780636d69fcaf116101295780636d69fcaf1461032f578063715018a61461034e57806375151b6314610362578063789ea7a614610381575f5ffd5b80634f1ef286146102b857806352d1902d146102cb578063554bab3c146102ed5780635c975abb1461030c575f5ffd5b806317580158146101ab5780631ad20c51146101fa57806324c4992e1461021b57806328fa1d201461023a5780633371bfff146102595780633e5de4df146102785780633f4ba83a146102a4575b5f5ffd5b3480156101b6575f5ffd5b506101e56101c5366004612a1c565b5f9081525f516020612f7f5f395f51905f52602052604090205460ff1690565b60405190151581526020015b60405180910390f35b348015610205575f5ffd5b50610219610214366004612a49565b610548565b005b348015610226575f5ffd5b50610219610235366004612a7a565b6105d7565b348015610245575f5ffd5b50610219610254366004612a7a565b610645565b348015610264575f5ffd5b50610219610273366004612a7a565b610659565b348015610283575f5ffd5b50610297610292366004612a7a565b6106d9565b6040516101f19190612a93565b3480156102af575f5ffd5b50610219610715565b6102196102c6366004612b44565b610751565b3480156102d6575f5ffd5b506102df610770565b6040519081526020016101f1565b3480156102f8575f5ffd5b50610219610307366004612a7a565b61078b565b348015610317575f5ffd5b505f516020612fbf5f395f51905f525460ff166101e5565b34801561033a575f5ffd5b50610219610349366004612a7a565b61079c565b348015610359575f5ffd5b50610219610820565b34801561036d575f5ffd5b506101e561037c366004612a7a565b610831565b34801561038c575f5ffd5b50610297610875565b3480156103a0575f5ffd5b50610219610894565b3480156103b4575f5ffd5b506102196108d0565b3480156103c8575f5ffd5b5061029761090a565b3480156103dc575f5ffd5b506102196103eb366004612bd5565b61093e565b3480156103fb575f5ffd5b5061021961040a366004612a7a565b610a55565b34801561041a575f5ffd5b50610219610429366004612c9f565b610acb565b348015610439575f5ffd5b50610297610b84565b34801561044d575f5ffd5b5061021961045c366004612a7a565b610bab565b34801561046c575f5ffd5b50610491604051806040016040528060058152602001640352e302e360dc1b81525081565b6040516101f19190612cec565b3480156104a9575f5ffd5b50610297610c18565b3480156104bd575f5ffd5b505f516020612fdf5f395f51905f525460405163ffffffff90911681526020016101f1565b3480156104ed575f5ffd5b50610297610c33565b348015610501575f5ffd5b50610297610c41565b348015610515575f5ffd5b506101e5610524366004612a7a565b610c56565b348015610534575f5ffd5b50610219610543366004612a7a565b610c5f565b610550610cd1565b8161055a81610d03565b61056382610d2b565b5f5f516020612fff5f395f51905f526001600160a01b038086165f81815260018401602052604080822080548986166001600160a01b03198216811790925591519596509316938492917f5c3cb1b340c7f4e8dfc2058a7e8992362e063c9ded5e14aa21e23e8856ee183191a45050505050565b6105df610cd1565b6105e881610d2b565b5f516020612fff5f395f51905f5280546001600160a01b031981166001600160a01b03848116918217845560405192169182907f3ee28adbaf1cb9f05d6affa57fdd7935f91450da22212aa9cd54977921983416905f90a3505050565b61064d610cd1565b61065681610d52565b50565b610661610dc2565b600101546001600160a01b031633146106985733604051637446939f60e11b815260040161068f9190612a93565b60405180910390fd5b6106a3816001610de6565b6040516001600160a01b038216907ffa4507bc1f9c730e6e95897024f1fe7d576cf2deb53579d55c14f1ac3439e114905f90a250565b6001600160a01b039081165f9081527fa13f18ce64168e6d2f5aa74009cc3360c0bed33f0845237965d1e1378d32aa0160205260409020541690565b3361071e610b84565b6001600160a01b031614610747573360405163ae3b56d560e01b815260040161068f9190612a93565b61074f610e1d565b565b610759610e6b565b61076282610ef9565b61076c8282610f01565b5050565b5f610779610fb9565b505f516020612f9f5f395f51905f5290565b610793610cd1565b61065681611002565b6107a4610cd1565b6001600160a01b0381165f9081527f3ba16516a08fb9c5c48fb6662657ad4ffe1c779829969b4c7abdb9287bbf8500602052604090819020805460ff19166001179055517fea3145306a87baeba6bb1a8b5c8d3744f840a81cb436b3509f64fc978600cdfb90610815908390612a93565b60405180910390a150565b610828610cd1565b61074f5f611072565b5f7f3ba16516a08fb9c5c48fb6662657ad4ffe1c779829969b4c7abdb9287bbf85005b6001600160a01b039092165f90815260209290925250604090205460ff1690565b5f5f516020612fff5f395f51905f525b546001600160a01b0316919050565b338061089e610c41565b6001600160a01b0316146108c7578060405163118cdaa760e01b815260040161068f9190612a93565b61065681611072565b336108d9610b84565b6001600160a01b031614610902573360405163ae3b56d560e01b815260040161068f9190612a93565b61074f611097565b5f807f9016d09d72d40fdae2fd8ceac6b6234c7706214fd39c1cd1e609a0528c1993005b546001600160a01b031692915050565b7ff0c57e16840df040f15088dc2f81fe391c3923bec73e23a9662efc9c229c6a00805460029190600160401b900460ff1680610987575080546001600160401b03808416911610155b156109a55760405163f92ee8a960e01b815260040160405180910390fd5b805468ffffffffffffffffff19166001600160401b03831617600160401b1781558683146109e657604051630bcd357d60e11b815260040160405180910390fd5b6109f48b8b8b8b8b8b6110df565b610a01858989878761111d565b805460ff60401b191681556040516001600160401b03831681527fc7f505b2f371ae2175ee4913f4499e1f2633a7b5936321eed1cdaeb6115181d29060200160405180910390a15050505050505050505050565b610a5d610dc2565b600101546001600160a01b03163314610a8b5733604051637446939f60e11b815260040161068f9190612a93565b610a95815f610de6565b6040516001600160a01b038216907fc904e1b03de0c20d7fcf9dbd056daf1bd3815e93f251199de815fd0f0b96e166905f90a250565b610ad36111cb565b33610add816111fb565b610ae78383611224565b5f610af18461129f565b9050806040015163ffffffff165f03610b1d57604051630b08586360e01b815260040160405180910390fd5b5f5b8160800151610b7d57610b3182611336565b90505f60018360600151610b459190612d35565b9050610b51828261141a565b5f610b6162ffffff198416611462565b9050610b6d81836114e9565b610b7681611788565b5050610b1f565b5050505050565b5f7f7e0f0117f6f510f2a35b1c8185f303b28ba884334cd776f9d98e2abef24e2f00610885565b610bb3610cd1565b5f610bbc610dc2565b600101546001600160a01b03169050610bd48261191a565b816001600160a01b0316816001600160a01b03167fe144e84038182cefebda68c192c222085b2c12a85d135d3c938498c0165c01d360405160405180910390a35050565b5f610c21610dc2565b600101546001600160a01b0316919050565b5f610c3c611947565b905090565b5f805f51602061301f5f395f51905f5261092e565b5f610854610dc2565b610c67610cd1565b5f51602061301f5f395f51905f5280546001600160a01b0319166001600160a01b0383169081178255610c9861090a565b6001600160a01b03167f38d16b8cac22d99fc7c124b9cd0de2d3fa1faef420bfe791d8c362d765e2270060405160405180910390a35050565b33610cda61090a565b6001600160a01b03161461074f573360405163118cdaa760e01b815260040161068f9190612a93565b610d0c81610831565b6106565780604051635f8b555b60e11b815260040161068f9190612a93565b6001600160a01b0381166106565760405163e6c4247b60e01b815260040160405180910390fd5b7f93e77e25ef9d7551b01674a3ef68f44dcb2b33c68692c96a16f33bfe6d355b0080546001600160a01b038381166001600160a01b0319831681179093556040519116919082907f170daccf9d49b9527882eaa9db5b8bf46755741963748f5ecd16eacbe5d21614905f90a35050565b7f77aee7014301166d8532df7f3d0b1c40d5b12f074d2d69255b43654e0419340090565b80610def610dc2565b6001600160a01b03939093165f9081526020939093526040909220805460ff19169215159290921790915550565b610e2561196e565b5f516020612fbf5f395f51905f52805460ff191681557f5db9ee0a495bf2e6ff9c91a7834c1ba4fdd244a5e8aa4e537bd38aeae4b073aa335b6040516108159190612a93565b306001600160a01b037f0000000000000000000000000000000000000000000000000000000000000000161480610edb57507f00000000000000000000000000000000000000000000000000000000000000006001600160a01b0316610ecf61199d565b6001600160a01b031614155b1561074f5760405163703e46dd60e11b815260040160405180910390fd5b610656610cd1565b816001600160a01b03166352d1902d6040518163ffffffff1660e01b8152600401602060405180830381865afa925050508015610f5b575060408051601f3d908101601f19168201909252610f5891810190612d51565b60015b610f7a5781604051634c9c8ce360e01b815260040161068f9190612a93565b5f516020612f9f5f395f51905f528114610faa57604051632a87526960e21b81526004810182905260240161068f565b610fb483836119b1565b505050565b306001600160a01b037f0000000000000000000000000000000000000000000000000000000000000000161461074f5760405163703e46dd60e11b815260040160405180910390fd5b7f7e0f0117f6f510f2a35b1c8185f303b28ba884334cd776f9d98e2abef24e2f0080546001600160a01b038381166001600160a01b0319831681179093556040519116919082907f95bb211a5a393c4d30c3edc9a745825fba4e6ad3e3bb949e6bf8ccdfe431a811905f90a35050565b5f51602061301f5f395f51905f5280546001600160a01b031916815561076c82611a06565b61109f6111cb565b5f516020612fbf5f395f51905f52805460ff191660011781557f62e78cea01bee320cd4e420270b5ea74000d11b0c9f74754ebdbfc544b05a25833610e5e565b6110e7611a76565b6110f086611abf565b6110f985611acf565b61110284611ae0565b61110c8383611ae8565b61111581611b2c565b505050505050565b611125611a76565b61112e856105d7565b5f5b81811015611115575f83838381811061114b5761114b612d68565b90506020020160208101906111609190612a7a565b90506001600160a01b038116156111c2576111c286868481811061118657611186612d68565b905060200201602081019061119b9190612a7a565b8585858181106111ad576111ad612d68565b90506020020160208101906102149190612a7a565b50600101611130565b5f516020612fbf5f395f51905f525460ff161561074f5760405163d93c066560e01b815260040160405180910390fd5b61120481610c56565b1561065657806040516313f7662b60e11b815260040161068f9190612a93565b815160208301207f19457468657265756d205369676e6564204d6573736167653a0a3332000000005f908152601c91909152603c81206112649083611b5c565b905061126e610875565b6001600160a01b0316816001600160a01b031614610fb45760405163127a982d60e01b815260040160405180910390fd5b6040805160a0810182525f808252602082018190529181018290526060810182905260808101829052906112d283611b86565b62ffffff19811683525f606084015290506112ec81611bb7565b61130a57505f60208201819052600160408301526080820152919050565b5f61131482611bd9565b6008602085015263ffffffff1660408401819052156080840152509092915050565b5f81608001511561135a57604051631365229760e31b815260040160405180910390fd5b5f611383602461ffff1684602001516113739190612d7c565b845162ffffff1916906004611be8565b90505f611391826028612d8f565b6020850151855163ffffffff9290921692506113b99162ffffff1916908363ff6fb334611c19565b925080846020018181516113cd9190612d7c565b905250606084018051906113e082612dab565b63ffffffff1663ffffffff1681525050836040015163ffffffff16846060015163ffffffff161061141357600160808501525b5050919050565b5f61142a62ffffff198416611c94565b905043811015610fb45760405163a31dc54b60e01b815263ffffffff831660048201526024810182905243604482015260640161068f565b5f5f61146d83611ca8565b90505f61148d62ffffff198516602863ffffffff851663ca85def7611c19565b90505f6114a262ffffff198316826004611cbc565b90506001600160e01b0319811663ca85def760e01b146114e157604051633c2c863160e11b81526001600160e01b03198216600482015260240161068f565b509392505050565b5f6114f962ffffff198416611e12565b9050805f0361152357604051639965533d60e01b815263ffffffff8316600482015260240161068f565b61154061153b61153862ffffff198616611e27565b90565b6111fb565b5f61155361153862ffffff198616611e3b565b90506001600160a01b0381161580159061157657506001600160a01b0381163314155b1561159a5782813360405163e379362b60e01b815260040161068f93929190612dcf565b5f6115aa62ffffff198616611e4f565b5f516020612fdf5f395f51905f525490915063ffffffff80831691161461161a5783816115e85f516020612fdf5f395f51905f525463ffffffff1690565b604051635ddf7e5d60e01b815263ffffffff93841660048201529183166024830152909116604482015260640161068f565b5f61162d61153862ffffff198816611e63565b90506001600160a01b038116301461165e57848130604051635009207360e11b815260040161068f93929190612dcf565b5f61167161153862ffffff198916611e77565b905061167c81610831565b6116b05760405163600a901b60e01b815263ffffffff871660048201526001600160a01b038216602482015260440161068f565b5f6116c062ffffff198916611e8b565b90508363ffffffff168163ffffffff160361177e575f6116e861153862ffffff198b16611e9f565b90505f6116f3611947565b9050806001600160a01b0316826001600160a01b03161461172d57888282604051637da6c03b60e01b815260040161068f93929190612dcf565b5f61174061153862ffffff198d16611eb3565b9050846001600160a01b0316816001600160a01b03161461177a57898186604051633798b0bd60e01b815260040161068f93929190612dcf565b5050505b5050505050505050565b5f61179862ffffff198316611ec7565b90506117a381611ed7565b5f6117b661153862ffffff198516611e27565b90505f6117c862ffffff198516611e12565b90505f6117dd61153862ffffff198716611e77565b90505f6117ef62ffffff198716611e8b565b90505f61180162ffffff198816611f0a565b90505f61181362ffffff198916611f1e565b90505f61181f856106d9565b90505f6001600160a01b038216156118375781611839565b855b6040516340c10f1960e01b81526001600160a01b038a81166004830152602482018a9052919250908216906340c10f19906044016020604051808303815f875af1158015611889573d5f5f3e3d5ffd5b505050506040513d601f19601f820116820180604052508101906118ad9190612df6565b506040805163ffffffff87168152602081018690529081018490526060810188905289906001600160a01b03808b1691908916907fbb312ce0cc311b2cb0746e09ccd2f91fdb9e2ac755d2f11c65300eb0d0fffd639060800160405180910390a450505050505050505050565b80611923610dc2565b60010180546001600160a01b0319166001600160a01b039290921691909117905550565b5f7f93e77e25ef9d7551b01674a3ef68f44dcb2b33c68692c96a16f33bfe6d355b00610885565b5f516020612fbf5f395f51905f525460ff1661074f57604051638dfc202b60e01b815260040160405180910390fd5b5f5f516020612f9f5f395f51905f52610885565b6119ba82611f32565b6040516001600160a01b038316907fbc7cd75a20ee27fd9adebab32041f755214dbc6bffa90cc0225b39da2e5c2d3b905f90a28051156119fe57610fb48282611f8c565b61076c611ffe565b7f9016d09d72d40fdae2fd8ceac6b6234c7706214fd39c1cd1e609a0528c19930080546001600160a01b031981166001600160a01b03848116918217845560405192169182907f8be0079c531659141344cd1fd0a4f28419497f9722a3daafe3b4186f6b6457e0905f90a3505050565b7ff0c57e16840df040f15088dc2f81fe391c3923bec73e23a9662efc9c229c6a0054600160401b900460ff1661074f57604051631afcd79f60e31b815260040160405180910390fd5b611ac7611a76565b61079361201d565b611ad7611a76565b61065681610bab565b61064d611a76565b611af0611a76565b5f5b81811015610fb457611b24838383818110611b0f57611b0f612d68565b90506020020160208101906103499190612a7a565b600101611af2565b611b34611a76565b5f516020612fdf5f395f51905f52805463ffffffff191663ffffffff92909216919091179055565b5f5f5f5f611b6a868661202d565b925092509250611b7a8282612076565b50909150505b92915050565b5f611b908261212e565b9050611b9b81611bb7565b15611bae57611ba981612208565b919050565b611ba98161244f565b5f631e12db7160e01b611bd262ffffff198416836004611cbc565b1492915050565b5f611b8062ffffff1983166004805b5f611bf4826020612e15565b611bff906008612e2e565b60ff16611c0d858585611cbc565b901c90505b9392505050565b5f5f611c2e8660781c6001600160601b031690565b6001600160601b03169050611c428661246d565b84611c4d8784612d7c565b611c579190612d7c565b1115611c6a5762ffffff19915050611c8c565b611c748582612d7c565b9050611c888364ffffffffff1682866124a5565b9150505b949350505050565b5f611b8062ffffff19831660046020611be8565b5f611b8062ffffff19831660246004611be8565b5f8160ff165f03611cce57505f611c12565b611ce18460181c6001600160601b031690565b6001600160601b0316611cf760ff841685612d7c565b1115611d5b57611d42611d138560781c6001600160601b031690565b6001600160601b0316611d2f8660181c6001600160601b031690565b6001600160601b0316858560ff166124e9565b60405162461bcd60e51b815260040161068f9190612cec565b60208260ff161115611dd55760405162461bcd60e51b815260206004820152603a60248201527f54797065644d656d566965772f696e646578202d20417474656d70746564207460448201527f6f20696e646578206d6f7265207468616e203332206279746573000000000000606482015260840161068f565b600882025f611ded8660781c6001600160601b031690565b6001600160601b031690505f600160ff1b5f1984011d91909501511695945050505050565b5f611b8062ffffff1983166101106020611be8565b5f611b8062ffffff19831660b06020611cbc565b5f611b8062ffffff19831660f06020611cbc565b5f611b8062ffffff198316600c6004611be8565b5f611b8062ffffff19831660306020611cbc565b5f611b8062ffffff19831660706020611cbc565b5f611b8062ffffff19831660086004611be8565b5f611b8062ffffff19831660106020611cbc565b5f611b8062ffffff19831660506020611cbc565b5f611b8062ffffff198316612553565b611ee08161259a565b610656815f9081525f516020612f7f5f395f51905f5260205260409020805460ff19166001179055565b5f611b8062ffffff19831660906020611cbc565b5f611b8062ffffff19831660d06020611cbc565b806001600160a01b03163b5f03611f5e5780604051634c9c8ce360e01b815260040161068f9190612a93565b5f516020612f9f5f395f51905f5280546001600160a01b0319166001600160a01b0392909216919091179055565b60605f5f846001600160a01b031684604051611fa89190612e51565b5f60405180830381855af49150503d805f8114611fe0576040519150601f19603f3d011682016040523d82523d5f602084013e611fe5565b606091505b5091509150611ff58583836125d8565b95945050505050565b341561074f5760405163b398979f60e01b815260040160405180910390fd5b612025611a76565b61074f61262b565b5f5f5f8351604103612064576020840151604085015160608601515f1a6120568882858561264b565b95509550955050505061206f565b505081515f91506002905b9250925092565b5f82600381111561208957612089612e67565b03612092575050565b60018260038111156120a6576120a6612e67565b036120c45760405163f645eedf60e01b815260040160405180910390fd5b60028260038111156120d8576120d8612e67565b036120f95760405163fce698f760e01b81526004810182905260240161068f565b600382600381111561210d5761210d612e67565b0361076c576040516335e2f38360e21b81526004810182905260240161068f565b5f600460ff1682511015612161578151604051631743c8a560e31b8152600480820152602481019190915260440161068f565b5f61216c8382612709565b90505f61218162ffffff198316826004611cbc565b90506224133360e21b6001600160e01b03198216016121be576121b763ff6fb3345b60d81b6301000000600160d81b0384161790565b9250611413565b63e1ed248f60e01b6001600160e01b03198216016121e3576121b7631e12db716121a3565b60405163319b52eb60e11b81526001600160e01b03198216600482015260240161068f565b6008601882901c6001600160601b0316101561224d57604051637c087ac560e11b815260086004820152601882901c6001600160601b0316602482015260440161068f565b5f61225782611bd9565b905060085f5b8263ffffffff168163ffffffff16101561240b575f61227d602884612d7c565b9050601885901c6001600160601b03168111156122cf57604051631f7a270f60e31b815263ffffffff83166004820152601886901c6001600160601b031660248201526044810182905260640161068f565b5f6122ed6122de602486612d7c565b62ffffff198816906004611be8565b90505f6122fb826028612d8f565b63ffffffff1690505f61230e8287612d7c565b9050601888901c6001600160601b031681111561236057604051631014f32560e31b815263ffffffff86166004820152601889901c6001600160601b031660248201526044810182905260640161068f565b5f61237d61236e8289612d7c565b62ffffff198b16906004611cbc565b90506001600160e01b0319811660016224133360e21b0319146123cb576040516312b22cbd60e01b815263ffffffff871660048201526001600160e01b03198216602482015260440161068f565b5f6123e262ffffff198b16898663ff6fb334611c19565b90506123ed8161244f565b6123f78489612d7c565b9750506001909501945061225d9350505050565b50601883901c6001600160601b03168114610fb457604051633c99ab2560e21b815260048101829052601884901c6001600160601b0316602482015260440161068f565b61245881612723565b5f61246282611462565b905061076c816127cb565b5f6124818260181c6001600160601b031690565b6124948360781c6001600160601b031690565b016001600160601b03169050919050565b5f806124b18385612d7c565b90506040518111156124c057505f5b805f036124d45762ffffff19915050611c12565b5050606092831b9190911790911b1760181b90565b60605f6124f5866128b7565b9150505f612502866128b7565b9150505f61250f866128b7565b9150505f61251c866128b7565b915050838383836040516020016125369493929190612e7b565b604051602081830303815290604052945050505050949350505050565b5f5f6125688360781c6001600160601b031690565b6001600160601b031690505f6125878460181c6001600160601b031690565b6001600160601b03169091209392505050565b5f8181525f516020612f7f5f395f51905f52602052604090205460ff161561065657604051630b06514960e11b81526004810182905260240161068f565b6060826125ed576125e88261295f565b611c12565b815115801561260457506001600160a01b0384163b155b156126245783604051639996b31560e01b815260040161068f9190612a93565b5080611c12565b612633611a76565b5f516020612fbf5f395f51905f52805460ff19169055565b5f80806fa2a8918ca85bafe22016d0b997e4df60600160ff1b0384111561267a57505f915060039050826126ff565b604080515f808252602082018084528a905260ff891692820192909252606081018790526080810186905260019060a0016020604051602081039080840390855afa1580156126cb573d5f5f3e3d5ffd5b5050604051601f1901519150506001600160a01b0381166126f657505f9250600191508290506126ff565b92505f91508190505b9450945094915050565b81515f9060208401611ff564ffffffffff851682846124a5565b6028601882901c6001600160601b031610156127685760405163161e118160e31b815260286004820152601882901c6001600160601b0316602482015260440161068f565b5f61277282611ca8565b90505f612780826028612d8f565b63ffffffff169050601883901c6001600160601b03168114610fb4576040516316279d8b60e21b815260048101829052601884901c6001600160601b0316602482015260440161068f565b610154601882901c6001600160601b0316101561281257604051631cd8e33f60e11b81526101546004820152601882901c6001600160601b0316602482015260440161068f565b5f61281c82611bd9565b905063ffffffff811660011461284d57604051633665681760e11b815263ffffffff8216600482015260240161068f565b5f61285783612988565b90505f61286682610154612d8f565b63ffffffff169050601884901c6001600160601b031681146128b157604051633df4634560e01b815260048101829052601885901c6001600160601b0316602482015260440161068f565b50505050565b5f80601f5b600f8160ff161115612909575f6128d4826008612e2e565b60ff1685901c90506128e58161299d565b61ffff16841793508160ff1660101461290057601084901b93505b505f19016128bc565b50600f5b60ff8160ff161015612959575f612925826008612e2e565b60ff1685901c90506129368161299d565b61ffff16831792508160ff165f1461295057601083901b92505b505f190161290d565b50915091565b80511561296f5780518082602001fd5b60405163d6bda27560e01b815260040160405180910390fd5b5f611b8062ffffff1983166101506004611be8565b5f6129ae60048360ff16901c6129ce565b60ff1661ffff919091161760081b6129c5826129ce565b60ff1617919050565b6040805180820190915260108082526f181899199a1a9b1b9c1cb0b131b232b360811b60208301525f91600f84169182908110612a0d57612a0d612d68565b016020015160f81c9392505050565b5f60208284031215612a2c575f5ffd5b5035919050565b80356001600160a01b0381168114611ba9575f5ffd5b5f5f60408385031215612a5a575f5ffd5b612a6383612a33565b9150612a7160208401612a33565b90509250929050565b5f60208284031215612a8a575f5ffd5b611c1282612a33565b6001600160a01b0391909116815260200190565b634e487b7160e01b5f52604160045260245ffd5b5f82601f830112612aca575f5ffd5b81356001600160401b03811115612ae357612ae3612aa7565b604051601f8201601f19908116603f011681016001600160401b0381118282101715612b1157612b11612aa7565b604052818152838201602001851015612b28575f5ffd5b816020850160208301375f918101602001919091529392505050565b5f5f60408385031215612b55575f5ffd5b612b5e83612a33565b915060208301356001600160401b03811115612b78575f5ffd5b612b8485828601612abb565b9150509250929050565b5f5f83601f840112612b9e575f5ffd5b5081356001600160401b03811115612bb4575f5ffd5b6020830191508360208260051b8501011115612bce575f5ffd5b9250929050565b5f5f5f5f5f5f5f5f5f60e08a8c031215612bed575f5ffd5b612bf68a612a33565b9850612c0460208b01612a33565b9750612c1260408b01612a33565b965060608a01356001600160401b03811115612c2c575f5ffd5b612c388c828d01612b8e565b90975095505060808a013563ffffffff81168114612c54575f5ffd5b9350612c6260a08b01612a33565b925060c08a01356001600160401b03811115612c7c575f5ffd5b612c888c828d01612b8e565b915080935050809150509295985092959850929598565b5f5f60408385031215612cb0575f5ffd5b82356001600160401b03811115612cc5575f5ffd5b612cd185828601612abb565b92505060208301356001600160401b03811115612b78575f5ffd5b602081525f82518060208401528060208501604085015e5f604082850101526040601f19601f83011684010191505092915050565b634e487b7160e01b5f52601160045260245ffd5b63ffffffff8281168282160390811115611b8057611b80612d21565b5f60208284031215612d61575f5ffd5b5051919050565b634e487b7160e01b5f52603260045260245ffd5b80820180821115611b8057611b80612d21565b63ffffffff8181168382160190811115611b8057611b80612d21565b5f63ffffffff821663ffffffff8103612dc657612dc6612d21565b60010192915050565b63ffffffff9390931683526001600160a01b03918216602084015216604082015260600190565b5f60208284031215612e06575f5ffd5b81518015158114611c12575f5ffd5b60ff8281168282160390811115611b8057611b80612d21565b60ff8181168382160290811690818114612e4a57612e4a612d21565b5092915050565b5f82518060208501845e5f920191825250919050565b634e487b7160e01b5f52602160045260245ffd5b7f54797065644d656d566965772f696e646578202d204f76657272616e20746865815274040ecd2caee5c40a6d8d2c6ca40d2e640c2e84060f605b1b602082015260d085811b6001600160d01b031990811660358401526e040eed2e8d040d8cadccee8d04060f608b1b603b84015285821b8116604a8401527f2e20417474656d7074656420746f20696e646578206174206f666673657420306050840152600f60fb1b60708401529084901b1660718201525f612f51607783016e040eed2e8d040d8cadccee8d04060f608b1b8152600f0190565b612f67818560d01b6001600160d01b0319169052565b601760f91b6006820152600701969550505050505056fe20b6f2ac2ef95221991caf3be38efadb0bb1d3093c65d3a8c962def8d652ee00360894a13ba1a3210667c828492db98dca3e2076cc3735a920a3ca505d382bbccd5ed15c6e187e77e9aee88184c21f4f2182ab5827cb3b7e07fbedcd63f03300fe4c86d7e89d95779292c8077b542f271e850fa895928d0b7b19a0ae50865c00a13f18ce64168e6d2f5aa74009cc3360c0bed33f0845237965d1e1378d32aa00237e158222e3e6968b72b9db0d8043aacf074ad9f650f0d1606b4d82ee432c00a2646970667358221220ce5884eeaf0e811cfdd26568a258ba577ca7bf5be764e480107ddc6db78d8d1264736f6c634300081d0033","linkReferences":{}},"methodIdentifiers":{"UPGRADE_INTERFACE_VERSION()":"ad3cb1cc","acceptOwnership()":"79ba5097","addSupportedToken(address)":"6d69fcaf","attestationSigner()":"789ea7a6","denylist(address)":"3371bfff","denylister()":"bcc76c60","domain()":"c2fb26a6","gatewayMint(bytes,bytes)":"9fb01cc5","initialize(address,address,address,address[],uint32,address,address[])":"91d01609","isDenylisted(address)":"e877a526","isTokenSupported(address)":"75151b63","isTransferSpecHashUsed(bytes32)":"17580158","owner()":"8da5cb5b","pause()":"8456cb59","paused()":"5c975abb","pauser()":"9fd0506d","pendingOwner()":"e30c3978","proxiableUUID()":"52d1902d","renounceOwnership()":"715018a6","tokenMintAuthority(address)":"3e5de4df","transferOwnership(address)":"f2fde38b","unDenylist(address)":"9cab0c1c","unpause()":"3f4ba83a","updateAttestationSigner(address)":"24c4992e","updateCounterpart(address)":"28fa1d20","updateDenylister(address)":"a946de04","updateMintAuthority(address,address)":"1ad20c51","updatePauser(address)":"554bab3c","upgradeToAndCall(address,bytes)":"4f1ef286","walletContract()":"d0ed5c2f"},"id":29}