{"abi":[{"type":"constructor","inputs":[],"stateMutability":"nonpayable"},{"type":"function","name":"UPGRADE_INTERFACE_VERSION","inputs":[],"outputs":[{"name":"","type":"string","internalType":"string"}],"stateMutability":"view"},{"type":"function","name":"acceptOwnership","inputs":[],"outputs":[],"stateMutability":"nonpayable"},{"type":"function","name":"addSupportedToken","inputs":[{"name":"token","type":"address","internalType":"address"}],"outputs":[],"stateMutability":"nonpayable"},{"type":"function","name":"denylist","inputs":[{"name":"addr","type":"address","internalType":"address"}],"outputs":[],"stateMutability":"nonpayable"},{"type":"function","name":"denylister","inputs":[],"outputs":[{"name":"","type":"address","internalType":"address"}],"stateMutability":"view"},{"type":"function","name":"domain","inputs":[],"outputs":[{"name":"","type":"uint32","internalType":"uint32"}],"stateMutability":"view"},{"type":"function","name":"gatewayMint","inputs":[{"name":"authorization","type":"bytes","internalType":"bytes"},{"name":"signature","type":"bytes","internalType":"bytes"}],"outputs":[],"stateMutability":"nonpayable"},{"type":"function","name":"initialize","inputs":[{"name":"pauser_","type":"address","internalType":"address"},{"name":"denylister_","type":"address","internalType":"address"},{"name":"wallet_","type":"address","internalType":"address"},{"name":"supportedTokens_","type":"address[]","internalType":"address[]"},{"name":"domain_","type":"uint32","internalType":"uint32"},{"name":"mintAuthorizationSigner_","type":"address","internalType":"address"},{"name":"tokenMintAuthorities_","type":"address[]","internalType":"address[]"}],"outputs":[],"stateMutability":"nonpayable"},{"type":"function","name":"isDenylisted","inputs":[{"name":"addr","type":"address","internalType":"address"}],"outputs":[{"name":"","type":"bool","internalType":"bool"}],"stateMutability":"view"},{"type":"function","name":"isTokenSupported","inputs":[{"name":"token","type":"address","internalType":"address"}],"outputs":[{"name":"","type":"bool","internalType":"bool"}],"stateMutability":"view"},{"type":"function","name":"mintAuthorizationSigner","inputs":[],"outputs":[{"name":"","type":"address","internalType":"address"}],"stateMutability":"view"},{"type":"function","name":"owner","inputs":[],"outputs":[{"name":"","type":"address","internalType":"address"}],"stateMutability":"view"},{"type":"function","name":"pause","inputs":[],"outputs":[],"stateMutability":"nonpayable"},{"type":"function","name":"paused","inputs":[],"outputs":[{"name":"","type":"bool","internalType":"bool"}],"stateMutability":"view"},{"type":"function","name":"pauser","inputs":[],"outputs":[{"name":"","type":"address","internalType":"address"}],"stateMutability":"view"},{"type":"function","name":"pendingOwner","inputs":[],"outputs":[{"name":"","type":"address","internalType":"address"}],"stateMutability":"view"},{"type":"function","name":"proxiableUUID","inputs":[],"outputs":[{"name":"","type":"bytes32","internalType":"bytes32"}],"stateMutability":"view"},{"type":"function","name":"renounceOwnership","inputs":[],"outputs":[],"stateMutability":"nonpayable"},{"type":"function","name":"tokenMintAuthority","inputs":[{"name":"token","type":"address","internalType":"address"}],"outputs":[{"name":"","type":"address","internalType":"address"}],"stateMutability":"view"},{"type":"function","name":"transferOwnership","inputs":[{"name":"newOwner","type":"address","internalType":"address"}],"outputs":[],"stateMutability":"nonpayable"},{"type":"function","name":"transferSpecHashUsed","inputs":[{"name":"transferSpecHash","type":"bytes32","internalType":"bytes32"}],"outputs":[{"name":"","type":"bool","internalType":"bool"}],"stateMutability":"view"},{"type":"function","name":"unDenylist","inputs":[{"name":"addr","type":"address","internalType":"address"}],"outputs":[],"stateMutability":"nonpayable"},{"type":"function","name":"unpause","inputs":[],"outputs":[],"stateMutability":"nonpayable"},{"type":"function","name":"updateCounterpart","inputs":[{"name":"newCounterpart","type":"address","internalType":"address"}],"outputs":[],"stateMutability":"nonpayable"},{"type":"function","name":"updateDenylister","inputs":[{"name":"newDenylister","type":"address","internalType":"address"}],"outputs":[],"stateMutability":"nonpayable"},{"type":"function","name":"updateMintAuthority","inputs":[{"name":"token","type":"address","internalType":"address"},{"name":"newMintAuthority","type":"address","internalType":"address"}],"outputs":[],"stateMutability":"nonpayable"},{"type":"function","name":"updateMintAuthorizationSigner","inputs":[{"name":"newMintAuthorizationSigner","type":"address","internalType":"address"}],"outputs":[],"stateMutability":"nonpayable"},{"type":"function","name":"updatePauser","inputs":[{"name":"newPauser","type":"address","internalType":"address"}],"outputs":[],"stateMutability":"nonpayable"},{"type":"function","name":"upgradeToAndCall","inputs":[{"name":"newImplementation","type":"address","internalType":"address"},{"name":"data","type":"bytes","internalType":"bytes"}],"outputs":[],"stateMutability":"payable"},{"type":"function","name":"walletContract","inputs":[],"outputs":[{"name":"","type":"address","internalType":"contract GatewayWallet"}],"stateMutability":"view"},{"type":"event","name":"CounterpartUpdated","inputs":[{"name":"newCounterpart","type":"address","indexed":false,"internalType":"address"}],"anonymous":false},{"type":"event","name":"Denylisted","inputs":[{"name":"addr","type":"address","indexed":true,"internalType":"address"}],"anonymous":false},{"type":"event","name":"DenylisterChanged","inputs":[{"name":"oldDenylister","type":"address","indexed":true,"internalType":"address"},{"name":"newDenylister","type":"address","indexed":true,"internalType":"address"}],"anonymous":false},{"type":"event","name":"Initialized","inputs":[{"name":"version","type":"uint64","indexed":false,"internalType":"uint64"}],"anonymous":false},{"type":"event","name":"MintAuthorityUpdated","inputs":[{"name":"token","type":"address","indexed":false,"internalType":"address"},{"name":"oldMintAuthority","type":"address","indexed":false,"internalType":"address"},{"name":"newMintAuthority","type":"address","indexed":false,"internalType":"address"}],"anonymous":false},{"type":"event","name":"MintAuthorizationSignerUpdated","inputs":[{"name":"oldMintAuthorizationSigner","type":"address","indexed":false,"internalType":"address"},{"name":"newMintAuthorizationSigner","type":"address","indexed":false,"internalType":"address"}],"anonymous":false},{"type":"event","name":"MintAuthorizationUsed","inputs":[{"name":"token","type":"address","indexed":true,"internalType":"address"},{"name":"recipient","type":"address","indexed":true,"internalType":"address"},{"name":"transferSpecHash","type":"bytes32","indexed":true,"internalType":"bytes32"},{"name":"sourceDomain","type":"uint32","indexed":false,"internalType":"uint32"},{"name":"sourceDepositor","type":"bytes32","indexed":false,"internalType":"bytes32"},{"name":"sourceSigner","type":"bytes32","indexed":false,"internalType":"bytes32"},{"name":"value","type":"uint256","indexed":false,"internalType":"uint256"}],"anonymous":false},{"type":"event","name":"OwnershipTransferStarted","inputs":[{"name":"previousOwner","type":"address","indexed":true,"internalType":"address"},{"name":"newOwner","type":"address","indexed":true,"internalType":"address"}],"anonymous":false},{"type":"event","name":"OwnershipTransferred","inputs":[{"name":"previousOwner","type":"address","indexed":true,"internalType":"address"},{"name":"newOwner","type":"address","indexed":true,"internalType":"address"}],"anonymous":false},{"type":"event","name":"Paused","inputs":[{"name":"account","type":"address","indexed":false,"internalType":"address"}],"anonymous":false},{"type":"event","name":"PauserUpdated","inputs":[{"name":"newPauser","type":"address","indexed":false,"internalType":"address"}],"anonymous":false},{"type":"event","name":"TokenSupported","inputs":[{"name":"token","type":"address","indexed":false,"internalType":"address"}],"anonymous":false},{"type":"event","name":"UnDenylisted","inputs":[{"name":"addr","type":"address","indexed":true,"internalType":"address"}],"anonymous":false},{"type":"event","name":"Unpaused","inputs":[{"name":"account","type":"address","indexed":false,"internalType":"address"}],"anonymous":false},{"type":"event","name":"Upgraded","inputs":[{"name":"implementation","type":"address","indexed":true,"internalType":"address"}],"anonymous":false},{"type":"error","name":"AccountDenylisted","inputs":[{"name":"addr","type":"address","internalType":"address"}]},{"type":"error","name":"AddressEmptyCode","inputs":[{"name":"target","type":"address","internalType":"address"}]},{"type":"error","name":"AuthorizationDataTooShort","inputs":[{"name":"expectedMinimumLength","type":"uint256","internalType":"uint256"},{"name":"actualLength","type":"uint256","internalType":"uint256"}]},{"type":"error","name":"AuthorizationExpiredAtIndex","inputs":[{"name":"index","type":"uint32","internalType":"uint32"},{"name":"maxBlockHeight","type":"uint256","internalType":"uint256"},{"name":"currentBlock","type":"uint256","internalType":"uint256"}]},{"type":"error","name":"AuthorizationHeaderTooShort","inputs":[{"name":"expectedMinimumLength","type":"uint256","internalType":"uint256"},{"name":"actualLength","type":"uint256","internalType":"uint256"}]},{"type":"error","name":"AuthorizationOverallLengthMismatch","inputs":[{"name":"expectedTotalLength","type":"uint256","internalType":"uint256"},{"name":"actualTotalLength","type":"uint256","internalType":"uint256"}]},{"type":"error","name":"AuthorizationSetElementHeaderTooShort","inputs":[{"name":"index","type":"uint32","internalType":"uint32"},{"name":"actualSetLength","type":"uint256","internalType":"uint256"},{"name":"requiredOffset","type":"uint256","internalType":"uint256"}]},{"type":"error","name":"AuthorizationSetElementTooShort","inputs":[{"name":"index","type":"uint32","internalType":"uint32"},{"name":"actualSetLength","type":"uint256","internalType":"uint256"},{"name":"requiredOffset","type":"uint256","internalType":"uint256"}]},{"type":"error","name":"AuthorizationSetHeaderTooShort","inputs":[{"name":"expectedMinimumLength","type":"uint256","internalType":"uint256"},{"name":"actualLength","type":"uint256","internalType":"uint256"}]},{"type":"error","name":"AuthorizationSetInvalidElementMagic","inputs":[{"name":"index","type":"uint32","internalType":"uint32"},{"name":"actualMagic","type":"bytes4","internalType":"bytes4"}]},{"type":"error","name":"AuthorizationSetOverallLengthMismatch","inputs":[{"name":"expectedTotalLength","type":"uint256","internalType":"uint256"},{"name":"actualTotalLength","type":"uint256","internalType":"uint256"}]},{"type":"error","name":"AuthorizationValueMustBePositiveAtIndex","inputs":[{"name":"index","type":"uint32","internalType":"uint32"}]},{"type":"error","name":"CursorOutOfBounds","inputs":[]},{"type":"error","name":"ECDSAInvalidSignature","inputs":[]},{"type":"error","name":"ECDSAInvalidSignatureLength","inputs":[{"name":"length","type":"uint256","internalType":"uint256"}]},{"type":"error","name":"ECDSAInvalidSignatureS","inputs":[{"name":"s","type":"bytes32","internalType":"bytes32"}]},{"type":"error","name":"ERC1967InvalidImplementation","inputs":[{"name":"implementation","type":"address","internalType":"address"}]},{"type":"error","name":"ERC1967NonPayable","inputs":[]},{"type":"error","name":"EnforcedPause","inputs":[]},{"type":"error","name":"ExpectedPause","inputs":[]},{"type":"error","name":"FailedCall","inputs":[]},{"type":"error","name":"InvalidAddress","inputs":[]},{"type":"error","name":"InvalidAuthorizationDestinationCallerAtIndex","inputs":[{"name":"index","type":"uint32","internalType":"uint32"},{"name":"authCaller","type":"address","internalType":"address"},{"name":"actualCaller","type":"address","internalType":"address"}]},{"type":"error","name":"InvalidAuthorizationDestinationContractAtIndex","inputs":[{"name":"index","type":"uint32","internalType":"uint32"},{"name":"authContract","type":"address","internalType":"address"},{"name":"expectedContract","type":"address","internalType":"address"}]},{"type":"error","name":"InvalidAuthorizationDestinationDomainAtIndex","inputs":[{"name":"index","type":"uint32","internalType":"uint32"},{"name":"authDomain","type":"uint32","internalType":"uint32"},{"name":"expectedDomain","type":"uint32","internalType":"uint32"}]},{"type":"error","name":"InvalidAuthorizationMagic","inputs":[{"name":"actualMagic","type":"bytes4","internalType":"bytes4"}]},{"type":"error","name":"InvalidAuthorizationSourceContractAtIndex","inputs":[{"name":"index","type":"uint32","internalType":"uint32"},{"name":"authContract","type":"address","internalType":"address"},{"name":"expectedContract","type":"address","internalType":"address"}]},{"type":"error","name":"InvalidAuthorizationTokenAtIndex","inputs":[{"name":"index","type":"uint32","internalType":"uint32"},{"name":"sourceToken","type":"address","internalType":"address"},{"name":"destinationToken","type":"address","internalType":"address"}]},{"type":"error","name":"InvalidInitialization","inputs":[]},{"type":"error","name":"InvalidMintAuthorizationSigner","inputs":[]},{"type":"error","name":"InvalidTransferSpecMagic","inputs":[{"name":"actualMagic","type":"bytes4","internalType":"bytes4"}]},{"type":"error","name":"InvalidTransferSpecVersion","inputs":[{"name":"actualVersion","type":"uint32","internalType":"uint32"}]},{"type":"error","name":"MustHaveAtLeastOneMintAuthorization","inputs":[]},{"type":"error","name":"NotInitializing","inputs":[]},{"type":"error","name":"OwnableInvalidOwner","inputs":[{"name":"owner","type":"address","internalType":"address"}]},{"type":"error","name":"OwnableUnauthorizedAccount","inputs":[{"name":"account","type":"address","internalType":"address"}]},{"type":"error","name":"TransferSpecHashUsed","inputs":[{"name":"transferSpecHash","type":"bytes32","internalType":"bytes32"}]},{"type":"error","name":"TransferSpecHeaderTooShort","inputs":[{"name":"expectedMinimumLength","type":"uint256","internalType":"uint256"},{"name":"actualLength","type":"uint256","internalType":"uint256"}]},{"type":"error","name":"TransferSpecOverallLengthMismatch","inputs":[{"name":"expectedTotalLength","type":"uint256","internalType":"uint256"},{"name":"actualTotalLength","type":"uint256","internalType":"uint256"}]},{"type":"error","name":"UUPSUnauthorizedCallContext","inputs":[]},{"type":"error","name":"UUPSUnsupportedProxiableUUID","inputs":[{"name":"slot","type":"bytes32","internalType":"bytes32"}]},{"type":"error","name":"UnauthorizedDenylister","inputs":[{"name":"addr","type":"address","internalType":"address"}]},{"type":"error","name":"UnauthorizedPauser","inputs":[{"name":"caller","type":"address","internalType":"address"}]},{"type":"error","name":"UnsupportedToken","inputs":[{"name":"token","type":"address","internalType":"address"}]},{"type":"error","name":"UnsupportedTokenAtIndex","inputs":[{"name":"index","type":"uint32","internalType":"uint32"},{"name":"destinationToken","type":"address","internalType":"address"}]}],"bytecode":{"object":"0x60a060405230608052348015610013575f5ffd5b5061001c610029565b610024610029565b6100db565b7ff0c57e16840df040f15088dc2f81fe391c3923bec73e23a9662efc9c229c6a00805468010000000000000000900460ff16156100795760405163f92ee8a960e01b815260040160405180910390fd5b80546001600160401b03908116146100d85780546001600160401b0319166001600160401b0390811782556040519081527fc7f505b2f371ae2175ee4913f4499e1f2633a7b5936321eed1cdaeb6115181d29060200160405180910390a15b50565b6080516131166101015f395f8181610efb01528181610f24015261105201526131165ff3fe6080604052600436106101c5575f3560e01c806384593a87116100f2578063a946de0411610092578063d0ed5c2f11610062578063d0ed5c2f1461051e578063e30c397814610532578063e877a52614610546578063f2fde38b14610565575f5ffd5b8063a946de041461047e578063ad3cb1cc1461049d578063bcc76c60146104da578063c2fb26a6146104ee575f5ffd5b806391d01609116100cd57806391d016091461040d5780639cab0c1c1461042c5780639fb01cc51461044b5780639fd0506d1461046a575f5ffd5b806384593a87146103c657806387c83bb6146103e55780638da5cb5b146103f9575f5ffd5b806353a8ddff11610168578063715018a611610138578063715018a61461036b57806375151b631461037f57806379ba50971461039e5780638456cb59146103b2575f5ffd5b806353a8ddff146102ad578063554bab3c1461030a5780635c975abb146103295780636d69fcaf1461034c575f5ffd5b80633e5de4df116101a35780633e5de4df146102285780633f4ba83a146102645780634f1ef2861461027857806352d1902d1461028b575f5ffd5b80631ad20c51146101c957806328fa1d20146101ea5780633371bfff14610209575b5f5ffd5b3480156101d4575f5ffd5b506101e86101e3366004612b00565b610584565b005b3480156101f5575f5ffd5b506101e8610204366004612b31565b61062a565b348015610214575f5ffd5b506101e8610223366004612b31565b61063e565b348015610233575f5ffd5b50610247610242366004612b31565b6106c0565b6040516001600160a01b0390911681526020015b60405180910390f35b34801561026f575f5ffd5b506101e86106e9565b6101e8610286366004612be9565b610725565b348015610296575f5ffd5b5061029f610744565b60405190815260200161025b565b3480156102b8575f5ffd5b506102fa6102c7366004612c34565b5f9081527f20b6f2ac2ef95221991caf3be38efadb0bb1d3093c65d3a8c962def8d652ee00602052604090205460ff1690565b604051901515815260200161025b565b348015610315575f5ffd5b506101e8610324366004612b31565b61075f565b348015610334575f5ffd5b505f5160206130815f395f51905f525460ff166102fa565b348015610357575f5ffd5b506101e8610366366004612b31565b610770565b348015610376575f5ffd5b506101e86107f1565b34801561038a575f5ffd5b506102fa610399366004612b31565b610802565b3480156103a9575f5ffd5b506101e8610846565b3480156103bd575f5ffd5b506101e861088b565b3480156103d1575f5ffd5b506101e86103e0366004612b31565b6108c5565b3480156103f0575f5ffd5b50610247610966565b348015610404575f5ffd5b50610247610988565b348015610418575f5ffd5b506101e8610427366004612c93565b6109bc565b348015610437575f5ffd5b506101e8610446366004612b31565b610abb565b348015610456575f5ffd5b506101e8610465366004612d5f565b610b37565b348015610475575f5ffd5b50610247610bdc565b348015610489575f5ffd5b506101e8610498366004612b31565b610c0e565b3480156104a8575f5ffd5b506104cd604051806040016040528060058152602001640352e302e360dc1b81525081565b60405161025b9190612dae565b3480156104e5575f5ffd5b50610247610c86565b3480156104f9575f5ffd5b505f5160206130a15f395f51905f525460405163ffffffff909116815260200161025b565b348015610529575f5ffd5b50610247610c9a565b34801561053d575f5ffd5b50610247610ca8565b348015610551575f5ffd5b506102fa610560366004612b31565b610cd0565b348015610570575f5ffd5b506101e861057f366004612b31565b610ce4565b61058c610d69565b8161059681610d9b565b61059f82610dcc565b5f5f5160206130c15f395f51905f526001600160a01b038581165f818152602084815260409182902080548986166001600160a01b031982168117909255835194855290941690830181905290820192909252919250907fcec42e5110d94bcae32fc5f140f56e3434039f7e0cbe74fefce12f4e3f634ec99060600160405180910390a15050505050565b610632610d69565b61063b81610df3565b50565b5f5160206130415f395f51905f52600101546001600160a01b0316331461067f57604051637446939f60e11b81523360048201526024015b60405180910390fd5b61068a816001610e61565b6040516001600160a01b038216907ffa4507bc1f9c730e6e95897024f1fe7d576cf2deb53579d55c14f1ac3439e114905f90a250565b6001600160a01b039081165f9081525f5160206130c15f395f51905f5260205260409020541690565b336106f2610bdc565b6001600160a01b03161461071b5760405163ae3b56d560e01b8152336004820152602401610676565b610723610e97565b565b61072d610ef0565b61073682610f7e565b6107408282610f86565b5050565b5f61074d611047565b505f5160206130615f395f51905f5290565b610767610d69565b61063b81611090565b610778610d69565b6001600160a01b0381165f8181527f3ba16516a08fb9c5c48fb6662657ad4ffe1c779829969b4c7abdb9287bbf85006020908152604091829020805460ff1916600117905590519182527fea3145306a87baeba6bb1a8b5c8d3744f840a81cb436b3509f64fc978600cdfb91015b60405180910390a150565b6107f9610d69565b6107235f6110fe565b5f7f3ba16516a08fb9c5c48fb6662657ad4ffe1c779829969b4c7abdb9287bbf85005b6001600160a01b039092165f90815260209290925250604090205460ff1690565b3380610850610ca8565b6001600160a01b0316146108825760405163118cdaa760e01b81526001600160a01b0382166004820152602401610676565b61063b816110fe565b33610894610bdc565b6001600160a01b0316146108bd5760405163ae3b56d560e01b8152336004820152602401610676565b610723611136565b6108cd610d69565b6108d681610dcc565b7fa13f18ce64168e6d2f5aa74009cc3360c0bed33f0845237965d1e1378d32aa0180546001600160a01b038381166001600160a01b0319831681179093556040805191909216808252602082019390935281515f5160206130c15f395f51905f5293927f4b1220240b9f0b95a6f3f056c7179ca629ce29716651d1d6774f687c239dcb62928290030190a1505050565b5f5f5160206130c15f395f51905f525b600101546001600160a01b0316919050565b5f807f9016d09d72d40fdae2fd8ceac6b6234c7706214fd39c1cd1e609a0528c1993005b546001600160a01b031692915050565b7ff0c57e16840df040f15088dc2f81fe391c3923bec73e23a9662efc9c229c6a00805460029190600160401b900460ff1680610a065750805467ffffffffffffffff808416911610155b15610a245760405163f92ee8a960e01b815260040160405180910390fd5b805468ffffffffffffffffff191667ffffffffffffffff831617600160401b178155610a548b8b8b8b8b8b61117e565b610a6185898987876111bc565b805468ff00000000000000001916815560405167ffffffffffffffff831681527fc7f505b2f371ae2175ee4913f4499e1f2633a7b5936321eed1cdaeb6115181d29060200160405180910390a15050505050505050505050565b5f5160206130415f395f51905f52600101546001600160a01b03163314610af757604051637446939f60e11b8152336004820152602401610676565b610b01815f610e61565b6040516001600160a01b038216907fc904e1b03de0c20d7fcf9dbd056daf1bd3815e93f251199de815fd0f0b96e166905f90a250565b610b3f61126a565b33610b498161129a565b610b5383836112cc565b5f610b5d84611347565b9050806040015163ffffffff165f03610b8957604051632b1646a360e21b815260040160405180910390fd5b5f5b8160800151610bd557610b9d826113de565b9050610bb98160018460600151610bb49190612df7565b6114c2565b610bd0610bcb62ffffff1983166117bc565b611843565b610b8b565b5050505050565b5f7f7e0f0117f6f510f2a35b1c8185f303b28ba884334cd776f9d98e2abef24e2f005b546001600160a01b0316919050565b610c16610d69565b7f77aee7014301166d8532df7f3d0b1c40d5b12f074d2d69255b43654e0419340180546001600160a01b038381166001600160a01b0319831681179093556040519116919082907fe144e84038182cefebda68c192c222085b2c12a85d135d3c938498c0165c01d3905f90a35050565b5f5f5160206130415f395f51905f52610976565b5f610ca36119d5565b905090565b5f807f237e158222e3e6968b72b9db0d8043aacf074ad9f650f0d1606b4d82ee432c006109ac565b5f5f5160206130415f395f51905f52610825565b610cec610d69565b7f237e158222e3e6968b72b9db0d8043aacf074ad9f650f0d1606b4d82ee432c0080546001600160a01b0319166001600160a01b0383169081178255610d30610988565b6001600160a01b03167f38d16b8cac22d99fc7c124b9cd0de2d3fa1faef420bfe791d8c362d765e2270060405160405180910390a35050565b33610d72610988565b6001600160a01b0316146107235760405163118cdaa760e01b8152336004820152602401610676565b610da481610802565b61063b57604051635f8b555b60e11b81526001600160a01b0382166004820152602401610676565b6001600160a01b03811661063b5760405163e6c4247b60e01b815260040160405180910390fd5b807f93e77e25ef9d7551b01674a3ef68f44dcb2b33c68692c96a16f33bfe6d355b0080546001600160a01b0319166001600160a01b0392831617905560405190821681527f6a34e32d464e941bf9b440e98470c1959857c88b22ca02a37e7ba1777ceefff2906020016107e6565b6001600160a01b03919091165f9081525f5160206130415f395f51905f5260205260409020805460ff1916911515919091179055565b610e9f6119fc565b5f5160206130815f395f51905f52805460ff191681557f5db9ee0a495bf2e6ff9c91a7834c1ba4fdd244a5e8aa4e537bd38aeae4b073aa335b6040516001600160a01b0390911681526020016107e6565b306001600160a01b037f0000000000000000000000000000000000000000000000000000000000000000161480610f6057507f00000000000000000000000000000000000000000000000000000000000000006001600160a01b0316610f54611a2b565b6001600160a01b031614155b156107235760405163703e46dd60e11b815260040160405180910390fd5b61063b610d69565b816001600160a01b03166352d1902d6040518163ffffffff1660e01b8152600401602060405180830381865afa925050508015610fe0575060408051601f3d908101601f19168201909252610fdd91810190612e13565b60015b61100857604051634c9c8ce360e01b81526001600160a01b0383166004820152602401610676565b5f5160206130615f395f51905f52811461103857604051632a87526960e21b815260048101829052602401610676565b6110428383611a3f565b505050565b306001600160a01b037f000000000000000000000000000000000000000000000000000000000000000016146107235760405163703e46dd60e11b815260040160405180910390fd5b807f7e0f0117f6f510f2a35b1c8185f303b28ba884334cd776f9d98e2abef24e2f0080546001600160a01b0319166001600160a01b0392831617905560405190821681527fa4336c0cb1e245b95ad204faed7e940d6dc999684fd8b5e1ff597a0c4efca8ab906020016107e6565b7f237e158222e3e6968b72b9db0d8043aacf074ad9f650f0d1606b4d82ee432c0080546001600160a01b031916815561074082611a94565b61113e61126a565b5f5160206130815f395f51905f52805460ff191660011781557f62e78cea01bee320cd4e420270b5ea74000d11b0c9f74754ebdbfc544b05a25833610ed8565b611186611b04565b61118f86611b4d565b61119885611b5d565b6111a184611b6e565b6111ab8383611b76565b6111b481611bba565b505050505050565b6111c4611b04565b6111cd856108c5565b5f5b818110156111b4575f8383838181106111ea576111ea612e2a565b90506020020160208101906111ff9190612b31565b90506001600160a01b038116156112615761126186868481811061122557611225612e2a565b905060200201602081019061123a9190612b31565b85858581811061124c5761124c612e2a565b90506020020160208101906101e39190612b31565b506001016111cf565b5f5160206130815f395f51905f525460ff16156107235760405163d93c066560e01b815260040160405180910390fd5b6112a381610cd0565b1561063b576040516313f7662b60e11b81526001600160a01b0382166004820152602401610676565b815160208301207f19457468657265756d205369676e6564204d6573736167653a0a3332000000005f908152601c91909152603c812061130c9083611bea565b9050611316610966565b6001600160a01b0316816001600160a01b03161461104257604051634d6f687b60e01b815260040160405180910390fd5b6040805160a0810182525f8082526020820181905291810182905260608101829052608081018290529061137a83611c14565b62ffffff19811683525f6060840152905061139481611c45565b6113b257505f60208201819052600160408301526080820152919050565b5f6113bc82611c67565b6008602085015263ffffffff1660408401819052156080840152509092915050565b5f81608001511561140257604051631365229760e31b815260040160405180910390fd5b5f61142b602461ffff16846020015161141b9190612e3e565b845162ffffff1916906004611c76565b90505f611439826028612e51565b6020850151855163ffffffff9290921692506114619162ffffff191690836323ba354a611ca7565b925080846020018181516114759190612e3e565b9052506060840180519061148882612e6d565b63ffffffff1663ffffffff1681525050836040015163ffffffff16846060015163ffffffff16106114bb57600160808501525b5050919050565b5f6114d262ffffff198416611d22565b90504381101561150a57604051637aac644360e11b815263ffffffff8316600482015260248101829052436044820152606401610676565b5f61151a62ffffff1985166117bc565b90505f61152c62ffffff198316611d36565b9050805f0361155657604051633c168f0360e21b815263ffffffff85166004820152602401610676565b61157361156e61156b62ffffff198516611d4b565b90565b61129a565b5f61158661156b62ffffff198516611d5f565b90506001600160a01b038116158015906115a957506001600160a01b0381163314155b156115cc57848133604051628bc96360e51b815260040161067693929190612e91565b5f6115dc62ffffff198516611d73565b5f5160206130a15f395f51905f525490915063ffffffff80831691161461164c57858161161a5f5160206130a15f395f51905f525463ffffffff1690565b60405163732c2fef60e01b815263ffffffff938416600482015291831660248301529091166044820152606401610676565b5f61165f61156b62ffffff198716611d87565b90506001600160a01b0381163014611690578681306040516329dd55bb60e11b815260040161067693929190612e91565b5f6116a361156b62ffffff198816611d9b565b90506116ae81610802565b6116e25760405163600a901b60e01b815263ffffffff891660048201526001600160a01b0382166024820152604401610676565b5f6116f262ffffff198816611daf565b90508363ffffffff168163ffffffff16036117b0575f61171a61156b62ffffff198a16611dc3565b90505f6117256119d5565b9050806001600160a01b0316826001600160a01b03161461175f578a8282604051634d5a834960e01b815260040161067693929190612e91565b5f61177261156b62ffffff198c16611dd7565b9050846001600160a01b0316816001600160a01b0316146117ac578b81866040516303a5b75360e01b815260040161067693929190612e91565b5050505b50505050505050505050565b5f5f6117c783611deb565b90505f6117e762ffffff198516602863ffffffff851663ca85def7611ca7565b90505f6117fc62ffffff198316826004611dff565b90506001600160e01b0319811663ca85def760e01b1461183b57604051633c2c863160e11b81526001600160e01b031982166004820152602401610676565b509392505050565b5f61185362ffffff198316611f55565b905061185e81611f65565b5f61187161156b62ffffff198516611d4b565b90505f61188362ffffff198516611d36565b90505f61189861156b62ffffff198716611d9b565b90505f6118aa62ffffff198716611daf565b90505f6118bc62ffffff198816611fab565b90505f6118ce62ffffff198916611fbf565b90505f6118da856106c0565b90505f6001600160a01b038216156118f257816118f4565b855b6040516340c10f1960e01b81526001600160a01b038a81166004830152602482018a9052919250908216906340c10f19906044016020604051808303815f875af1158015611944573d5f5f3e3d5ffd5b505050506040513d601f19601f820116820180604052508101906119689190612eb8565b506040805163ffffffff87168152602081018690529081018490526060810188905289906001600160a01b03808b1691908916907f3e3fa6b24679afee86532df05d9fbd92fa198a2463be31224fd1bfcf78039e739060800160405180910390a450505050505050505050565b5f7f93e77e25ef9d7551b01674a3ef68f44dcb2b33c68692c96a16f33bfe6d355b00610bff565b5f5160206130815f395f51905f525460ff1661072357604051638dfc202b60e01b815260040160405180910390fd5b5f5f5160206130615f395f51905f52610bff565b611a4882611fd3565b6040516001600160a01b038316907fbc7cd75a20ee27fd9adebab32041f755214dbc6bffa90cc0225b39da2e5c2d3b905f90a2805115611a8c576110428282612036565b6107406120a8565b7f9016d09d72d40fdae2fd8ceac6b6234c7706214fd39c1cd1e609a0528c19930080546001600160a01b031981166001600160a01b03848116918217845560405192169182907f8be0079c531659141344cd1fd0a4f28419497f9722a3daafe3b4186f6b6457e0905f90a3505050565b7ff0c57e16840df040f15088dc2f81fe391c3923bec73e23a9662efc9c229c6a0054600160401b900460ff1661072357604051631afcd79f60e31b815260040160405180910390fd5b611b55611b04565b6107676120c7565b611b65611b04565b61063b81610c0e565b610632611b04565b611b7e611b04565b5f5b8181101561104257611bb2838383818110611b9d57611b9d612e2a565b90506020020160208101906103669190612b31565b600101611b80565b611bc2611b04565b5f5160206130a15f395f51905f52805463ffffffff191663ffffffff92909216919091179055565b5f5f5f5f611bf886866120d7565b925092509250611c088282612120565b50909150505b92915050565b5f611c1e826121d8565b9050611c2981611c45565b15611c3c57611c37816122b3565b919050565b611c37816124f7565b5f6395f860bd60e01b611c6062ffffff198416836004611dff565b1492915050565b5f611c0e62ffffff1983166004805b5f611c82826020612ed7565b611c8d906008612ef0565b60ff16611c9b858585611dff565b901c90505b9392505050565b5f5f611cbc8660781c6001600160601b031690565b6001600160601b03169050611cd086612515565b84611cdb8784612e3e565b611ce59190612e3e565b1115611cf85762ffffff19915050611d1a565b611d028582612e3e565b9050611d168364ffffffffff16828661254d565b9150505b949350505050565b5f611c0e62ffffff19831660046020611c76565b5f611c0e62ffffff1983166101106020611c76565b5f611c0e62ffffff19831660b06020611dff565b5f611c0e62ffffff19831660f06020611dff565b5f611c0e62ffffff198316600c6004611c76565b5f611c0e62ffffff19831660306020611dff565b5f611c0e62ffffff19831660706020611dff565b5f611c0e62ffffff19831660086004611c76565b5f611c0e62ffffff19831660106020611dff565b5f611c0e62ffffff19831660506020611dff565b5f611c0e62ffffff19831660246004611c76565b5f8160ff165f03611e1157505f611ca0565b611e248460181c6001600160601b031690565b6001600160601b0316611e3a60ff841685612e3e565b1115611e9e57611e85611e568560781c6001600160601b031690565b6001600160601b0316611e728660181c6001600160601b031690565b6001600160601b0316858560ff16612591565b60405162461bcd60e51b81526004016106769190612dae565b60208260ff161115611f185760405162461bcd60e51b815260206004820152603a60248201527f54797065644d656d566965772f696e646578202d20417474656d70746564207460448201527f6f20696e646578206d6f7265207468616e2033322062797465730000000000006064820152608401610676565b600882025f611f308660781c6001600160601b031690565b6001600160601b031690505f600160ff1b5f1984011d91909501511695945050505050565b5f611c0e62ffffff1983166125fb565b611f6e81612642565b61063b815f9081527f20b6f2ac2ef95221991caf3be38efadb0bb1d3093c65d3a8c962def8d652ee0060205260409020805460ff19166001179055565b5f611c0e62ffffff19831660906020611dff565b5f611c0e62ffffff19831660d06020611dff565b806001600160a01b03163b5f0361200857604051634c9c8ce360e01b81526001600160a01b0382166004820152602401610676565b5f5160206130615f395f51905f5280546001600160a01b0319166001600160a01b0392909216919091179055565b60605f5f846001600160a01b0316846040516120529190612f13565b5f60405180830381855af49150503d805f811461208a576040519150601f19603f3d011682016040523d82523d5f602084013e61208f565b606091505b509150915061209f858383612693565b95945050505050565b34156107235760405163b398979f60e01b815260040160405180910390fd5b6120cf611b04565b6107236126ef565b5f5f5f835160410361210e576020840151604085015160608601515f1a6121008882858561270f565b955095509550505050612119565b505081515f91506002905b9250925092565b5f82600381111561213357612133612f29565b0361213c575050565b600182600381111561215057612150612f29565b0361216e5760405163f645eedf60e01b815260040160405180910390fd5b600282600381111561218257612182612f29565b036121a35760405163fce698f760e01b815260048101829052602401610676565b60038260038111156121b7576121b7612f29565b03610740576040516335e2f38360e21b815260048101829052602401610676565b5f600460ff168251101561220b5781516040516327c1b0b760e01b81526004808201526024810191909152604401610676565b5f61221683826127d7565b90505f61222b62ffffff198316826004611dff565b9050636e22e55b60e11b6001600160e01b0319821601612269576122626323ba354a5b60d81b6301000000600160d81b0384161790565b92506114bb565b636a079f4360e01b6001600160e01b031982160161228e576122626395f860bd61224e565b604051630d779af160e31b81526001600160e01b031982166004820152602401610676565b6008601882901c6001600160601b031610156122f857604051632639ef7960e21b815260086004820152601882901c6001600160601b03166024820152604401610676565b5f61230282611c67565b905060085f5b8263ffffffff168163ffffffff1610156124b3575f612328602884612e3e565b9050601885901c6001600160601b031681111561237a57604051630367206d60e61b815263ffffffff83166004820152601886901c6001600160601b0316602482015260448101829052606401610676565b5f612398612389602486612e3e565b62ffffff198816906004611c76565b90505f6123a6826028612e51565b63ffffffff1690505f6123b98287612e3e565b9050601888901c6001600160601b031681111561240b57604051631f5d3d0d60e31b815263ffffffff86166004820152601889901c6001600160601b0316602482015260448101829052606401610676565b5f6124286124198289612e3e565b62ffffff198b16906004611dff565b90506001600160e01b031981166311dd1aa560e11b1461247357604051637a4ecbaf60e11b815263ffffffff871660048201526001600160e01b031982166024820152604401610676565b5f61248a62ffffff198b1689866323ba354a611ca7565b9050612495816124f7565b61249f8489612e3e565b975050600190950194506123089350505050565b50601883901c6001600160601b0316811461104257604051633be082ef60e01b815260048101829052601884901c6001600160601b03166024820152604401610676565b612500816127f1565b5f61250a826117bc565b905061074081612899565b5f6125298260181c6001600160601b031690565b61253c8360781c6001600160601b031690565b016001600160601b03169050919050565b5f806125598385612e3e565b905060405181111561256857505f5b805f0361257c5762ffffff19915050611ca0565b5050606092831b9190911790911b1760181b90565b60605f61259d86612985565b9150505f6125aa86612985565b9150505f6125b786612985565b9150505f6125c486612985565b915050838383836040516020016125de9493929190612f3d565b604051602081830303815290604052945050505050949350505050565b5f5f6126108360781c6001600160601b031690565b6001600160601b031690505f61262f8460181c6001600160601b031690565b6001600160601b03169091209392505050565b5f8181527f20b6f2ac2ef95221991caf3be38efadb0bb1d3093c65d3a8c962def8d652ee00602052604090205460ff161561063b57604051630b06514960e11b815260048101829052602401610676565b6060826126a8576126a382612a2d565b611ca0565b81511580156126bf57506001600160a01b0384163b155b156126e857604051639996b31560e01b81526001600160a01b0385166004820152602401610676565b5080611ca0565b6126f7611b04565b5f5160206130815f395f51905f52805460ff19169055565b5f80807f7fffffffffffffffffffffffffffffff5d576e7357a4501ddfe92f46681b20a084111561274857505f915060039050826127cd565b604080515f808252602082018084528a905260ff891692820192909252606081018790526080810186905260019060a0016020604051602081039080840390855afa158015612799573d5f5f3e3d5ffd5b5050604051601f1901519150506001600160a01b0381166127c457505f9250600191508290506127cd565b92505f91508190505b9450945094915050565b81515f906020840161209f64ffffffffff8516828461254d565b6028601882901c6001600160601b03161015612836576040516306dee79760e11b815260286004820152601882901c6001600160601b03166024820152604401610676565b5f61284082611deb565b90505f61284e826028612e51565b63ffffffff169050601883901c6001600160601b031681146110425760405163662f9ab960e11b815260048101829052601884901c6001600160601b03166024820152604401610676565b610154601882901c6001600160601b031610156128e057604051631cd8e33f60e11b81526101546004820152601882901c6001600160601b03166024820152604401610676565b5f6128ea82611c67565b905063ffffffff811660011461291b57604051633665681760e11b815263ffffffff82166004820152602401610676565b5f61292583612a56565b90505f61293482610154612e51565b63ffffffff169050601884901c6001600160601b0316811461297f57604051633df4634560e01b815260048101829052601885901c6001600160601b03166024820152604401610676565b50505050565b5f80601f5b600f8160ff1611156129d7575f6129a2826008612ef0565b60ff1685901c90506129b381612a6b565b61ffff16841793508160ff166010146129ce57601084901b93505b505f190161298a565b50600f5b60ff8160ff161015612a27575f6129f3826008612ef0565b60ff1685901c9050612a0481612a6b565b61ffff16831792508160ff165f14612a1e57601083901b92505b505f19016129db565b50915091565b805115612a3d5780518082602001fd5b60405163d6bda27560e01b815260040160405180910390fd5b5f611c0e62ffffff1983166101506004611c76565b5f612a7c60048360ff16901c612a9c565b60ff1661ffff919091161760081b612a9382612a9c565b60ff1617919050565b6040805180820190915260108082526f181899199a1a9b1b9c1cb0b131b232b360811b60208301525f91600f84169182908110612adb57612adb612e2a565b016020015160f81c9392505050565b80356001600160a01b0381168114611c37575f5ffd5b5f5f60408385031215612b11575f5ffd5b612b1a83612aea565b9150612b2860208401612aea565b90509250929050565b5f60208284031215612b41575f5ffd5b611ca082612aea565b634e487b7160e01b5f52604160045260245ffd5b5f82601f830112612b6d575f5ffd5b813567ffffffffffffffff811115612b8757612b87612b4a565b604051601f8201601f19908116603f0116810167ffffffffffffffff81118282101715612bb657612bb6612b4a565b604052818152838201602001851015612bcd575f5ffd5b816020850160208301375f918101602001919091529392505050565b5f5f60408385031215612bfa575f5ffd5b612c0383612aea565b9150602083013567ffffffffffffffff811115612c1e575f5ffd5b612c2a85828601612b5e565b9150509250929050565b5f60208284031215612c44575f5ffd5b5035919050565b5f5f83601f840112612c5b575f5ffd5b50813567ffffffffffffffff811115612c72575f5ffd5b6020830191508360208260051b8501011115612c8c575f5ffd5b9250929050565b5f5f5f5f5f5f5f5f5f60e08a8c031215612cab575f5ffd5b612cb48a612aea565b9850612cc260208b01612aea565b9750612cd060408b01612aea565b965060608a013567ffffffffffffffff811115612ceb575f5ffd5b612cf78c828d01612c4b565b90975095505060808a013563ffffffff81168114612d13575f5ffd5b9350612d2160a08b01612aea565b925060c08a013567ffffffffffffffff811115612d3c575f5ffd5b612d488c828d01612c4b565b915080935050809150509295985092959850929598565b5f5f60408385031215612d70575f5ffd5b823567ffffffffffffffff811115612d86575f5ffd5b612d9285828601612b5e565b925050602083013567ffffffffffffffff811115612c1e575f5ffd5b602081525f82518060208401528060208501604085015e5f604082850101526040601f19601f83011684010191505092915050565b634e487b7160e01b5f52601160045260245ffd5b63ffffffff8281168282160390811115611c0e57611c0e612de3565b5f60208284031215612e23575f5ffd5b5051919050565b634e487b7160e01b5f52603260045260245ffd5b80820180821115611c0e57611c0e612de3565b63ffffffff8181168382160190811115611c0e57611c0e612de3565b5f63ffffffff821663ffffffff8103612e8857612e88612de3565b60010192915050565b63ffffffff9390931683526001600160a01b03918216602084015216604082015260600190565b5f60208284031215612ec8575f5ffd5b81518015158114611ca0575f5ffd5b60ff8281168282160390811115611c0e57611c0e612de3565b60ff8181168382160290811690818114612f0c57612f0c612de3565b5092915050565b5f82518060208501845e5f920191825250919050565b634e487b7160e01b5f52602160045260245ffd5b7f54797065644d656d566965772f696e646578202d204f76657272616e20746865815274040ecd2caee5c40a6d8d2c6ca40d2e640c2e84060f605b1b602082015260d085811b6001600160d01b031990811660358401526e040eed2e8d040d8cadccee8d04060f608b1b603b84015285821b8116604a8401527f2e20417474656d7074656420746f20696e646578206174206f666673657420306050840152600f60fb1b60708401529084901b1660718201525f613013607783016e040eed2e8d040d8cadccee8d04060f608b1b8152600f0190565b613029818560d01b6001600160d01b0319169052565b601760f91b6006820152600701969550505050505056fe77aee7014301166d8532df7f3d0b1c40d5b12f074d2d69255b43654e04193400360894a13ba1a3210667c828492db98dca3e2076cc3735a920a3ca505d382bbccd5ed15c6e187e77e9aee88184c21f4f2182ab5827cb3b7e07fbedcd63f03300fe4c86d7e89d95779292c8077b542f271e850fa895928d0b7b19a0ae50865c00a13f18ce64168e6d2f5aa74009cc3360c0bed33f0845237965d1e1378d32aa00a2646970667358221220ee7b02cc3bd6a67b7c981797154bceb2a0102b16f372f67601cd964a3bde6b8e64736f6c634300081d0033","linkReferences":{}},"methodIdentifiers":{"UPGRADE_INTERFACE_VERSION()":"ad3cb1cc","acceptOwnership()":"79ba5097","addSupportedToken(address)":"6d69fcaf","denylist(address)":"3371bfff","denylister()":"bcc76c60","domain()":"c2fb26a6","gatewayMint(bytes,bytes)":"9fb01cc5","initialize(address,address,address,address[],uint32,address,address[])":"91d01609","isDenylisted(address)":"e877a526","isTokenSupported(address)":"75151b63","mintAuthorizationSigner()":"87c83bb6","owner()":"8da5cb5b","pause()":"8456cb59","paused()":"5c975abb","pauser()":"9fd0506d","pendingOwner()":"e30c3978","proxiableUUID()":"52d1902d","renounceOwnership()":"715018a6","tokenMintAuthority(address)":"3e5de4df","transferOwnership(address)":"f2fde38b","transferSpecHashUsed(bytes32)":"53a8ddff","unDenylist(address)":"9cab0c1c","unpause()":"3f4ba83a","updateCounterpart(address)":"28fa1d20","updateDenylister(address)":"a946de04","updateMintAuthority(address,address)":"1ad20c51","updateMintAuthorizationSigner(address)":"84593a87","updatePauser(address)":"554bab3c","upgradeToAndCall(address,bytes)":"4f1ef286","walletContract()":"d0ed5c2f"},"id":28}