{"abi":[{"type":"constructor","inputs":[],"stateMutability":"nonpayable"},{"type":"function","name":"UPGRADE_INTERFACE_VERSION","inputs":[],"outputs":[{"name":"","type":"string","internalType":"string"}],"stateMutability":"view"},{"type":"function","name":"acceptOwnership","inputs":[],"outputs":[],"stateMutability":"nonpayable"},{"type":"function","name":"initialize","inputs":[{"name":"newOwner","type":"address","internalType":"address"}],"outputs":[],"stateMutability":"nonpayable"},{"type":"function","name":"owner","inputs":[],"outputs":[{"name":"","type":"address","internalType":"address"}],"stateMutability":"view"},{"type":"function","name":"pendingOwner","inputs":[],"outputs":[{"name":"","type":"address","internalType":"address"}],"stateMutability":"view"},{"type":"function","name":"proxiableUUID","inputs":[],"outputs":[{"name":"","type":"bytes32","internalType":"bytes32"}],"stateMutability":"view"},{"type":"function","name":"renounceOwnership","inputs":[],"outputs":[],"stateMutability":"nonpayable"},{"type":"function","name":"transferOwnership","inputs":[{"name":"newOwner","type":"address","internalType":"address"}],"outputs":[],"stateMutability":"nonpayable"},{"type":"function","name":"upgradeToAndCall","inputs":[{"name":"newImplementation","type":"address","internalType":"address"},{"name":"data","type":"bytes","internalType":"bytes"}],"outputs":[],"stateMutability":"payable"},{"type":"event","name":"Initialized","inputs":[{"name":"version","type":"uint64","indexed":false,"internalType":"uint64"}],"anonymous":false},{"type":"event","name":"OwnershipTransferStarted","inputs":[{"name":"previousOwner","type":"address","indexed":true,"internalType":"address"},{"name":"newOwner","type":"address","indexed":true,"internalType":"address"}],"anonymous":false},{"type":"event","name":"OwnershipTransferred","inputs":[{"name":"previousOwner","type":"address","indexed":true,"internalType":"address"},{"name":"newOwner","type":"address","indexed":true,"internalType":"address"}],"anonymous":false},{"type":"event","name":"Upgraded","inputs":[{"name":"implementation","type":"address","indexed":true,"internalType":"address"}],"anonymous":false},{"type":"error","name":"AddressEmptyCode","inputs":[{"name":"target","type":"address","internalType":"address"}]},{"type":"error","name":"ERC1967InvalidImplementation","inputs":[{"name":"implementation","type":"address","internalType":"address"}]},{"type":"error","name":"ERC1967NonPayable","inputs":[]},{"type":"error","name":"FailedCall","inputs":[]},{"type":"error","name":"InvalidInitialization","inputs":[]},{"type":"error","name":"NotInitializing","inputs":[]},{"type":"error","name":"NullOwnerNotAllowed","inputs":[]},{"type":"error","name":"OwnableInvalidOwner","inputs":[{"name":"owner","type":"address","internalType":"address"}]},{"type":"error","name":"OwnableUnauthorizedAccount","inputs":[{"name":"account","type":"address","internalType":"address"}]},{"type":"error","name":"UUPSUnauthorizedCallContext","inputs":[]},{"type":"error","name":"UUPSUnsupportedProxiableUUID","inputs":[{"name":"slot","type":"bytes32","internalType":"bytes32"}]}],"bytecode":{"object":"0x60a060405230608052348015610013575f5ffd5b5061001c610021565b6100d3565b7ff0c57e16840df040f15088dc2f81fe391c3923bec73e23a9662efc9c229c6a00805468010000000000000000900460ff16156100715760405163f92ee8a960e01b815260040160405180910390fd5b80546001600160401b03908116146100d05780546001600160401b0319166001600160401b0390811782556040519081527fc7f505b2f371ae2175ee4913f4499e1f2633a7b5936321eed1cdaeb6115181d29060200160405180910390a15b50565b608051610aef6100f95f395f818161043c0152818161046501526105a00152610aef5ff3fe608060405260043610610084575f3560e01c80638da5cb5b116100575780638da5cb5b146100ec578063ad3cb1cc1461010d578063c4d66de81461014a578063e30c397814610169578063f2fde38b1461017d575f5ffd5b80634f1ef2861461008857806352d1902d1461009d578063715018a6146100c457806379ba5097146100d8575b5f5ffd5b61009b610096366004610926565b61019c565b005b3480156100a8575f5ffd5b506100b16101bb565b6040519081526020015b60405180910390f35b3480156100cf575f5ffd5b5061009b6101d6565b3480156100e3575f5ffd5b5061009b6101e9565b3480156100f7575f5ffd5b50610100610231565b6040516100bb91906109ea565b348015610118575f5ffd5b5061013d604051806040016040528060058152602001640352e302e360dc1b81525081565b6040516100bb91906109fe565b348015610155575f5ffd5b5061009b610164366004610a33565b610265565b348015610174575f5ffd5b506101006103aa565b348015610188575f5ffd5b5061009b610197366004610a33565b6103bf565b6101a4610431565b6101ad826104d5565b6101b782826104dd565b5050565b5f6101c4610595565b505f516020610a7a5f395f51905f5290565b6101de6105de565b6101e75f610610565b565b33806101f36103aa565b6001600160a01b031614610225578060405163118cdaa760e01b815260040161021c91906109ea565b60405180910390fd5b61022e81610610565b50565b5f807f9016d09d72d40fdae2fd8ceac6b6234c7706214fd39c1cd1e609a0528c1993005b546001600160a01b031692915050565b7ff0c57e16840df040f15088dc2f81fe391c3923bec73e23a9662efc9c229c6a008054600160401b810460ff16159067ffffffffffffffff165f811580156102aa5750825b90505f8267ffffffffffffffff1660011480156102c65750303b155b9050811580156102d4575080155b156102f25760405163f92ee8a960e01b815260040160405180910390fd5b845467ffffffffffffffff19166001178555831561031c57845460ff60401b1916600160401b1785555b6001600160a01b0386166103435760405163c71f4e3160e01b815260040160405180910390fd5b61034b610635565b6103548661063d565b61035c610635565b83156103a257845460ff60401b19168555604051600181527fc7f505b2f371ae2175ee4913f4499e1f2633a7b5936321eed1cdaeb6115181d29060200160405180910390a15b505050505050565b5f805f516020610a9a5f395f51905f52610255565b6103c76105de565b5f516020610a9a5f395f51905f5280546001600160a01b0319166001600160a01b03831690811782556103f8610231565b6001600160a01b03167f38d16b8cac22d99fc7c124b9cd0de2d3fa1faef420bfe791d8c362d765e2270060405160405180910390a35050565b306001600160a01b037f00000000000000000000000000000000000000000000000000000000000000001614806104b757507f00000000000000000000000000000000000000000000000000000000000000006001600160a01b03166104ab5f516020610a7a5f395f51905f52546001600160a01b031690565b6001600160a01b031614155b156101e75760405163703e46dd60e11b815260040160405180910390fd5b61022e6105de565b816001600160a01b03166352d1902d6040518163ffffffff1660e01b8152600401602060405180830381865afa925050508015610537575060408051601f3d908101601f1916820190925261053491810190610a4c565b60015b6105565781604051634c9c8ce360e01b815260040161021c91906109ea565b5f516020610a7a5f395f51905f52811461058657604051632a87526960e21b81526004810182905260240161021c565b610590838361064e565b505050565b306001600160a01b037f000000000000000000000000000000000000000000000000000000000000000016146101e75760405163703e46dd60e11b815260040160405180910390fd5b336105e7610231565b6001600160a01b0316146101e7573360405163118cdaa760e01b815260040161021c91906109ea565b5f516020610a9a5f395f51905f5280546001600160a01b03191681556101b7826106a3565b6101e7610713565b610645610713565b61022e8161075c565b6106578261078d565b6040516001600160a01b038316907fbc7cd75a20ee27fd9adebab32041f755214dbc6bffa90cc0225b39da2e5c2d3b905f90a280511561069b5761059082826107e7565b6101b7610859565b7f9016d09d72d40fdae2fd8ceac6b6234c7706214fd39c1cd1e609a0528c19930080546001600160a01b031981166001600160a01b03848116918217845560405192169182907f8be0079c531659141344cd1fd0a4f28419497f9722a3daafe3b4186f6b6457e0905f90a3505050565b7ff0c57e16840df040f15088dc2f81fe391c3923bec73e23a9662efc9c229c6a0054600160401b900460ff166101e757604051631afcd79f60e31b815260040160405180910390fd5b610764610713565b6001600160a01b038116610225575f604051631e4fbdf760e01b815260040161021c91906109ea565b806001600160a01b03163b5f036107b95780604051634c9c8ce360e01b815260040161021c91906109ea565b5f516020610a7a5f395f51905f5280546001600160a01b0319166001600160a01b0392909216919091179055565b60605f5f846001600160a01b0316846040516108039190610a63565b5f60405180830381855af49150503d805f811461083b576040519150601f19603f3d011682016040523d82523d5f602084013e610840565b606091505b5091509150610850858383610878565b95945050505050565b34156101e75760405163b398979f60e01b815260040160405180910390fd5b60608261088d57610888826108ce565b6108c7565b81511580156108a457506001600160a01b0384163b155b156108c45783604051639996b31560e01b815260040161021c91906109ea565b50805b9392505050565b8051156108de5780518082602001fd5b60405163d6bda27560e01b815260040160405180910390fd5b80356001600160a01b038116811461090d575f5ffd5b919050565b634e487b7160e01b5f52604160045260245ffd5b5f5f60408385031215610937575f5ffd5b610940836108f7565b9150602083013567ffffffffffffffff81111561095b575f5ffd5b8301601f8101851361096b575f5ffd5b803567ffffffffffffffff81111561098557610985610912565b604051601f8201601f19908116603f0116810167ffffffffffffffff811182821017156109b4576109b4610912565b6040528181528282016020018710156109cb575f5ffd5b816020840160208301375f602083830101528093505050509250929050565b6001600160a01b0391909116815260200190565b602081525f82518060208401528060208501604085015e5f604082850101526040601f19601f83011684010191505092915050565b5f60208284031215610a43575f5ffd5b6108c7826108f7565b5f60208284031215610a5c575f5ffd5b5051919050565b5f82518060208501845e5f92019182525091905056fe360894a13ba1a3210667c828492db98dca3e2076cc3735a920a3ca505d382bbc237e158222e3e6968b72b9db0d8043aacf074ad9f650f0d1606b4d82ee432c00a26469706673582212201388a14b99afae0757214af05568b43c34d196aafff82cf116025fe9e14b84f664736f6c634300081d0033","linkReferences":{}},"methodIdentifiers":{"UPGRADE_INTERFACE_VERSION()":"ad3cb1cc","acceptOwnership()":"79ba5097","initialize(address)":"c4d66de8","owner()":"8da5cb5b","pendingOwner()":"e30c3978","proxiableUUID()":"52d1902d","renounceOwnership()":"715018a6","transferOwnership(address)":"f2fde38b","upgradeToAndCall(address,bytes)":"4f1ef286"},"id":12}