{"abi":[{"type":"constructor","inputs":[],"stateMutability":"nonpayable"},{"type":"function","name":"UPGRADE_INTERFACE_VERSION","inputs":[],"outputs":[{"name":"","type":"string","internalType":"string"}],"stateMutability":"view"},{"type":"function","name":"acceptOwnership","inputs":[],"outputs":[],"stateMutability":"nonpayable"},{"type":"function","name":"initialize","inputs":[{"name":"newOwner","type":"address","internalType":"address"}],"outputs":[],"stateMutability":"nonpayable"},{"type":"function","name":"owner","inputs":[],"outputs":[{"name":"","type":"address","internalType":"address"}],"stateMutability":"view"},{"type":"function","name":"pendingOwner","inputs":[],"outputs":[{"name":"","type":"address","internalType":"address"}],"stateMutability":"view"},{"type":"function","name":"proxiableUUID","inputs":[],"outputs":[{"name":"","type":"bytes32","internalType":"bytes32"}],"stateMutability":"view"},{"type":"function","name":"renounceOwnership","inputs":[],"outputs":[],"stateMutability":"nonpayable"},{"type":"function","name":"transferOwnership","inputs":[{"name":"newOwner","type":"address","internalType":"address"}],"outputs":[],"stateMutability":"nonpayable"},{"type":"function","name":"upgradeToAndCall","inputs":[{"name":"newImplementation","type":"address","internalType":"address"},{"name":"data","type":"bytes","internalType":"bytes"}],"outputs":[],"stateMutability":"payable"},{"type":"event","name":"Initialized","inputs":[{"name":"version","type":"uint64","indexed":false,"internalType":"uint64"}],"anonymous":false},{"type":"event","name":"OwnershipTransferStarted","inputs":[{"name":"previousOwner","type":"address","indexed":true,"internalType":"address"},{"name":"newOwner","type":"address","indexed":true,"internalType":"address"}],"anonymous":false},{"type":"event","name":"OwnershipTransferred","inputs":[{"name":"previousOwner","type":"address","indexed":true,"internalType":"address"},{"name":"newOwner","type":"address","indexed":true,"internalType":"address"}],"anonymous":false},{"type":"event","name":"Upgraded","inputs":[{"name":"implementation","type":"address","indexed":true,"internalType":"address"}],"anonymous":false},{"type":"error","name":"AddressEmptyCode","inputs":[{"name":"target","type":"address","internalType":"address"}]},{"type":"error","name":"ContractOwnerNotAllowed","inputs":[{"name":"owner","type":"address","internalType":"address"}]},{"type":"error","name":"ERC1967InvalidImplementation","inputs":[{"name":"implementation","type":"address","internalType":"address"}]},{"type":"error","name":"ERC1967NonPayable","inputs":[]},{"type":"error","name":"FailedCall","inputs":[]},{"type":"error","name":"InvalidInitialization","inputs":[]},{"type":"error","name":"NotInitializing","inputs":[]},{"type":"error","name":"NullOwnerNotAllowed","inputs":[]},{"type":"error","name":"OwnableInvalidOwner","inputs":[{"name":"owner","type":"address","internalType":"address"}]},{"type":"error","name":"OwnableUnauthorizedAccount","inputs":[{"name":"account","type":"address","internalType":"address"}]},{"type":"error","name":"UUPSUnauthorizedCallContext","inputs":[]},{"type":"error","name":"UUPSUnsupportedProxiableUUID","inputs":[{"name":"slot","type":"bytes32","internalType":"bytes32"}]}],"bytecode":{"object":"0x60a060405230608052348015610013575f5ffd5b5061001c610021565b6100d3565b7ff0c57e16840df040f15088dc2f81fe391c3923bec73e23a9662efc9c229c6a00805468010000000000000000900460ff16156100715760405163f92ee8a960e01b815260040160405180910390fd5b80546001600160401b03908116146100d05780546001600160401b0319166001600160401b0390811782556040519081527fc7f505b2f371ae2175ee4913f4499e1f2633a7b5936321eed1cdaeb6115181d29060200160405180910390a15b50565b608051610b536100f95f395f81816104a6015281816104cf01526106130152610b535ff3fe608060405260043610610084575f3560e01c80638da5cb5b116100575780638da5cb5b146100ec578063ad3cb1cc14610118578063c4d66de814610155578063e30c397814610174578063f2fde38b14610188575f5ffd5b80634f1ef2861461008857806352d1902d1461009d578063715018a6146100c457806379ba5097146100d8575b5f5ffd5b61009b6100963660046109be565b6101a7565b005b3480156100a8575f5ffd5b506100b16101c6565b6040519081526020015b60405180910390f35b3480156100cf575f5ffd5b5061009b6101e1565b3480156100e3575f5ffd5b5061009b6101f4565b3480156100f7575f5ffd5b50610100610241565b6040516001600160a01b0390911681526020016100bb565b348015610123575f5ffd5b50610148604051806040016040528060058152602001640352e302e360dc1b81525081565b6040516100bb9190610a82565b348015610160575f5ffd5b5061009b61016f366004610ab7565b610275565b34801561017f575f5ffd5b506101006103ee565b348015610193575f5ffd5b5061009b6101a2366004610ab7565b610416565b6101af61049b565b6101b88261053f565b6101c28282610547565b5050565b5f6101cf610608565b505f516020610afe5f395f51905f5290565b6101e9610651565b6101f25f610683565b565b33806101fe6103ee565b6001600160a01b0316146102355760405163118cdaa760e01b81526001600160a01b03821660048201526024015b60405180910390fd5b61023e81610683565b50565b5f807f9016d09d72d40fdae2fd8ceac6b6234c7706214fd39c1cd1e609a0528c1993005b546001600160a01b031692915050565b7ff0c57e16840df040f15088dc2f81fe391c3923bec73e23a9662efc9c229c6a008054600160401b810460ff16159067ffffffffffffffff165f811580156102ba5750825b90505f8267ffffffffffffffff1660011480156102d65750303b155b9050811580156102e4575080155b156103025760405163f92ee8a960e01b815260040160405180910390fd5b845467ffffffffffffffff19166001178555831561032c57845460ff60401b1916600160401b1785555b6001600160a01b0386166103535760405163c71f4e3160e01b815260040160405180910390fd5b6001600160a01b0386163b1561038757604051638ca2dc7b60e01b81526001600160a01b038716600482015260240161022c565b61038f6106bb565b610398866106c3565b6103a06106bb565b83156103e657845460ff60401b19168555604051600181527fc7f505b2f371ae2175ee4913f4499e1f2633a7b5936321eed1cdaeb6115181d29060200160405180910390a15b505050505050565b5f807f237e158222e3e6968b72b9db0d8043aacf074ad9f650f0d1606b4d82ee432c00610265565b61041e610651565b7f237e158222e3e6968b72b9db0d8043aacf074ad9f650f0d1606b4d82ee432c0080546001600160a01b0319166001600160a01b0383169081178255610462610241565b6001600160a01b03167f38d16b8cac22d99fc7c124b9cd0de2d3fa1faef420bfe791d8c362d765e2270060405160405180910390a35050565b306001600160a01b037f000000000000000000000000000000000000000000000000000000000000000016148061052157507f00000000000000000000000000000000000000000000000000000000000000006001600160a01b03166105155f516020610afe5f395f51905f52546001600160a01b031690565b6001600160a01b031614155b156101f25760405163703e46dd60e11b815260040160405180910390fd5b61023e610651565b816001600160a01b03166352d1902d6040518163ffffffff1660e01b8152600401602060405180830381865afa9250505080156105a1575060408051601f3d908101601f1916820190925261059e91810190610ad0565b60015b6105c957604051634c9c8ce360e01b81526001600160a01b038316600482015260240161022c565b5f516020610afe5f395f51905f5281146105f957604051632a87526960e21b81526004810182905260240161022c565b61060383836106d4565b505050565b306001600160a01b037f000000000000000000000000000000000000000000000000000000000000000016146101f25760405163703e46dd60e11b815260040160405180910390fd5b3361065a610241565b6001600160a01b0316146101f25760405163118cdaa760e01b815233600482015260240161022c565b7f237e158222e3e6968b72b9db0d8043aacf074ad9f650f0d1606b4d82ee432c0080546001600160a01b03191681556101c282610729565b6101f2610799565b6106cb610799565b61023e816107e2565b6106dd82610813565b6040516001600160a01b038316907fbc7cd75a20ee27fd9adebab32041f755214dbc6bffa90cc0225b39da2e5c2d3b905f90a2805115610721576106038282610876565b6101c26108e8565b7f9016d09d72d40fdae2fd8ceac6b6234c7706214fd39c1cd1e609a0528c19930080546001600160a01b031981166001600160a01b03848116918217845560405192169182907f8be0079c531659141344cd1fd0a4f28419497f9722a3daafe3b4186f6b6457e0905f90a3505050565b7ff0c57e16840df040f15088dc2f81fe391c3923bec73e23a9662efc9c229c6a0054600160401b900460ff166101f257604051631afcd79f60e31b815260040160405180910390fd5b6107ea610799565b6001600160a01b03811661023557604051631e4fbdf760e01b81525f600482015260240161022c565b806001600160a01b03163b5f0361084857604051634c9c8ce360e01b81526001600160a01b038216600482015260240161022c565b5f516020610afe5f395f51905f5280546001600160a01b0319166001600160a01b0392909216919091179055565b60605f5f846001600160a01b0316846040516108929190610ae7565b5f60405180830381855af49150503d805f81146108ca576040519150601f19603f3d011682016040523d82523d5f602084013e6108cf565b606091505b50915091506108df858383610907565b95945050505050565b34156101f25760405163b398979f60e01b815260040160405180910390fd5b60608261091c5761091782610966565b61095f565b815115801561093357506001600160a01b0384163b155b1561095c57604051639996b31560e01b81526001600160a01b038516600482015260240161022c565b50805b9392505050565b8051156109765780518082602001fd5b60405163d6bda27560e01b815260040160405180910390fd5b80356001600160a01b03811681146109a5575f5ffd5b919050565b634e487b7160e01b5f52604160045260245ffd5b5f5f604083850312156109cf575f5ffd5b6109d88361098f565b9150602083013567ffffffffffffffff8111156109f3575f5ffd5b8301601f81018513610a03575f5ffd5b803567ffffffffffffffff811115610a1d57610a1d6109aa565b604051601f8201601f19908116603f0116810167ffffffffffffffff81118282101715610a4c57610a4c6109aa565b604052818152828201602001871015610a63575f5ffd5b816020840160208301375f602083830101528093505050509250929050565b602081525f82518060208401528060208501604085015e5f604082850101526040601f19601f83011684010191505092915050565b5f60208284031215610ac7575f5ffd5b61095f8261098f565b5f60208284031215610ae0575f5ffd5b5051919050565b5f82518060208501845e5f92019182525091905056fe360894a13ba1a3210667c828492db98dca3e2076cc3735a920a3ca505d382bbca26469706673582212206fa2d3be42d61dab751f211f11493cebecd83ea99183ccdac57e688b249d303c64736f6c634300081d0033","linkReferences":{}},"methodIdentifiers":{"UPGRADE_INTERFACE_VERSION()":"ad3cb1cc","acceptOwnership()":"79ba5097","initialize(address)":"c4d66de8","owner()":"8da5cb5b","pendingOwner()":"e30c3978","proxiableUUID()":"52d1902d","renounceOwnership()":"715018a6","transferOwnership(address)":"f2fde38b","upgradeToAndCall(address,bytes)":"4f1ef286"},"id":12}